Component: ARM Compiler 5.06 update 6 (build 750) Tool: armlink [4d35ed]

==============================================================================

Section Cross References

    app_xspider.o(i.APP_XSpiderRun) refers to thread.o(i.rt_thread_mdelay) for rt_thread_mdelay
    app_xspider.o(i.APP_XSpiderRun) refers to noretval__2sprintf.o(.text) for __2sprintf
    app_xspider.o(i.APP_XSpiderRun) refers to thread.o(i.rt_thread_create) for rt_thread_create
    app_xspider.o(i.APP_XSpiderRun) refers to thread.o(i.rt_thread_startup) for rt_thread_startup
    app_xspider.o(i.APP_XSpiderRun) refers to app_xspider.o(i.XSpiderLed_entry) for XSpiderLed_entry
    app_xspider.o(i.APP_XSpiderRun) refers to app_xspider.o(i.XSpiderOrderUpdate_entry) for XSpiderOrderUpdate_entry
    app_xspider.o(i.APP_XSpiderRun) refers to app_xspider.o(i.XSpiderControl_entry) for XSpiderControl_entry
    app_xspider.o(i.APP_XSpiderRun) refers to app_xspider.o(i.XSpiderAction_entry) for XSpiderAction_entry
    app_xspider.o(i.APP_XSpider_Config) refers to kservice.o(i.rt_kprintf) for rt_kprintf
    app_xspider.o(i.APP_XSpider_Config) refers to app_xspider.o(i.APP_XSpiderInit) for APP_XSpiderInit
    app_xspider.o(i.APP_XSpider_Config) refers to module_led.o(i.Module_Led_Config) for Module_Led_Config
    app_xspider.o(i.APP_XSpider_Config) refers to module_oled.o(i.Module_Oled_Config) for Module_Oled_Config
    app_xspider.o(i.APP_XSpider_Config) refers to module_bluetoothhc06.o(i.Module_BlueToothHC06_Config) for Module_BlueToothHC06_Config
    app_xspider.o(i.APP_XSpider_Config) refers to module_steering.o(i.Module_Steering_Config) for Module_Steering_Config
    app_xspider.o(i.APP_XSpider_Config) refers to app_xspider.o(i.APP_XSpiderRun) for APP_XSpiderRun
    app_xspider.o(i.APP_XSpider_Config) refers to app_xspider.o(i.APP_XSpiderEyesChange) for APP_XSpiderEyesChange
    app_xspider.o(i.APP_XSpider_Config) refers to app_xspider.o(i.APP_XSpiderJointPlace) for APP_XSpiderJointPlace
    app_xspider.o(i.XSpiderAction_entry) refers to thread.o(i.rt_thread_mdelay) for rt_thread_mdelay
==============================================================================

Removing Unused input sections from the image.

    Removing app_xspider.o(.rev16_text), (4 bytes).
    Removing app_xspider.o(.revsh_text), (4 bytes).
    Removing app_xspider.o(.rrx_text), (6 bytes).
    Removing main.o(.rev16_text), (4 bytes).
    Removing main.o(.revsh_text), (4 bytes).
    Removing main.o(.rrx_text), (6 bytes).
    Removing module_bluetoothhc06.o(.rev16_text), (4 bytes).
    Removing module_bluetoothhc06.o(.revsh_text), (4 bytes).
    Removing module_bluetoothhc06.o(.rrx_text), (6 bytes).
    Removing module_led.o(.rev16_text), (4 bytes).
    Removing module_led.o(.revsh_text), (4 bytes).
    Removing module_led.o(.rrx_text), (6 bytes).
    Removing module_steering.o(.rev16_text), (4 bytes).
    Removing module_steering.o(.revsh_text), (4 bytes).
    Removing module_steering.o(.rrx_text), (6 bytes).
    Removing module_oled.o(.rev16_text), (4 bytes).
    Removing module_oled.o(.revsh_text), (4 bytes).
    Removing module_oled.o(.rrx_text), (6 bytes).
==============================================================================

Image Symbol Table

    Local Symbols

    Symbol Name                              Value     Ov Type        Size  Object(Section)

    ../clib/angel/boardlib.s                 0x00000000   Number         0  boardshut.o ABSOLUTE
    ../clib/angel/boardlib.s                 0x00000000   Number         0  boardinit1.o ABSOLUTE
    ../clib/angel/boardlib.s                 0x00000000   Number         0  boardinit2.o ABSOLUTE
    ../clib/angel/boardlib.s                 0x00000000   Number         0  boardinit3.o ABSOLUTE
    ../clib/angel/dczerorl2.s                0x00000000   Number         0  __dczerorl2.o ABSOLUTE
    ../clib/angel/handlers.s                 0x00000000   Number         0  __scatter_zi.o ABSOLUTE
    ../clib/angel/kernel.s                   0x00000000   Number         0  rtexit2.o ABSOLUTE
    ../clib/angel/kernel.s                   0x00000000   Number         0  __rtentry4.o ABSOLUTE
    ../clib/angel/kernel.s                   0x00000000   Number         0  __rtentry2.o ABSOLUTE
    ../clib/angel/kernel.s                   0x00000000   Number         0  __rtentry.o ABSOLUTE
    ../clib/angel/kernel.s                   0x00000000   Number         0  rtexit.o ABSOLUTE
    ../clib/angel/rt.s                       0x00000000   Number         0  rt_locale_intlibspace.o ABSOLUTE
    ../clib/angel/rt.s                       0x00000000   Number         0  rt_locale.o ABSOLUTE
    ../clib/angel/rt.s                       0x00000000   Number         0  rt_div0.o ABSOLUTE
    ../clib/angel/rt.s                       0x00000000   Number         0  rt_raise.o ABSOLUTE
    ../clib/angel/rt.s                       0x00000000   Number         0  rt_ctype_table.o ABSOLUTE
    ../clib/angel/rt.s                       0x00000000   Number         0  aeabi_ldiv0.o ABSOLUTE
    ../clib/angel/rt.s                       0x00000000   Number         0  aeabi_ldiv0_sigfpe.o ABSOLUTE
    ../clib/angel/rt.s                       0x00000000   Number         0  rt_errno_addr.o ABSOLUTE
    ../clib/angel/rt.s                       0x00000000   Number         0  rt_errno_addr_intlibspace.o ABSOLUTE
    ../clib/angel/scatter.s                  0x00000000   Number         0  __scatter.o ABSOLUTE
    ../clib/angel/startup.s                  0x00000000   Number         0  __main.o ABSOLUTE
    ../clib/angel/sys.s                      0x00000000   Number         0  sys_stackheap_outer.o ABSOLUTE
    ../clib/angel/sys.s                      0x00000000   Number         0  indicate_semi.o ABSOLUTE
    ../clib/angel/sys.s                      0x00000000   Number         0  use_no_semi.o ABSOLUTE
    ../clib/angel/sys.s                      0x00000000   Number         0  libspace.o ABSOLUTE
    ../clib/angel/sysapp.c                   0x00000000   Number         0  sys_wrch.o ABSOLUTE
    ../clib/angel/sysapp.c                   0x00000000   Number         0  sys_command.o ABSOLUTE
    ../clib/angel/sysapp.c                   0x00000000   Number         0  sys_exit.o ABSOLUTE
    ../clib/armsys.c                         0x00000000   Number         0  argv_veneer.o ABSOLUTE
    ../clib/armsys.c                         0x00000000   Number         0  argv_veneer.o ABSOLUTE
    ../clib/armsys.c                         0x00000000   Number         0  no_argv.o ABSOLUTE
    ../clib/armsys.c                         0x00000000   Number         0  _get_argv_nomalloc.o ABSOLUTE
    ../clib/heapalloc.c                      0x00000000   Number         0  hrguard.o ABSOLUTE
    ../clib/heapaux.c                        0x00000000   Number         0  heapauxi.o ABSOLUTE
    ../clib/libinit.s                        0x00000000   Number         0  libinit2.o ABSOLUTE
    ../clib/libinit.s                        0x00000000   Number         0  libshutdown2.o ABSOLUTE
    ../clib/libinit.s                        0x00000000   Number         0  libinit.o ABSOLUTE
    ../clib/libinit.s                        0x00000000   Number         0  libshutdown.o ABSOLUTE
    ../clib/locale.s                         0x00000000   Number         0  lc_ctype_c.o ABSOLUTE
    ../clib/longlong.s                       0x00000000   Number         0  lludivv7m.o ABSOLUTE
    ../clib/memcpset.s                       0x00000000   Number         0  rt_memclr.o ABSOLUTE
    ../clib/memcpset.s                       0x00000000   Number         0  strcmpv7m.o ABSOLUTE
    ../clib/memcpset.s                       0x00000000   Number         0  strncpy.o ABSOLUTE
    ../clib/memcpset.s                       0x00000000   Number         0  rt_memclr_w.o ABSOLUTE
    ../clib/memcpset.s                       0x00000000   Number         0  rt_memcpy_w.o ABSOLUTE
    ../clib/memcpset.s                       0x00000000   Number         0  rt_memcpy_v6.o ABSOLUTE
    ../clib/printf.c                         0x00000000   Number         0  noretval__2sprintf.o ABSOLUTE
    ../clib/printf.c                         0x00000000   Number         0  __2sprintf.o ABSOLUTE
    ../clib/printf.c                         0x00000000   Number         0  _printf_char_common.o ABSOLUTE
    ../clib/printf.c                         0x00000000   Number         0  _sputc.o ABSOLUTE
    ../clib/printf.c                         0x00000000   Number         0  __printf_nopercent.o ABSOLUTE
    ../clib/scanf.c                          0x00000000   Number         0  atoi.o ABSOLUTE
    ../clib/scanf.c                          0x00000000   Number         0  strtol.o ABSOLUTE
    ../clib/scanf.c                          0x00000000   Number         0  _strtoul.o ABSOLUTE
    ../clib/scanf.c                          0x00000000   Number         0  _chval.o ABSOLUTE
    ../clib/signal.c                         0x00000000   Number         0  defsig_fpe_formal.o ABSOLUTE
    ../clib/signal.c                         0x00000000   Number         0  defsig_rtred_inner.o ABSOLUTE
    ../clib/signal.c                         0x00000000   Number         0  defsig_rtmem_outer.o ABSOLUTE
    ../clib/signal.c                         0x00000000   Number         0  defsig_rtmem_formal.o ABSOLUTE
    ../clib/signal.c                         0x00000000   Number         0  defsig_rtmem_inner.o ABSOLUTE
    ../clib/signal.c                         0x00000000   Number         0  defsig_stak_inner.o ABSOLUTE
    ../clib/signal.c                         0x00000000   Number         0  defsig_pvfn_inner.o ABSOLUTE
    ../clib/signal.c                         0x00000000   Number         0  defsig_cppl_inner.o ABSOLUTE
    ../clib/signal.c                         0x00000000   Number         0  defsig_fpe_outer.o ABSOLUTE
    ../clib/signal.c                         0x00000000   Number         0  defsig_other.o ABSOLUTE
    ../clib/signal.c                         0x00000000   Number         0  defsig_segv_inner.o ABSOLUTE
    ../clib/signal.c                         0x00000000   Number         0  defsig_fpe_inner.o ABSOLUTE
    ../clib/signal.c                         0x00000000   Number         0  defsig_exit.o ABSOLUTE
    ../clib/signal.c                         0x00000000   Number         0  defsig_abrt_inner.o ABSOLUTE
    ../clib/signal.c                         0x00000000   Number         0  defsig_general.o ABSOLUTE
    ../clib/signal.c                         0x00000000   Number         0  __raise.o ABSOLUTE
    ../clib/signal.s                         0x00000000   Number         0  defsig.o ABSOLUTE
    ../clib/stdlib.c                         0x00000000   Number         0  exit.o ABSOLUTE
    ../clib/string.c                         0x00000000   Number         0  strcpy.o ABSOLUTE
    ../clib/string.c                         0x00000000   Number         0  strlen.o ABSOLUTE
    ../clib/string.c                         0x00000000   Number         0  memcmp.o ABSOLUTE
    ../clib/string.c                         0x00000000   Number         0  strncmp.o ABSOLUTE
    ../clib/string.c                         0x00000000   Number         0  strcat.o ABSOLUTE
    ../fplib/daddsub.s                       0x00000000   Number         0  daddsub_clz.o ABSOLUTE
    ../fplib/ddiv.s                          0x00000000   Number         0  ddiv.o ABSOLUTE
    ../fplib/dfixu.s                         0x00000000   Number         0  dfixu.o ABSOLUTE
    ../fplib/dflt.s                          0x00000000   Number         0  dflt_clz.o ABSOLUTE
    ../fplib/dmul.s                          0x00000000   Number         0  dmul.o ABSOLUTE
    ../fplib/dnaninf.s                       0x00000000   Number         0  dnaninf.o ABSOLUTE
    ../fplib/dretinf.s                       0x00000000   Number         0  dretinf.o ABSOLUTE
    ../fplib/fpinit.s                        0x00000000   Number         0  fpinit.o ABSOLUTE
    ../fplib/usenofp.s                       0x00000000   Number         0  usenofp.o ABSOLUTE
    ..\..\..\components\drivers\i2c\i2c-bit-ops.c 0x00000000   Number         0  i2c-bit-ops.o ABSOLUTE
    ..\..\..\components\drivers\i2c\i2c_core.c 0x00000000   Number         0  i2c_core.o ABSOLUTE
    ..\..\..\components\drivers\i2c\i2c_dev.c 0x00000000   Number         0  i2c_dev.o ABSOLUTE
    ..\..\..\components\drivers\misc\pin.c   0x00000000   Number         0  pin.o ABSOLUTE
    ..\..\..\components\drivers\misc\rt_drv_pwm.c 0x00000000   Number         0  rt_drv_pwm.o ABSOLUTE
    ..\..\..\components\drivers\serial\serial.c 0x00000000   Number         0  serial.o ABSOLUTE
    ..\..\..\components\drivers\src\completion.c 0x00000000   Number         0  completion.o ABSOLUTE
    ..\..\..\components\drivers\src\dataqueue.c 0x00000000   Number         0  dataqueue.o ABSOLUTE
    ..\..\..\components\drivers\src\pipe.c   0x00000000   Number         0  pipe.o ABSOLUTE
    ..\..\..\components\drivers\src\ringblk_buf.c 0x00000000   Number         0  ringblk_buf.o ABSOLUTE
    ..\..\..\components\drivers\src\ringbuffer.c 0x00000000   Number         0  ringbuffer.o ABSOLUTE
    ..\..\..\components\drivers\src\waitqueue.c 0x00000000   Number         0  waitqueue.o ABSOLUTE
    ..\..\..\components\drivers\src\workqueue.c 0x00000000   Number         0  workqueue.o ABSOLUTE
    ..\..\..\components\finsh\cmd.c          0x00000000   Number         0  cmd.o ABSOLUTE
    ..\..\..\components\finsh\msh.c          0x00000000   Number         0  msh.o ABSOLUTE
    ..\..\..\components\finsh\shell.c        0x00000000   Number         0  shell.o ABSOLUTE
    ..\..\..\components\libc\compilers\common\time.c 0x00000000   Number         0  time.o ABSOLUTE
    ..\..\..\libcpu\arm\common\backtrace.c   0x00000000   Number         0  backtrace.o ABSOLUTE
    ..\..\..\libcpu\arm\common\div0.c        0x00000000   Number         0  div0.o ABSOLUTE
    ..\..\..\libcpu\arm\common\showmem.c     0x00000000   Number         0  showmem.o ABSOLUTE
    ..\..\..\libcpu\arm\cortex-m3\context_rvds.S 0x00000000   Number         0  context_rvds.o ABSOLUTE
    ..\..\..\libcpu\arm\cortex-m3\cpuport.c  0x00000000   Number         0  cpuport.o ABSOLUTE
    ..\..\..\src\clock.c                     0x00000000   Number         0  clock.o ABSOLUTE
    ..\..\..\src\components.c                0x00000000   Number         0  components.o ABSOLUTE
    ..\..\..\src\device.c                    0x00000000   Number         0  device.o ABSOLUTE
    ..\..\..\src\idle.c                      0x00000000   Number         0  idle.o ABSOLUTE
    ..\..\..\src\ipc.c                       0x00000000   Number         0  ipc.o ABSOLUTE
    ..\..\..\src\irq.c                       0x00000000   Number         0  irq.o ABSOLUTE
    ..\..\..\src\kservice.c                  0x00000000   Number         0  kservice.o ABSOLUTE
    ..\..\..\src\mem.c                       0x00000000   Number         0  mem.o ABSOLUTE
    ..\..\..\src\mempool.c                   0x00000000   Number         0  mempool.o ABSOLUTE
    ..\..\..\src\object.c                    0x00000000   Number         0  object.o ABSOLUTE
    ..\..\..\src\scheduler.c                 0x00000000   Number         0  scheduler.o ABSOLUTE
    ..\..\..\src\signal.c                    0x00000000   Number         0  signal.o ABSOLUTE
    ..\..\..\src\thread.c                    0x00000000   Number         0  thread.o ABSOLUTE
    ..\..\..\src\timer.c                     0x00000000   Number         0  timer.o ABSOLUTE
    ..\\..\\..\\libcpu\\arm\\cortex-m3\\cpuport.c 0x00000000   Number         0  cpuport.o ABSOLUTE
    ..\\libraries\\HAL_Drivers\\drv_common.c 0x00000000   Number         0  drv_common.o ABSOLUTE
    ..\\libraries\\HAL_Drivers\\drv_gpio.c   0x00000000   Number         0  drv_gpio.o ABSOLUTE
    ..\\libraries\\HAL_Drivers\\drv_pwm.c    0x00000000   Number         0  drv_pwm.o ABSOLUTE
    ..\\libraries\\HAL_Drivers\\drv_soft_i2c.c 0x00000000   Number         0  drv_soft_i2c.o ABSOLUTE
    ..\\libraries\\HAL_Drivers\\drv_usart.c  0x00000000   Number         0  drv_usart.o ABSOLUTE
    ..\\libraries\\STM32F1xx_HAL\\CMSIS\\Device\\ST\\STM32F1xx\\Source\\Templates\\system_stm32f1xx.c 0x00000000   Number         0  system_stm32f1xx.o ABSOLUTE
    ..\\libraries\\STM32F1xx_HAL\\STM32F1xx_HAL_Driver\\Src\\stm32f1xx_hal.c 0x00000000   Number         0  stm32f1xx_hal.o ABSOLUTE
    ..\\libraries\\STM32F1xx_HAL\\STM32F1xx_HAL_Driver\\Src\\stm32f1xx_hal_cec.c 0x00000000   Number         0  stm32f1xx_hal_cec.o ABSOLUTE
    ..\\libraries\\STM32F1xx_HAL\\STM32F1xx_HAL_Driver\\Src\\stm32f1xx_hal_cortex.c 0x00000000   Number         0  stm32f1xx_hal_cortex.o ABSOLUTE
    ..\\libraries\\STM32F1xx_HAL\\STM32F1xx_HAL_Driver\\Src\\stm32f1xx_hal_crc.c 0x00000000   Number         0  stm32f1xx_hal_crc.o ABSOLUTE
    ..\\libraries\\STM32F1xx_HAL\\STM32F1xx_HAL_Driver\\Src\\stm32f1xx_hal_dma.c 0x00000000   Number         0  stm32f1xx_hal_dma.o ABSOLUTE
    ..\\libraries\\STM32F1xx_HAL\\STM32F1xx_HAL_Driver\\Src\\stm32f1xx_hal_gpio.c 0x00000000   Number         0  stm32f1xx_hal_gpio.o ABSOLUTE
    ..\\libraries\\STM32F1xx_HAL\\STM32F1xx_HAL_Driver\\Src\\stm32f1xx_hal_gpio_ex.c 0x00000000   Number         0  stm32f1xx_hal_gpio_ex.o ABSOLUTE
    ..\\libraries\\STM32F1xx_HAL\\STM32F1xx_HAL_Driver\\Src\\stm32f1xx_hal_i2c.c 0x00000000   Number         0  stm32f1xx_hal_i2c.o ABSOLUTE
    ..\\libraries\\STM32F1xx_HAL\\STM32F1xx_HAL_Driver\\Src\\stm32f1xx_hal_pwr.c 0x00000000   Number         0  stm32f1xx_hal_pwr.o ABSOLUTE
    ..\\libraries\\STM32F1xx_HAL\\STM32F1xx_HAL_Driver\\Src\\stm32f1xx_hal_rcc.c 0x00000000   Number         0  stm32f1xx_hal_rcc.o ABSOLUTE
    ..\\libraries\\STM32F1xx_HAL\\STM32F1xx_HAL_Driver\\Src\\stm32f1xx_hal_rcc_ex.c 0x00000000   Number         0  stm32f1xx_hal_rcc_ex.o ABSOLUTE
    ..\\libraries\\STM32F1xx_HAL\\STM32F1xx_HAL_Driver\\Src\\stm32f1xx_hal_tim.c 0x00000000   Number         0  stm32f1xx_hal_tim.o ABSOLUTE
    ..\\libraries\\STM32F1xx_HAL\\STM32F1xx_HAL_Driver\\Src\\stm32f1xx_hal_tim_ex.c 0x00000000   Number         0  stm32f1xx_hal_tim_ex.o ABSOLUTE
    ..\\libraries\\STM32F1xx_HAL\\STM32F1xx_HAL_Driver\\Src\\stm32f1xx_hal_uart.c 0x00000000   Number         0  stm32f1xx_hal_uart.o ABSOLUTE
    ..\\libraries\\STM32F1xx_HAL\\STM32F1xx_HAL_Driver\\Src\\stm32f1xx_hal_usart.c 0x00000000   Number         0  stm32f1xx_hal_usart.o ABSOLUTE
    ..\libraries\HAL_Drivers\drv_common.c    0x00000000   Number         0  drv_common.o ABSOLUTE
    ..\libraries\HAL_Drivers\drv_gpio.c      0x00000000   Number         0  drv_gpio.o ABSOLUTE
    ..\libraries\HAL_Drivers\drv_pwm.c       0x00000000   Number         0  drv_pwm.o ABSOLUTE
    ..\libraries\HAL_Drivers\drv_soft_i2c.c  0x00000000   Number         0  drv_soft_i2c.o ABSOLUTE
    ..\libraries\HAL_Drivers\drv_usart.c     0x00000000   Number         0  drv_usart.o ABSOLUTE
    ..\libraries\STM32F1xx_HAL\CMSIS\Device\ST\STM32F1xx\Source\Templates\arm\startup_stm32f103xe.s 0x00000000   Number         0  startup_stm32f103xe.o ABSOLUTE
    ..\libraries\STM32F1xx_HAL\CMSIS\Device\ST\STM32F1xx\Source\Templates\system_stm32f1xx.c 0x00000000   Number         0  system_stm32f1xx.o ABSOLUTE
    ..\libraries\STM32F1xx_HAL\STM32F1xx_HAL_Driver\Src\stm32f1xx_hal.c 0x00000000   Number         0  stm32f1xx_hal.o ABSOLUTE
    ..\libraries\STM32F1xx_HAL\STM32F1xx_HAL_Driver\Src\stm32f1xx_hal_cec.c 0x00000000   Number         0  stm32f1xx_hal_cec.o ABSOLUTE
    ..\libraries\STM32F1xx_HAL\STM32F1xx_HAL_Driver\Src\stm32f1xx_hal_cortex.c 0x00000000   Number         0  stm32f1xx_hal_cortex.o ABSOLUTE
    ..\libraries\STM32F1xx_HAL\STM32F1xx_HAL_Driver\Src\stm32f1xx_hal_crc.c 0x00000000   Number         0  stm32f1xx_hal_crc.o ABSOLUTE
    ..\libraries\STM32F1xx_HAL\STM32F1xx_HAL_Driver\Src\stm32f1xx_hal_dma.c 0x00000000   Number         0  stm32f1xx_hal_dma.o ABSOLUTE
    ..\libraries\STM32F1xx_HAL\STM32F1xx_HAL_Driver\Src\stm32f1xx_hal_gpio.c 0x00000000   Number         0  stm32f1xx_hal_gpio.o ABSOLUTE
    ..\libraries\STM32F1xx_HAL\STM32F1xx_HAL_Driver\Src\stm32f1xx_hal_gpio_ex.c 0x00000000   Number         0  stm32f1xx_hal_gpio_ex.o ABSOLUTE
    ..\libraries\STM32F1xx_HAL\STM32F1xx_HAL_Driver\Src\stm32f1xx_hal_i2c.c 0x00000000   Number         0  stm32f1xx_hal_i2c.o ABSOLUTE
    ..\libraries\STM32F1xx_HAL\STM32F1xx_HAL_Driver\Src\stm32f1xx_hal_pwr.c 0x00000000   Number         0  stm32f1xx_hal_pwr.o ABSOLUTE
    ..\libraries\STM32F1xx_HAL\STM32F1xx_HAL_Driver\Src\stm32f1xx_hal_rcc.c 0x00000000   Number         0  stm32f1xx_hal_rcc.o ABSOLUTE
    ..\libraries\STM32F1xx_HAL\STM32F1xx_HAL_Driver\Src\stm32f1xx_hal_rcc_ex.c 0x00000000   Number         0  stm32f1xx_hal_rcc_ex.o ABSOLUTE
    ..\libraries\STM32F1xx_HAL\STM32F1xx_HAL_Driver\Src\stm32f1xx_hal_tim.c 0x00000000   Number         0  stm32f1xx_hal_tim.o ABSOLUTE
    ..\libraries\STM32F1xx_HAL\STM32F1xx_HAL_Driver\Src\stm32f1xx_hal_tim_ex.c 0x00000000   Number         0  stm32f1xx_hal_tim_ex.o ABSOLUTE
    ..\libraries\STM32F1xx_HAL\STM32F1xx_HAL_Driver\Src\stm32f1xx_hal_uart.c 0x00000000   Number         0  stm32f1xx_hal_uart.o ABSOLUTE
    ..\libraries\STM32F1xx_HAL\STM32F1xx_HAL_Driver\Src\stm32f1xx_hal_usart.c 0x00000000   Number         0  stm32f1xx_hal_usart.o ABSOLUTE
    F:\HEROProject_WX\Gitee\RttOs_ModuleLib\Module\Module_BlueToothHC06.c 0x00000000   Number         0  module_bluetoothhc06.o ABSOLUTE
    F:\HEROProject_WX\Gitee\RttOs_ModuleLib\Module\Module_LED.c 0x00000000   Number         0  module_led.o ABSOLUTE
    F:\HEROProject_WX\Gitee\RttOs_ModuleLib\Module\Module_OLED.c 0x00000000   Number         0  module_oled.o ABSOLUTE
    F:\HEROProject_WX\Gitee\RttOs_ModuleLib\Module\Module_Steering.c 0x00000000   Number         0  module_steering.o ABSOLUTE
    F:\\HEROProject_WX\\Gitee\\RttOs_ModuleLib\\Module\\Module_BlueToothHC06.c 0x00000000   Number         0  module_bluetoothhc06.o ABSOLUTE
    F:\\HEROProject_WX\\Gitee\\RttOs_ModuleLib\\Module\\Module_LED.c 0x00000000   Number         0  module_led.o ABSOLUTE
    F:\\HEROProject_WX\\Gitee\\RttOs_ModuleLib\\Module\\Module_OLED.c 0x00000000   Number         0  module_oled.o ABSOLUTE
    F:\\HEROProject_WX\\Gitee\\RttOs_ModuleLib\\Module\\Module_Steering.c 0x00000000   Number         0  module_steering.o ABSOLUTE
    applications\App_XSpider.c               0x00000000   Number         0  app_xspider.o ABSOLUTE
    applications\\App_XSpider.c              0x00000000   Number         0  app_xspider.o ABSOLUTE
    applications\\main.c                     0x00000000   Number         0  main.o ABSOLUTE
    applications\main.c                      0x00000000   Number         0  main.o ABSOLUTE
    board\CubeMX_Config\Src\stm32f1xx_hal_msp.c 0x00000000   Number         0  stm32f1xx_hal_msp.o ABSOLUTE
    board\\CubeMX_Config\\Src\\stm32f1xx_hal_msp.c 0x00000000   Number         0  stm32f1xx_hal_msp.o ABSOLUTE
    board\\board.c                           0x00000000   Number         0  board.o ABSOLUTE
    board\board.c                            0x00000000   Number         0  board.o ABSOLUTE
    dc.s                                     0x00000000   Number         0  dc.o ABSOLUTE
    RESET                                    0x08000000   Section      304  startup_stm32f103xe.o(RESET)
    !!!main                                  0x08000130   Section        8  __main.o(!!!main)
    !!!scatter                               0x08000138   Section       52  __scatter.o(!!!scatter)
    !!dczerorl2                              0x0800016c   Section       90  __dczerorl2.o(!!dczerorl2)
    !!handler_zi                             0x080001c8   Section       28  __scatter_zi.o(!!handler_zi)
    .ARM.Collect$$libinit$$00000000          0x080001e4   Section        2  libinit.o(.ARM.Collect$$libinit$$00000000)
    .ARM.Collect$$libinit$$00000002          0x080001e6   Section        0  libinit2.o(.ARM.Collect$$libinit$$00000002)
    .ARM.Collect$$libinit$$00000004          0x080001e6   Section        0  libinit2.o(.ARM.Collect$$libinit$$00000004)
    .ARM.Collect$$libinit$$0000000A          0x080001e6   Section        0  libinit2.o(.ARM.Collect$$libinit$$0000000A)
    .ARM.Collect$$libinit$$0000000C          0x080001e6   Section        0  libinit2.o(.ARM.Collect$$libinit$$0000000C)
    .ARM.Collect$$libinit$$0000000E          0x080001e6   Section        0  libinit2.o(.ARM.Collect$$libinit$$0000000E)
    .ARM.Collect$$libinit$$0000000F          0x080001e6   Section        6  libinit2.o(.ARM.Collect$$libinit$$0000000F)
    .ARM.Collect$$libinit$$00000011          0x080001ec   Section        0  libinit2.o(.ARM.Collect$$libinit$$00000011)
    .ARM.Collect$$libinit$$00000012          0x080001ec   Section       12  libinit2.o(.ARM.Collect$$libinit$$00000012)
    .ARM.Collect$$libinit$$00000013          0x080001f8   Section        0  libinit2.o(.ARM.Collect$$libinit$$00000013)
    .ARM.Collect$$libinit$$00000015          0x080001f8   Section        0  libinit2.o(.ARM.Collect$$libinit$$00000015)
    .ARM.Collect$$libinit$$00000017          0x080001f8   Section        0  libinit2.o(.ARM.Collect$$libinit$$00000017)
    .ARM.Collect$$libinit$$00000019          0x080001f8   Section        0  libinit2.o(.ARM.Collect$$libinit$$00000019)
    .ARM.Collect$$libinit$$0000001B          0x080001f8   Section        0  libinit2.o(.ARM.Collect$$libinit$$0000001B)
    .ARM.Collect$$libinit$$0000001D          0x080001f8   Section        0  libinit2.o(.ARM.Collect$$libinit$$0000001D)
    .ARM.Collect$$libinit$$0000001F          0x080001f8   Section        0  libinit2.o(.ARM.Collect$$libinit$$0000001F)
    .ARM.Collect$$libinit$$00000021          0x080001f8   Section        0  libinit2.o(.ARM.Collect$$libinit$$00000021)
    .ARM.Collect$$libinit$$00000023          0x080001f8   Section        0  libinit2.o(.ARM.Collect$$libinit$$00000023)
    .ARM.Collect$$libinit$$00000025          0x080001f8   Section        0  libinit2.o(.ARM.Collect$$libinit$$00000025)
    .ARM.Collect$$libinit$$0000002C          0x080001f8   Section        0  libinit2.o(.ARM.Collect$$libinit$$0000002C)
    .ARM.Collect$$libinit$$0000002E          0x080001f8   Section        0  libinit2.o(.ARM.Collect$$libinit$$0000002E)
    .ARM.Collect$$libinit$$00000030          0x080001f8   Section        0  libinit2.o(.ARM.Collect$$libinit$$00000030)
    .ARM.Collect$$libinit$$00000032          0x080001f8   Section        0  libinit2.o(.ARM.Collect$$libinit$$00000032)
    .ARM.Collect$$libinit$$00000033          0x080001f8   Section        2  libinit2.o(.ARM.Collect$$libinit$$00000033)
    .ARM.Collect$$libshutdown$$00000000      0x080001fa   Section        2  libshutdown.o(.ARM.Collect$$libshutdown$$00000000)
    .ARM.Collect$$libshutdown$$00000002      0x080001fc   Section        0  libshutdown2.o(.ARM.Collect$$libshutdown$$00000002)
    .ARM.Collect$$libshutdown$$00000004      0x080001fc   Section        0  libshutdown2.o(.ARM.Collect$$libshutdown$$00000004)
    .ARM.Collect$$libshutdown$$00000007      0x080001fc   Section        0  libshutdown2.o(.ARM.Collect$$libshutdown$$00000007)
    .ARM.Collect$$libshutdown$$0000000A      0x080001fc   Section        0  libshutdown2.o(.ARM.Collect$$libshutdown$$0000000A)
    .ARM.Collect$$libshutdown$$0000000C      0x080001fc   Section        0  libshutdown2.o(.ARM.Collect$$libshutdown$$0000000C)
    .ARM.Collect$$libshutdown$$0000000F      0x080001fc   Section        0  libshutdown2.o(.ARM.Collect$$libshutdown$$0000000F)
    .ARM.Collect$$libshutdown$$00000010      0x080001fc   Section        2  libshutdown2.o(.ARM.Collect$$libshutdown$$00000010)
    .ARM.Collect$$rtentry$$00000000          0x080001fe   Section        0  __rtentry.o(.ARM.Collect$$rtentry$$00000000)
    .ARM.Collect$$rtentry$$00000002          0x080001fe   Section        0  __rtentry2.o(.ARM.Collect$$rtentry$$00000002)
    .ARM.Collect$$rtentry$$00000004          0x080001fe   Section        6  __rtentry4.o(.ARM.Collect$$rtentry$$00000004)
    .ARM.Collect$$rtentry$$00000009          0x08000204   Section        0  __rtentry2.o(.ARM.Collect$$rtentry$$00000009)
    .ARM.Collect$$rtentry$$0000000A          0x08000204   Section        4  __rtentry2.o(.ARM.Collect$$rtentry$$0000000A)
    .ARM.Collect$$rtentry$$0000000C          0x08000208   Section        0  __rtentry2.o(.ARM.Collect$$rtentry$$0000000C)
    .ARM.Collect$$rtentry$$0000000D          0x08000208   Section        8  __rtentry2.o(.ARM.Collect$$rtentry$$0000000D)
    .ARM.Collect$$rtexit$$00000000           0x08000210   Section        2  rtexit.o(.ARM.Collect$$rtexit$$00000000)
    .ARM.Collect$$rtexit$$00000002           0x08000212   Section        0  rtexit2.o(.ARM.Collect$$rtexit$$00000002)
    .ARM.Collect$$rtexit$$00000003           0x08000212   Section        4  rtexit2.o(.ARM.Collect$$rtexit$$00000003)
    .ARM.Collect$$rtexit$$00000004           0x08000216   Section        6  rtexit2.o(.ARM.Collect$$rtexit$$00000004)
    .emb_text                                0x0800021c   Section       16  cpuport.o(.emb_text)
    .text                                    0x0800022c   Section      244  context_rvds.o(.text)
    .text                                    0x08000320   Section       64  startup_stm32f103xe.o(.text)
    .text                                    0x08000360   Section      238  lludivv7m.o(.text)
    .text                                    0x08000450   Section        0  noretval__2sprintf.o(.text)
    .text                                    0x08000478   Section        0  atoi.o(.text)
    .text                                    0x08000492   Section        0  memcmp.o(.text)
    .text                                    0x080004ea   Section        0  strcpy.o(.text)
    .text                                    0x08000532   Section        0  strlen.o(.text)
    .text                                    0x08000570   Section        0  strncmp.o(.text)
    .text                                    0x08000606   Section        0  strcat.o(.text)
    .text                                    0x0800061e   Section      138  rt_memcpy_v6.o(.text)
    .text                                    0x080006a8   Section      100  rt_memcpy_w.o(.text)
    .text                                    0x0800070c   Section       68  rt_memclr.o(.text)
    .text                                    0x08000750   Section       78  rt_memclr_w.o(.text)
    .text                                    0x0800079e   Section       86  strncpy.o(.text)
    .text                                    0x080007f4   Section      128  strcmpv7m.o(.text)
    .text                                    0x08000874   Section        0  heapauxi.o(.text)
    .text                                    0x0800087c   Section        8  rt_errno_addr_intlibspace.o(.text)
    .text                                    0x08000884   Section        0  _printf_char_common.o(.text)
    _printf_input_char                       0x08000885   Thumb Code    10  _printf_char_common.o(.text)
    .text                                    0x080008b4   Section        0  _sputc.o(.text)
    .text                                    0x080008be   Section        0  strtol.o(.text)
    .text                                    0x08000930   Section        8  libspace.o(.text)
    .text                                    0x08000938   Section       16  rt_ctype_table.o(.text)
    .text                                    0x08000948   Section        0  __printf_nopercent.o(.text)
    .text                                    0x08000970   Section        0  _strtoul.o(.text)
    .text                                    0x08000a0e   Section       74  sys_stackheap_outer.o(.text)
    .text                                    0x08000a58   Section        8  rt_locale_intlibspace.o(.text)
    .text                                    0x08000a60   Section        0  _chval.o(.text)
    .text                                    0x08000a7c   Section        0  exit.o(.text)
    .text                                    0x08000a90   Section        0  sys_exit.o(.text)
    .text                                    0x08000a9c   Section        2  use_no_semi.o(.text)
    .text                                    0x08000a9e   Section        0  indicate_semi.o(.text)
    i.$Sub$$main                             0x08000a9e   Section        0  components.o(i.$Sub$$main)
    i.APP_XSpiderEyesChange                  0x08000aa8   Section        0  app_xspider.o(i.APP_XSpiderEyesChange)
    APP_XSpiderEyesChange                    0x08000aa9   Thumb Code   104  app_xspider.o(i.APP_XSpiderEyesChange)
    i.APP_XSpiderInit                        0x08000b10   Section        0  app_xspider.o(i.APP_XSpiderInit)
    APP_XSpiderInit                          0x08000b11   Thumb Code   472  app_xspider.o(i.APP_XSpiderInit)
    i.APP_XSpiderJointPlace                  0x08000d08   Section        0  app_xspider.o(i.APP_XSpiderJointPlace)
    APP_XSpiderJointPlace                    0x08000d09   Thumb Code   176  app_xspider.o(i.APP_XSpiderJointPlace)
    i.APP_XSpiderRun                         0x08000db8   Section        0  app_xspider.o(i.APP_XSpiderRun)
    APP_XSpiderRun                           0x08000db9   Thumb Code   298  app_xspider.o(i.APP_XSpiderRun)
    i.APP_XSpider_Config                     0x08000f3c   Section        0  app_xspider.o(i.APP_XSpider_Config)
    i.DMA1_Channel6_IRQHandler               0x08001000   Section        0  drv_usart.o(i.DMA1_Channel6_IRQHandler)
    i.DMA_SetConfig                          0x08001018   Section        0  stm32f1xx_hal_dma.o(i.DMA_SetConfig)
    DMA_SetConfig                            0x08001019   Thumb Code    42  stm32f1xx_hal_dma.o(i.DMA_SetConfig)
    i.EXTI0_IRQHandler                       0x08001042   Section        0  drv_gpio.o(i.EXTI0_IRQHandler)
    i.EXTI15_10_IRQHandler                   0x08001056   Section        0  drv_gpio.o(i.EXTI15_10_IRQHandler)
    i.EXTI1_IRQHandler                       0x08001094   Section        0  drv_gpio.o(i.EXTI1_IRQHandler)
    i.EXTI2_IRQHandler                       0x080010a8   Section        0  drv_gpio.o(i.EXTI2_IRQHandler)
    i.EXTI3_IRQHandler                       0x080010bc   Section        0  drv_gpio.o(i.EXTI3_IRQHandler)
    i.EXTI4_IRQHandler                       0x080010d0   Section        0  drv_gpio.o(i.EXTI4_IRQHandler)
    i.EXTI9_5_IRQHandler                     0x080010e4   Section        0  drv_gpio.o(i.EXTI9_5_IRQHandler)
    i.HAL_DMA_Abort_IT                       0x08001114   Section        0  stm32f1xx_hal_dma.o(i.HAL_DMA_Abort_IT)
    i.HAL_DMA_DeInit                         0x08001244   Section        0  stm32f1xx_hal_dma.o(i.HAL_DMA_DeInit)
    i.HAL_DMA_IRQHandler                     0x080012c4   Section        0  stm32f1xx_hal_dma.o(i.HAL_DMA_IRQHandler)
    i.HAL_DMA_Init                           0x0800150c   Section        0  stm32f1xx_hal_dma.o(i.HAL_DMA_Init)
    i.HAL_DMA_Start_IT                       0x08001588   Section        0  stm32f1xx_hal_dma.o(i.HAL_DMA_Start_IT)
    i.HAL_GPIO_DeInit                        0x080015f8   Section        0  stm32f1xx_hal_gpio.o(i.HAL_GPIO_DeInit)
    i.HAL_GPIO_EXTI_Callback                 0x08001718   Section        0  drv_gpio.o(i.HAL_GPIO_EXTI_Callback)
    i.HAL_GPIO_EXTI_IRQHandler               0x0800173c   Section        0  stm32f1xx_hal_gpio.o(i.HAL_GPIO_EXTI_IRQHandler)
    i.HAL_GPIO_Init                          0x08001754   Section        0  stm32f1xx_hal_gpio.o(i.HAL_GPIO_Init)
    i.HAL_GPIO_ReadPin                       0x0800194c   Section        0  stm32f1xx_hal_gpio.o(i.HAL_GPIO_ReadPin)
    i.HAL_GPIO_WritePin                      0x08001956   Section        0  stm32f1xx_hal_gpio.o(i.HAL_GPIO_WritePin)
    i.HAL_GetTick                            0x08001960   Section        0  drv_common.o(i.HAL_GetTick)
    i.HAL_IncTick                            0x08001974   Section        0  stm32f1xx_hal.o(i.HAL_IncTick)
    i.HAL_Init                               0x08001984   Section        0  stm32f1xx_hal.o(i.HAL_Init)
    i.HAL_InitTick                           0x080019a8   Section        0  drv_common.o(i.HAL_InitTick)
    i.HAL_MspInit                            0x080019ac   Section        0  stm32f1xx_hal_msp.o(i.HAL_MspInit)
    i.HAL_NVIC_DisableIRQ                    0x080019e8   Section        0  stm32f1xx_hal_cortex.o(i.HAL_NVIC_DisableIRQ)
    i.HAL_NVIC_EnableIRQ                     0x08001a0a   Section        0  stm32f1xx_hal_cortex.o(i.HAL_NVIC_EnableIRQ)
    i.HAL_NVIC_SetPriority                   0x08001a24   Section        0  stm32f1xx_hal_cortex.o(i.HAL_NVIC_SetPriority)
    i.HAL_NVIC_SetPriorityGrouping           0x08001a64   Section        0  stm32f1xx_hal_cortex.o(i.HAL_NVIC_SetPriorityGrouping)
    i.HAL_RCC_ClockConfig                    0x08001a88   Section        0  stm32f1xx_hal_rcc.o(i.HAL_RCC_ClockConfig)
    i.HAL_RCC_GetHCLKFreq                    0x08001bb4   Section        0  stm32f1xx_hal_rcc.o(i.HAL_RCC_GetHCLKFreq)
    i.HAL_RCC_GetPCLK1Freq                   0x08001bc0   Section        0  stm32f1xx_hal_rcc.o(i.HAL_RCC_GetPCLK1Freq)
    i.HAL_RCC_GetPCLK2Freq                   0x08001be0   Section        0  stm32f1xx_hal_rcc.o(i.HAL_RCC_GetPCLK2Freq)
    i.HAL_RCC_GetSysClockFreq                0x08001c00   Section        0  stm32f1xx_hal_rcc.o(i.HAL_RCC_GetSysClockFreq)
    i.HAL_RCC_OscConfig                      0x08001c6c   Section        0  stm32f1xx_hal_rcc.o(i.HAL_RCC_OscConfig)
    i.HAL_SYSTICK_CLKSourceConfig            0x08001f8c   Section        0  stm32f1xx_hal_cortex.o(i.HAL_SYSTICK_CLKSourceConfig)
    i.HAL_SYSTICK_Config                     0x08001fa4   Section        0  stm32f1xx_hal_cortex.o(i.HAL_SYSTICK_Config)
    i.HAL_TIMEx_MasterConfigSynchronization  0x08001fcc   Section        0  stm32f1xx_hal_tim_ex.o(i.HAL_TIMEx_MasterConfigSynchronization)
    i.HAL_TIM_Base_Init                      0x0800200e   Section        0  stm32f1xx_hal_tim.o(i.HAL_TIM_Base_Init)
    i.HAL_TIM_Base_MspInit                   0x08002044   Section        0  stm32f1xx_hal_msp.o(i.HAL_TIM_Base_MspInit)
    i.HAL_TIM_ConfigClockSource              0x0800209c   Section        0  stm32f1xx_hal_tim.o(i.HAL_TIM_ConfigClockSource)
    i.HAL_TIM_GenerateEvent                  0x08002172   Section        0  stm32f1xx_hal_tim.o(i.HAL_TIM_GenerateEvent)
    i.HAL_TIM_MspPostInit                    0x08002198   Section        0  stm32f1xx_hal_msp.o(i.HAL_TIM_MspPostInit)
    i.HAL_TIM_PWM_ConfigChannel              0x0800228c   Section        0  stm32f1xx_hal_tim.o(i.HAL_TIM_PWM_ConfigChannel)
    i.HAL_TIM_PWM_Init                       0x0800235c   Section        0  stm32f1xx_hal_tim.o(i.HAL_TIM_PWM_Init)
    i.HAL_TIM_PWM_MspInit                    0x08002392   Section        0  stm32f1xx_hal_tim.o(i.HAL_TIM_PWM_MspInit)
    i.HAL_TIM_PWM_Start                      0x08002394   Section        0  stm32f1xx_hal_tim.o(i.HAL_TIM_PWM_Start)
    i.HAL_TIM_PWM_Stop                       0x080023d8   Section        0  stm32f1xx_hal_tim.o(i.HAL_TIM_PWM_Stop)
    i.HAL_UART_ErrorCallback                 0x08002434   Section        0  drv_usart.o(i.HAL_UART_ErrorCallback)
    i.HAL_UART_IRQHandler                    0x0800245c   Section        0  stm32f1xx_hal_uart.o(i.HAL_UART_IRQHandler)
    i.HAL_UART_Init                          0x0800256c   Section        0  stm32f1xx_hal_uart.o(i.HAL_UART_Init)
    i.HAL_UART_MspInit                       0x080025d0   Section        0  stm32f1xx_hal_msp.o(i.HAL_UART_MspInit)
    i.HAL_UART_Receive_DMA                   0x0800267c   Section        0  stm32f1xx_hal_uart.o(i.HAL_UART_Receive_DMA)
    i.HAL_UART_RxCpltCallback                0x08002714   Section        0  drv_usart.o(i.HAL_UART_RxCpltCallback)
    i.HAL_UART_RxHalfCpltCallback            0x08002748   Section        0  drv_usart.o(i.HAL_UART_RxHalfCpltCallback)
    i.HAL_UART_Transmit_DMA                  0x0800277c   Section        0  stm32f1xx_hal_uart.o(i.HAL_UART_Transmit_DMA)
    i.HAL_UART_TxCpltCallback                0x080027fc   Section        0  drv_usart.o(i.HAL_UART_TxCpltCallback)
    i.HAL_UART_TxHalfCpltCallback            0x08002830   Section        0  stm32f1xx_hal_uart.o(i.HAL_UART_TxHalfCpltCallback)
    i.IICStart                               0x08002832   Section        0  module_oled.o(i.IICStart)
    IICStart                                 0x08002833   Thumb Code    40  module_oled.o(i.IICStart)
    i.IICStop                                0x0800285a   Section        0  module_oled.o(i.IICStop)
    IICStop                                  0x0800285b   Thumb Code    32  module_oled.o(i.IICStop)
    i.IICWaitAck                             0x0800287a   Section        0  module_oled.o(i.IICWaitAck)
    IICWaitAck                               0x0800287b   Thumb Code    24  module_oled.o(i.IICWaitAck)
    i.Method_OledCls                         0x08002892   Section        0  module_oled.o(i.Method_OledCls)
    Method_OledCls                           0x08002893   Thumb Code     6  module_oled.o(i.Method_OledCls)
    i.Method_OledFill                        0x08002898   Section        0  module_oled.o(i.Method_OledFill)
    Method_OledFill                          0x08002899   Thumb Code    78  module_oled.o(i.Method_OledFill)
    i.Method_OledSetPos                      0x080028e6   Section        0  module_oled.o(i.Method_OledSetPos)
    Method_OledSetPos                        0x080028e7   Thumb Code    44  module_oled.o(i.Method_OledSetPos)
    i.Method_OledShowBmp                     0x08002912   Section        0  module_oled.o(i.Method_OledShowBmp)
    Method_OledShowBmp                       0x08002913   Thumb Code    68  module_oled.o(i.Method_OledShowBmp)
    i.Method_OledShowStr                     0x08002958   Section        0  module_oled.o(i.Method_OledShowStr)
    Method_OledShowStr                       0x08002959   Thumb Code   202  module_oled.o(i.Method_OledShowStr)
    i.Method_OledSleep                       0x08002a28   Section        0  module_oled.o(i.Method_OledSleep)
    Method_OledSleep                         0x08002a29   Thumb Code    30  module_oled.o(i.Method_OledSleep)
    i.Method_OledWakeUp                      0x08002a46   Section        0  module_oled.o(i.Method_OledWakeUp)
    Method_OledWakeUp                        0x08002a47   Thumb Code    30  module_oled.o(i.Method_OledWakeUp)
    i.Module_BlueToothHC06Code               0x08002a64   Section        0  module_bluetoothhc06.o(i.Module_BlueToothHC06Code)
    Module_BlueToothHC06Code                 0x08002a65   Thumb Code    86  module_bluetoothhc06.o(i.Module_BlueToothHC06Code)
    i.Module_BlueToothHC06Encode             0x08002aba   Section        0  module_bluetoothhc06.o(i.Module_BlueToothHC06Encode)
    Module_BlueToothHC06Encode               0x08002abb   Thumb Code    38  module_bluetoothhc06.o(i.Module_BlueToothHC06Encode)
    i.Module_BlueToothHC06Feed               0x08002ae0   Section        0  module_bluetoothhc06.o(i.Module_BlueToothHC06Feed)
    Module_BlueToothHC06Feed                 0x08002ae1   Thumb Code    82  module_bluetoothhc06.o(i.Module_BlueToothHC06Feed)
    i.Module_BlueToothHC06Handle             0x08002b3c   Section        0  module_bluetoothhc06.o(i.Module_BlueToothHC06Handle)
    Module_BlueToothHC06Handle               0x08002b3d   Thumb Code    12  module_bluetoothhc06.o(i.Module_BlueToothHC06Handle)
    i.Module_BlueToothHC06Init               0x08002b4c   Section        0  module_bluetoothhc06.o(i.Module_BlueToothHC06Init)
    Module_BlueToothHC06Init                 0x08002b4d   Thumb Code   110  module_bluetoothhc06.o(i.Module_BlueToothHC06Init)
    i.Module_BlueToothHC06Send               0x08002bf0   Section        0  module_bluetoothhc06.o(i.Module_BlueToothHC06Send)
    Module_BlueToothHC06Send                 0x08002bf1   Thumb Code    44  module_bluetoothhc06.o(i.Module_BlueToothHC06Send)
    i.Module_BlueToothHC06_Config            0x08002c1c   Section        0  module_bluetoothhc06.o(i.Module_BlueToothHC06_Config)
    i.Module_LedHandle                       0x08002cac   Section        0  module_led.o(i.Module_LedHandle)
    Module_LedHandle                         0x08002cad   Thumb Code   118  module_led.o(i.Module_LedHandle)
    i.Module_LedInit                         0x08002d22   Section        0  module_led.o(i.Module_LedInit)
    Module_LedInit                           0x08002d23   Thumb Code    42  module_led.o(i.Module_LedInit)
    i.Module_LedSet                          0x08002d4c   Section        0  module_led.o(i.Module_LedSet)
    Module_LedSet                            0x08002d4d   Thumb Code    20  module_led.o(i.Module_LedSet)
    i.Module_Led_Config                      0x08002d60   Section        0  module_led.o(i.Module_Led_Config)
    i.Module_OledInit                        0x08002dc0   Section        0  module_oled.o(i.Module_OledInit)
    Module_OledInit                          0x08002dc1   Thumb Code   266  module_oled.o(i.Module_OledInit)
    i.Module_Oled_Config                     0x08002ecc   Section        0  module_oled.o(i.Module_Oled_Config)
    i.Module_SteeringDisable                 0x08002f68   Section        0  module_steering.o(i.Module_SteeringDisable)
    Module_SteeringDisable                   0x08002f69   Thumb Code     8  module_steering.o(i.Module_SteeringDisable)
    i.Module_SteeringEnable                  0x08002f70   Section        0  module_steering.o(i.Module_SteeringEnable)
    Module_SteeringEnable                    0x08002f71   Thumb Code     8  module_steering.o(i.Module_SteeringEnable)
    i.Module_SteeringInit                    0x08002f78   Section        0  module_steering.o(i.Module_SteeringInit)
    Module_SteeringInit                      0x08002f79   Thumb Code    76  module_steering.o(i.Module_SteeringInit)
    i.Module_SteeringSetAngle                0x08002ff4   Section        0  module_steering.o(i.Module_SteeringSetAngle)
    Module_SteeringSetAngle                  0x08002ff5   Thumb Code    90  module_steering.o(i.Module_SteeringSetAngle)
    i.Module_SteeringSetPulse                0x08003054   Section        0  module_steering.o(i.Module_SteeringSetPulse)
    Module_SteeringSetPulse                  0x08003055   Thumb Code    14  module_steering.o(i.Module_SteeringSetPulse)
    i.Module_Steering_Config                 0x08003064   Section        0  module_steering.o(i.Module_Steering_Config)
    i.SCL_H                                  0x080030e0   Section        0  i2c-bit-ops.o(i.SCL_H)
    SCL_H                                    0x080030e1   Thumb Code    70  i2c-bit-ops.o(i.SCL_H)
    i.SysTick_Handler                        0x08003126   Section        0  drv_common.o(i.SysTick_Handler)
    i.SystemClock_Config                     0x0800313c   Section        0  board.o(i.SystemClock_Config)
    i.SystemInit                             0x080031b4   Section        0  system_stm32f1xx.o(i.SystemInit)
    i.TIM_Base_SetConfig                     0x080031fc   Section        0  stm32f1xx_hal_tim.o(i.TIM_Base_SetConfig)
    i.TIM_CCxChannelCmd                      0x08003288   Section        0  stm32f1xx_hal_tim.o(i.TIM_CCxChannelCmd)
    i.TIM_ETR_SetConfig                      0x080032a2   Section        0  stm32f1xx_hal_tim.o(i.TIM_ETR_SetConfig)
    i.TIM_ITRx_SetConfig                     0x080032b6   Section        0  stm32f1xx_hal_tim.o(i.TIM_ITRx_SetConfig)
    TIM_ITRx_SetConfig                       0x080032b7   Thumb Code    16  stm32f1xx_hal_tim.o(i.TIM_ITRx_SetConfig)
    i.TIM_OC1_SetConfig                      0x080032c8   Section        0  stm32f1xx_hal_tim.o(i.TIM_OC1_SetConfig)
    TIM_OC1_SetConfig                        0x080032c9   Thumb Code    88  stm32f1xx_hal_tim.o(i.TIM_OC1_SetConfig)
    i.TIM_OC2_SetConfig                      0x08003328   Section        0  stm32f1xx_hal_tim.o(i.TIM_OC2_SetConfig)
    i.TIM_OC3_SetConfig                      0x08003394   Section        0  stm32f1xx_hal_tim.o(i.TIM_OC3_SetConfig)
    TIM_OC3_SetConfig                        0x08003395   Thumb Code    96  stm32f1xx_hal_tim.o(i.TIM_OC3_SetConfig)
    i.TIM_OC4_SetConfig                      0x080033fc   Section        0  stm32f1xx_hal_tim.o(i.TIM_OC4_SetConfig)
    TIM_OC4_SetConfig                        0x080033fd   Thumb Code    70  stm32f1xx_hal_tim.o(i.TIM_OC4_SetConfig)
    i.TIM_TI1_ConfigInputStage               0x0800344c   Section        0  stm32f1xx_hal_tim.o(i.TIM_TI1_ConfigInputStage)
    TIM_TI1_ConfigInputStage                 0x0800344d   Thumb Code    34  stm32f1xx_hal_tim.o(i.TIM_TI1_ConfigInputStage)
    i.TIM_TI2_ConfigInputStage               0x0800346e   Section        0  stm32f1xx_hal_tim.o(i.TIM_TI2_ConfigInputStage)
    TIM_TI2_ConfigInputStage                 0x0800346f   Thumb Code    36  stm32f1xx_hal_tim.o(i.TIM_TI2_ConfigInputStage)
    i.UART_DMAAbortOnError                   0x08003492   Section        0  stm32f1xx_hal_uart.o(i.UART_DMAAbortOnError)
    UART_DMAAbortOnError                     0x08003493   Thumb Code    16  stm32f1xx_hal_uart.o(i.UART_DMAAbortOnError)
    i.UART_DMAError                          0x080034a2   Section        0  stm32f1xx_hal_uart.o(i.UART_DMAError)
    UART_DMAError                            0x080034a3   Thumb Code    74  stm32f1xx_hal_uart.o(i.UART_DMAError)
    i.UART_DMAReceiveCplt                    0x080034ec   Section        0  stm32f1xx_hal_uart.o(i.UART_DMAReceiveCplt)
    UART_DMAReceiveCplt                      0x080034ed   Thumb Code    60  stm32f1xx_hal_uart.o(i.UART_DMAReceiveCplt)
    i.UART_DMARxHalfCplt                     0x08003528   Section        0  stm32f1xx_hal_uart.o(i.UART_DMARxHalfCplt)
    UART_DMARxHalfCplt                       0x08003529   Thumb Code    10  stm32f1xx_hal_uart.o(i.UART_DMARxHalfCplt)
    i.UART_DMATransmitCplt                   0x08003532   Section        0  stm32f1xx_hal_uart.o(i.UART_DMATransmitCplt)
    UART_DMATransmitCplt                     0x08003533   Thumb Code    46  stm32f1xx_hal_uart.o(i.UART_DMATransmitCplt)
    i.UART_DMATxHalfCplt                     0x08003560   Section        0  stm32f1xx_hal_uart.o(i.UART_DMATxHalfCplt)
    UART_DMATxHalfCplt                       0x08003561   Thumb Code    10  stm32f1xx_hal_uart.o(i.UART_DMATxHalfCplt)
    i.UART_EndRxTransfer                     0x0800356a   Section        0  stm32f1xx_hal_uart.o(i.UART_EndRxTransfer)
    UART_EndRxTransfer                       0x0800356b   Thumb Code    28  stm32f1xx_hal_uart.o(i.UART_EndRxTransfer)
    i.UART_EndTxTransfer                     0x08003586   Section        0  stm32f1xx_hal_uart.o(i.UART_EndTxTransfer)
    UART_EndTxTransfer                       0x08003587   Thumb Code    18  stm32f1xx_hal_uart.o(i.UART_EndTxTransfer)
    i.UART_Receive_IT                        0x08003598   Section        0  stm32f1xx_hal_uart.o(i.UART_Receive_IT)
    UART_Receive_IT                          0x08003599   Thumb Code   150  stm32f1xx_hal_uart.o(i.UART_Receive_IT)
    i.UART_SetConfig                         0x08003630   Section        0  stm32f1xx_hal_uart.o(i.UART_SetConfig)
    UART_SetConfig                           0x08003631   Thumb Code   178  stm32f1xx_hal_uart.o(i.UART_SetConfig)
    i.UART_Transmit_IT                       0x080036e8   Section        0  stm32f1xx_hal_uart.o(i.UART_Transmit_IT)
    UART_Transmit_IT                         0x080036e9   Thumb Code    98  stm32f1xx_hal_uart.o(i.UART_Transmit_IT)
    i.USART1_IRQHandler                      0x0800374c   Section        0  drv_usart.o(i.USART1_IRQHandler)
    i.USART2_IRQHandler                      0x08003764   Section        0  drv_usart.o(i.USART2_IRQHandler)
    i.WriteByte                              0x0800377c   Section        0  module_oled.o(i.WriteByte)
    WriteByte                                0x0800377d   Thumb Code    66  module_oled.o(i.WriteByte)
    i.WriteCmd                               0x080037be   Section        0  module_oled.o(i.WriteCmd)
    WriteCmd                                 0x080037bf   Thumb Code    62  module_oled.o(i.WriteCmd)
    i.WriteDat                               0x080037fc   Section        0  module_oled.o(i.WriteDat)
    WriteDat                                 0x080037fd   Thumb Code    62  module_oled.o(i.WriteDat)
    i.XSpiderAction_entry                    0x0800383c   Section        0  app_xspider.o(i.XSpiderAction_entry)
    XSpiderAction_entry                      0x0800383d   Thumb Code   628  app_xspider.o(i.XSpiderAction_entry)
    i.XSpiderControl_entry                   0x08003abc   Section        0  app_xspider.o(i.XSpiderControl_entry)
    XSpiderControl_entry                     0x08003abd   Thumb Code   266  app_xspider.o(i.XSpiderControl_entry)
    i.XSpiderLed_entry                       0x08003bc6   Section        0  app_xspider.o(i.XSpiderLed_entry)
    XSpiderLed_entry                         0x08003bc7   Thumb Code    16  app_xspider.o(i.XSpiderLed_entry)
    i.XSpiderOrderUpdate_entry               0x08003bd6   Section        0  app_xspider.o(i.XSpiderOrderUpdate_entry)
    XSpiderOrderUpdate_entry                 0x08003bd7   Thumb Code    24  app_xspider.o(i.XSpiderOrderUpdate_entry)
    i.XSpider_eye                            0x08003bf0   Section        0  main.o(i.XSpider_eye)
    i.XSpider_joint                          0x08003c84   Section        0  main.o(i.XSpider_joint)
    i._Error_Handler                         0x08003e88   Section        0  drv_common.o(i._Error_Handler)
    i.__NVIC_SetPriority                     0x08003e8a   Section        0  stm32f1xx_hal_cortex.o(i.__NVIC_SetPriority)
    __NVIC_SetPriority                       0x08003e8b   Thumb Code    32  stm32f1xx_hal_cortex.o(i.__NVIC_SetPriority)
    i._get_highest_priority_thread           0x08003eac   Section        0  scheduler.o(i._get_highest_priority_thread)
    _get_highest_priority_thread             0x08003ead   Thumb Code    28  scheduler.o(i._get_highest_priority_thread)
    i._has_defunct_thread                    0x08003ed0   Section        0  idle.o(i._has_defunct_thread)
    _has_defunct_thread                      0x08003ed1   Thumb Code    16  idle.o(i._has_defunct_thread)
    i._msh_exec_cmd                          0x08003ee4   Section        0  msh.o(i._msh_exec_cmd)
    _msh_exec_cmd                            0x08003ee5   Thumb Code   172  msh.o(i._msh_exec_cmd)
    i._pin_control                           0x08003fb0   Section        0  pin.o(i._pin_control)
    _pin_control                             0x08003fb1   Thumb Code    42  pin.o(i._pin_control)
    i._pin_read                              0x08003ff0   Section        0  pin.o(i._pin_read)
    _pin_read                                0x08003ff1   Thumb Code    46  pin.o(i._pin_read)
    i._pin_write                             0x08004034   Section        0  pin.o(i._pin_write)
    _pin_write                               0x08004035   Thumb Code    46  pin.o(i._pin_write)
    i._pwm_control                           0x08004078   Section        0  rt_drv_pwm.o(i._pwm_control)
    _pwm_control                             0x08004079   Thumb Code    18  rt_drv_pwm.o(i._pwm_control)
    i._pwm_read                              0x0800408a   Section        0  rt_drv_pwm.o(i._pwm_read)
    _pwm_read                                0x0800408b   Thumb Code    40  rt_drv_pwm.o(i._pwm_read)
    i._pwm_write                             0x080040b2   Section        0  rt_drv_pwm.o(i._pwm_write)
    _pwm_write                               0x080040b3   Thumb Code    58  rt_drv_pwm.o(i._pwm_write)
    i._rt_scheduler_stack_check              0x080040ec   Section        0  scheduler.o(i._rt_scheduler_stack_check)
    _rt_scheduler_stack_check                0x080040ed   Thumb Code    78  scheduler.o(i._rt_scheduler_stack_check)
    i._rt_thread_init                        0x080041a8   Section        0  thread.o(i._rt_thread_init)
    _rt_thread_init                          0x080041a9   Thumb Code   134  thread.o(i._rt_thread_init)
    i._rt_timer_init                         0x08004264   Section        0  timer.o(i._rt_timer_init)
    _rt_timer_init                           0x08004265   Thumb Code    28  timer.o(i._rt_timer_init)
    i._rt_timer_remove                       0x08004280   Section        0  timer.o(i._rt_timer_remove)
    _rt_timer_remove                         0x08004281   Thumb Code    18  timer.o(i._rt_timer_remove)
    i._serial_check_buffer_size              0x08004294   Section        0  serial.o(i._serial_check_buffer_size)
    _serial_check_buffer_size                0x08004295   Thumb Code    34  serial.o(i._serial_check_buffer_size)
    i._serial_dma_rx                         0x080042d8   Section        0  serial.o(i._serial_dma_rx)
    _serial_dma_rx                           0x080042d9   Thumb Code   244  serial.o(i._serial_dma_rx)
    i._serial_int_rx                         0x08004450   Section        0  serial.o(i._serial_int_rx)
    _serial_int_rx                           0x08004451   Thumb Code   136  serial.o(i._serial_int_rx)
    i.bit2bitno                              0x080044e4   Section        0  drv_gpio.o(i.bit2bitno)
    bit2bitno                                0x080044e5   Thumb Code    28  drv_gpio.o(i.bit2bitno)
    i.bus_fault_track                        0x08004500   Section        0  cpuport.o(i.bus_fault_track)
    bus_fault_track                          0x08004501   Thumb Code   110  cpuport.o(i.bus_fault_track)
    i.clear                                  0x080045e8   Section        0  cmd.o(i.clear)
    clear                                    0x080045e9   Thumb Code    12  cmd.o(i.clear)
    i.cmd_free                               0x080045fc   Section        0  msh.o(i.cmd_free)
    i.cmd_ps                                 0x08004606   Section        0  msh.o(i.cmd_ps)
    i.dma_isr                                0x08004610   Section        0  drv_usart.o(i.dma_isr)
    dma_isr                                  0x08004611   Thumb Code   108  drv_usart.o(i.dma_isr)
    i.drv_pwm_control                        0x08004694   Section        0  drv_pwm.o(i.drv_pwm_control)
    drv_pwm_control                          0x08004695   Thumb Code    44  drv_pwm.o(i.drv_pwm_control)
    i.drv_pwm_enable                         0x080046c0   Section        0  drv_pwm.o(i.drv_pwm_enable)
    drv_pwm_enable                           0x080046c1   Thumb Code    24  drv_pwm.o(i.drv_pwm_enable)
    i.drv_pwm_get                            0x080046d8   Section        0  drv_pwm.o(i.drv_pwm_get)
    drv_pwm_get                              0x080046d9   Thumb Code   164  drv_pwm.o(i.drv_pwm_get)
    i.drv_pwm_set                            0x08004780   Section        0  drv_pwm.o(i.drv_pwm_set)
    drv_pwm_set                              0x08004781   Thumb Code   216  drv_pwm.o(i.drv_pwm_set)
    i.finsh_get_prompt                       0x0800485c   Section        0  shell.o(i.finsh_get_prompt)
    i.finsh_rx_ind                           0x080048bc   Section        0  shell.o(i.finsh_rx_ind)
    finsh_rx_ind                             0x080048bd   Thumb Code    28  shell.o(i.finsh_rx_ind)
    i.finsh_set_device                       0x080048f4   Section        0  shell.o(i.finsh_set_device)
    i.finsh_set_prompt_mode                  0x080049b8   Section        0  shell.o(i.finsh_set_prompt_mode)
    i.finsh_system_function_init             0x080049f8   Section        0  shell.o(i.finsh_system_function_init)
    i.finsh_system_init                      0x08004a04   Section        0  shell.o(i.finsh_system_init)
    i.finsh_thread_entry                     0x08004a98   Section        0  shell.o(i.finsh_thread_entry)
    i.get_pin                                0x08004e0c   Section        0  drv_gpio.o(i.get_pin)
    get_pin                                  0x08004e0d   Thumb Code    24  drv_gpio.o(i.get_pin)
    i.hard_fault_track                       0x08004e28   Section        0  cpuport.o(i.hard_fault_track)
    hard_fault_track                         0x08004e29   Thumb Code    76  cpuport.o(i.hard_fault_track)
    i.hello                                  0x08004ea0   Section        0  cmd.o(i.hello)
    i.i2c_bit_send_address                   0x08004ec0   Section        0  i2c-bit-ops.o(i.i2c_bit_send_address)
    i2c_bit_send_address                     0x08004ec1   Thumb Code   186  i2c-bit-ops.o(i.i2c_bit_send_address)
    i.i2c_bit_xfer                           0x08004ff8   Section        0  i2c-bit-ops.o(i.i2c_bit_xfer)
    i2c_bit_xfer                             0x08004ff9   Thumb Code   142  i2c-bit-ops.o(i.i2c_bit_xfer)
    i.i2c_bus_device_control                 0x08005088   Section        0  i2c_dev.o(i.i2c_bus_device_control)
    i2c_bus_device_control                   0x08005089   Thumb Code    88  i2c_dev.o(i.i2c_bus_device_control)
    i.i2c_bus_device_read                    0x080050f4   Section        0  i2c_dev.o(i.i2c_bus_device_read)
    i2c_bus_device_read                      0x080050f5   Thumb Code    50  i2c_dev.o(i.i2c_bus_device_read)
    i.i2c_bus_device_write                   0x08005150   Section        0  i2c_dev.o(i.i2c_bus_device_write)
    i2c_bus_device_write                     0x08005151   Thumb Code    50  i2c_dev.o(i.i2c_bus_device_write)
    i.i2c_delay                              0x080051ac   Section        0  i2c-bit-ops.o(i.i2c_delay)
    i2c_delay                                0x080051ad   Thumb Code    12  i2c-bit-ops.o(i.i2c_delay)
    i.i2c_recv_bytes                         0x080051b8   Section        0  i2c-bit-ops.o(i.i2c_recv_bytes)
    i2c_recv_bytes                           0x080051b9   Thumb Code   186  i2c-bit-ops.o(i.i2c_recv_bytes)
    i.i2c_restart                            0x080052a0   Section        0  i2c-bit-ops.o(i.i2c_restart)
    i2c_restart                              0x080052a1   Thumb Code    50  i2c-bit-ops.o(i.i2c_restart)
    i.i2c_send_address                       0x080052d2   Section        0  i2c-bit-ops.o(i.i2c_send_address)
    i2c_send_address                         0x080052d3   Thumb Code    66  i2c-bit-ops.o(i.i2c_send_address)
    i.i2c_send_bytes                         0x08005314   Section        0  i2c-bit-ops.o(i.i2c_send_bytes)
    i2c_send_bytes                           0x08005315   Thumb Code    86  i2c-bit-ops.o(i.i2c_send_bytes)
    i.i2c_start                              0x0800538c   Section        0  i2c-bit-ops.o(i.i2c_start)
    i2c_start                                0x0800538d   Thumb Code    30  i2c-bit-ops.o(i.i2c_start)
    i.i2c_stop                               0x080053aa   Section        0  i2c-bit-ops.o(i.i2c_stop)
    i2c_stop                                 0x080053ab   Thumb Code    48  i2c-bit-ops.o(i.i2c_stop)
    i.i2c_writeb                             0x080053dc   Section        0  i2c-bit-ops.o(i.i2c_writeb)
    i2c_writeb                               0x080053dd   Thumb Code   146  i2c-bit-ops.o(i.i2c_writeb)
    i.list                                   0x0800549c   Section        0  cmd.o(i.list)
    i.list_device                            0x08005500   Section        0  cmd.o(i.list_device)
    i.list_event                             0x08005604   Section        0  cmd.o(i.list_event)
    i.list_find_init                         0x08005734   Section        0  cmd.o(i.list_find_init)
    list_find_init                           0x08005735   Thumb Code    36  cmd.o(i.list_find_init)
    i.list_get_next                          0x08005758   Section        0  cmd.o(i.list_get_next)
    list_get_next                            0x08005759   Thumb Code   102  cmd.o(i.list_get_next)
    i.list_mailbox                           0x080057c0   Section        0  cmd.o(i.list_mailbox)
    i.list_mem                               0x08005904   Section        0  mem.o(i.list_mem)
    i.list_mempool                           0x08005970   Section        0  cmd.o(i.list_mempool)
    i.list_msgqueue                          0x08005ac4   Section        0  cmd.o(i.list_msgqueue)
    i.list_mutex                             0x08005bec   Section        0  cmd.o(i.list_mutex)
    i.list_sem                               0x08005ce4   Section        0  cmd.o(i.list_sem)
    i.list_thread                            0x08005e00   Section        0  cmd.o(i.list_thread)
    i.list_timer                             0x08005fb8   Section        0  cmd.o(i.list_timer)
    i.main                                   0x080060f8   Section        0  main.o(i.main)
    i.main_thread_entry                      0x08006110   Section        0  components.o(i.main_thread_entry)
    i.mem_manage_fault_track                 0x08006120   Section        0  cpuport.o(i.mem_manage_fault_track)
    mem_manage_fault_track                   0x08006121   Thumb Code    98  cpuport.o(i.mem_manage_fault_track)
    i.msh_auto_complete                      0x080061f8   Section        0  msh.o(i.msh_auto_complete)
    i.msh_exec                               0x080062a4   Section        0  msh.o(i.msh_exec)
    i.msh_help                               0x08006308   Section        0  msh.o(i.msh_help)
    i.msh_is_used                            0x08006380   Section        0  msh.o(i.msh_is_used)
    i.msh_split                              0x08006384   Section        0  msh.o(i.msh_split)
    msh_split                                0x08006385   Thumb Code   172  msh.o(i.msh_split)
    i.object_split                           0x08006454   Section        0  cmd.o(i.object_split)
    object_split                             0x08006455   Thumb Code    18  cmd.o(i.object_split)
    i.plug_holes                             0x0800646c   Section        0  mem.o(i.plug_holes)
    plug_holes                               0x0800646d   Thumb Code   130  mem.o(i.plug_holes)
    i.print_number                           0x08006554   Section        0  kservice.o(i.print_number)
    print_number                             0x08006555   Thumb Code   300  kservice.o(i.print_number)
    i.pwm_disable                            0x08006684   Section        0  rt_drv_pwm.o(i.pwm_disable)
    pwm_disable                              0x08006685   Thumb Code    54  rt_drv_pwm.o(i.pwm_disable)
    i.pwm_enable                             0x080066d8   Section        0  rt_drv_pwm.o(i.pwm_enable)
    pwm_enable                               0x080066d9   Thumb Code    54  rt_drv_pwm.o(i.pwm_enable)
    i.pwm_get_channel                        0x0800672c   Section        0  drv_pwm.o(i.pwm_get_channel)
    pwm_get_channel                          0x0800672d   Thumb Code    38  drv_pwm.o(i.pwm_get_channel)
    i.pwm_set                                0x08006758   Section        0  rt_drv_pwm.o(i.pwm_set)
    pwm_set                                  0x08006759   Thumb Code    78  rt_drv_pwm.o(i.pwm_set)
    i.reboot                                 0x080067c8   Section        0  drv_common.o(i.reboot)
    reboot                                   0x080067c9   Thumb Code     4  drv_common.o(i.reboot)
    i.rt_application_init                    0x080067cc   Section        0  components.o(i.rt_application_init)
    i.rt_assert_handler                      0x0800681c   Section        0  kservice.o(i.rt_assert_handler)
    i.rt_calloc                              0x08006888   Section        0  mem.o(i.rt_calloc)
    i.rt_completion_done                     0x080068a4   Section        0  completion.o(i.rt_completion_done)
    i.rt_completion_init                     0x08006908   Section        0  completion.o(i.rt_completion_init)
    i.rt_completion_wait                     0x08006948   Section        0  completion.o(i.rt_completion_wait)
    i.rt_components_board_init               0x08006a80   Section        0  components.o(i.rt_components_board_init)
    i.rt_components_init                     0x08006a9c   Section        0  components.o(i.rt_components_init)
    i.rt_console_get_device                  0x08006ab8   Section        0  kservice.o(i.rt_console_get_device)
    i.rt_console_set_device                  0x08006ac4   Section        0  kservice.o(i.rt_console_set_device)
    i.rt_data_queue_deinit                   0x08006aec   Section        0  dataqueue.o(i.rt_data_queue_deinit)
    i.rt_data_queue_init                     0x08006b70   Section        0  dataqueue.o(i.rt_data_queue_init)
    i.rt_data_queue_peak                     0x08006bd8   Section        0  dataqueue.o(i.rt_data_queue_peak)
    i.rt_data_queue_pop                      0x08006c84   Section        0  dataqueue.o(i.rt_data_queue_pop)
    i.rt_data_queue_push                     0x08006e70   Section        0  dataqueue.o(i.rt_data_queue_push)
    i.rt_data_queue_reset                    0x08006ffc   Section        0  dataqueue.o(i.rt_data_queue_reset)
    i.rt_device_close                        0x08007098   Section        0  device.o(i.rt_device_close)
    i.rt_device_control                      0x08007144   Section        0  device.o(i.rt_device_control)
    i.rt_device_find                         0x080071d8   Section        0  device.o(i.rt_device_find)
    i.rt_device_open                         0x08007254   Section        0  device.o(i.rt_device_open)
    i.rt_device_pin_register                 0x08007394   Section        0  pin.o(i.rt_device_pin_register)
    i.rt_device_pwm_register                 0x080073d8   Section        0  rt_drv_pwm.o(i.rt_device_pwm_register)
    i.rt_device_read                         0x08007420   Section        0  device.o(i.rt_device_read)
    i.rt_device_register                     0x080074d0   Section        0  device.o(i.rt_device_register)
    i.rt_device_set_rx_indicate              0x08007504   Section        0  device.o(i.rt_device_set_rx_indicate)
    i.rt_device_write                        0x08007584   Section        0  device.o(i.rt_device_write)
    i.rt_dma_calc_recved_len                 0x08007634   Section        0  serial.o(i.rt_dma_calc_recved_len)
    rt_dma_calc_recved_len                   0x08007635   Thumb Code    60  serial.o(i.rt_dma_calc_recved_len)
    i.rt_dma_recv_update_get_index           0x08007688   Section        0  serial.o(i.rt_dma_recv_update_get_index)
    rt_dma_recv_update_get_index             0x08007689   Thumb Code    84  serial.o(i.rt_dma_recv_update_get_index)
    i.rt_dma_recv_update_put_index           0x0800770c   Section        0  serial.o(i.rt_dma_recv_update_put_index)
    rt_dma_recv_update_put_index             0x0800770d   Thumb Code   112  serial.o(i.rt_dma_recv_update_put_index)
    i.rt_enter_critical                      0x08007784   Section        0  scheduler.o(i.rt_enter_critical)
    i.rt_exit_critical                       0x080077a0   Section        0  scheduler.o(i.rt_exit_critical)
    i.rt_free                                0x080077d8   Section        0  mem.o(i.rt_free)
    i.rt_hw_board_init                       0x080079a0   Section        0  drv_common.o(i.rt_hw_board_init)
    i.rt_hw_console_output                   0x080079e8   Section        0  kservice.o(i.rt_hw_console_output)
    i.rt_hw_cpu_reset                        0x080079ec   Section        0  cpuport.o(i.rt_hw_cpu_reset)
    i.rt_hw_hard_fault_exception             0x080079fc   Section        0  cpuport.o(i.rt_hw_hard_fault_exception)
    i.rt_hw_i2c_init                         0x08007bf8   Section        0  drv_soft_i2c.o(i.rt_hw_i2c_init)
    i.rt_hw_pin_init                         0x08007cc8   Section        0  drv_gpio.o(i.rt_hw_pin_init)
    i.rt_hw_serial_isr                       0x08007d54   Section        0  serial.o(i.rt_hw_serial_isr)
    i.rt_hw_serial_register                  0x08007f18   Section        0  serial.o(i.rt_hw_serial_register)
    i.rt_hw_stack_init                       0x08007f94   Section        0  cpuport.o(i.rt_hw_stack_init)
    i.rt_hw_systick_init                     0x08007fcc   Section        0  drv_common.o(i.rt_hw_systick_init)
    i.rt_hw_usart_init                       0x08007ff4   Section        0  drv_usart.o(i.rt_hw_usart_init)
    i.rt_i2c_bit_add_bus                     0x08008098   Section        0  i2c-bit-ops.o(i.rt_i2c_bit_add_bus)
    i.rt_i2c_bus_device_device_init          0x080080a4   Section        0  i2c_dev.o(i.rt_i2c_bus_device_device_init)
    i.rt_i2c_bus_device_register             0x08008100   Section        0  i2c_core.o(i.rt_i2c_bus_device_register)
    i.rt_i2c_core_init                       0x0800817c   Section        0  i2c_core.o(i.rt_i2c_core_init)
    i.rt_i2c_master_recv                     0x08008180   Section        0  i2c_core.o(i.rt_i2c_master_recv)
    i.rt_i2c_master_send                     0x080081d8   Section        0  i2c_core.o(i.rt_i2c_master_send)
    i.rt_i2c_transfer                        0x080081fc   Section        0  i2c_core.o(i.rt_i2c_transfer)
    i.rt_interrupt_enter                     0x08008284   Section        0  irq.o(i.rt_interrupt_enter)
    i.rt_interrupt_get_nest                  0x080082a8   Section        0  irq.o(i.rt_interrupt_get_nest)
    i.rt_interrupt_leave                     0x080082c0   Section        0  irq.o(i.rt_interrupt_leave)
    i.rt_ipc_list_resume                     0x080082e4   Section        0  ipc.o(i.rt_ipc_list_resume)
    rt_ipc_list_resume                       0x080082e5   Thumb Code    14  ipc.o(i.rt_ipc_list_resume)
    i.rt_ipc_list_resume_all                 0x080082f4   Section        0  ipc.o(i.rt_ipc_list_resume_all)
    rt_ipc_list_resume_all                   0x080082f5   Thumb Code    44  ipc.o(i.rt_ipc_list_resume_all)
    i.rt_ipc_list_suspend                    0x08008320   Section        0  ipc.o(i.rt_ipc_list_suspend)
    rt_ipc_list_suspend                      0x08008321   Thumb Code    82  ipc.o(i.rt_ipc_list_suspend)
    i.rt_kprintf                             0x08008374   Section        0  kservice.o(i.rt_kprintf)
    i.rt_list_insert_after                   0x080083bc   Section        0  object.o(i.rt_list_insert_after)
    rt_list_insert_after                     0x080083bd   Thumb Code    14  object.o(i.rt_list_insert_after)
    i.rt_list_insert_after                   0x080083ca   Section        0  thread.o(i.rt_list_insert_after)
    rt_list_insert_after                     0x080083cb   Thumb Code    14  thread.o(i.rt_list_insert_after)
    i.rt_list_insert_after                   0x080083d8   Section        0  timer.o(i.rt_list_insert_after)
    rt_list_insert_after                     0x080083d9   Thumb Code    14  timer.o(i.rt_list_insert_after)
    i.rt_list_insert_before                  0x080083e6   Section        0  dataqueue.o(i.rt_list_insert_before)
    rt_list_insert_before                    0x080083e7   Thumb Code    14  dataqueue.o(i.rt_list_insert_before)
    i.rt_list_insert_before                  0x080083f4   Section        0  ipc.o(i.rt_list_insert_before)
    rt_list_insert_before                    0x080083f5   Thumb Code    14  ipc.o(i.rt_list_insert_before)
    i.rt_list_len                            0x08008402   Section        0  cmd.o(i.rt_list_len)
    rt_list_len                              0x08008403   Thumb Code    18  cmd.o(i.rt_list_len)
    i.rt_list_remove                         0x08008414   Section        0  object.o(i.rt_list_remove)
    rt_list_remove                           0x08008415   Thumb Code    18  object.o(i.rt_list_remove)
    i.rt_list_remove                         0x08008426   Section        0  thread.o(i.rt_list_remove)
    rt_list_remove                           0x08008427   Thumb Code    18  thread.o(i.rt_list_remove)
    i.rt_malloc                              0x08008438   Section        0  mem.o(i.rt_malloc)
    i.rt_memcpy                              0x08008634   Section        0  kservice.o(i.rt_memcpy)
    i.rt_memmove                             0x08008680   Section        0  kservice.o(i.rt_memmove)
    i.rt_memset                              0x080086b4   Section        0  kservice.o(i.rt_memset)
    i.rt_mutex_init                          0x080086fc   Section        0  ipc.o(i.rt_mutex_init)
    i.rt_mutex_release                       0x08008750   Section        0  ipc.o(i.rt_mutex_release)
    i.rt_mutex_take                          0x080088dc   Section        0  ipc.o(i.rt_mutex_take)
    i.rt_object_allocate                     0x08008a94   Section        0  object.o(i.rt_object_allocate)
    i.rt_object_delete                       0x08008b70   Section        0  object.o(i.rt_object_delete)
    i.rt_object_detach                       0x08008c08   Section        0  object.o(i.rt_object_detach)
    i.rt_object_get_information              0x08008c5c   Section        0  object.o(i.rt_object_get_information)
    i.rt_object_get_type                     0x08008c80   Section        0  object.o(i.rt_object_get_type)
    i.rt_object_init                         0x08008cb4   Section        0  object.o(i.rt_object_init)
    i.rt_object_is_systemobject              0x08008d68   Section        0  object.o(i.rt_object_is_systemobject)
    i.rt_pin_mode                            0x08008da0   Section        0  pin.o(i.rt_pin_mode)
    i.rt_pin_read                            0x08008de8   Section        0  pin.o(i.rt_pin_read)
    i.rt_pin_write                           0x08008e2c   Section        0  pin.o(i.rt_pin_write)
    i.rt_pwm_disable                         0x08008e74   Section        0  rt_drv_pwm.o(i.rt_pwm_disable)
    i.rt_pwm_enable                          0x08008e92   Section        0  rt_drv_pwm.o(i.rt_pwm_enable)
    i.rt_pwm_set                             0x08008eb0   Section        0  rt_drv_pwm.o(i.rt_pwm_set)
    i.rt_schedule                            0x08008ed0   Section        0  scheduler.o(i.rt_schedule)
    i.rt_schedule_insert_thread              0x08008f9c   Section        0  scheduler.o(i.rt_schedule_insert_thread)
    i.rt_schedule_remove_thread              0x08009024   Section        0  scheduler.o(i.rt_schedule_remove_thread)
    i.rt_sem_control                         0x08009094   Section        0  ipc.o(i.rt_sem_control)
    i.rt_sem_init                            0x08009100   Section        0  ipc.o(i.rt_sem_init)
    i.rt_sem_release                         0x0800916c   Section        0  ipc.o(i.rt_sem_release)
    i.rt_sem_take                            0x080091ec   Section        0  ipc.o(i.rt_sem_take)
    i.rt_serial_close                        0x08009368   Section        0  serial.o(i.rt_serial_close)
    rt_serial_close                          0x08009369   Thumb Code   280  serial.o(i.rt_serial_close)
    i.rt_serial_control                      0x080094e8   Section        0  serial.o(i.rt_serial_control)
    rt_serial_control                        0x080094e9   Thumb Code   128  serial.o(i.rt_serial_control)
    i.rt_serial_init                         0x0800957c   Section        0  serial.o(i.rt_serial_init)
    rt_serial_init                           0x0800957d   Thumb Code    48  serial.o(i.rt_serial_init)
    i.rt_serial_open                         0x080095c0   Section        0  serial.o(i.rt_serial_open)
    rt_serial_open                           0x080095c1   Thumb Code   496  serial.o(i.rt_serial_open)
    i.rt_serial_read                         0x08009818   Section        0  serial.o(i.rt_serial_read)
    rt_serial_read                           0x08009819   Thumb Code   114  serial.o(i.rt_serial_read)
    i.rt_serial_write                        0x080098b4   Section        0  serial.o(i.rt_serial_write)
    rt_serial_write                          0x080098b5   Thumb Code   248  serial.o(i.rt_serial_write)
    i.rt_set_errno                           0x080099d4   Section        0  kservice.o(i.rt_set_errno)
    i.rt_show_version                        0x080099f4   Section        0  kservice.o(i.rt_show_version)
    i.rt_sprintf                             0x08009aa4   Section        0  kservice.o(i.rt_sprintf)
    i.rt_strlen                              0x08009ab6   Section        0  kservice.o(i.rt_strlen)
    i.rt_strncmp                             0x08009ac6   Section        0  kservice.o(i.rt_strncmp)
    i.rt_strncpy                             0x08009ae6   Section        0  kservice.o(i.rt_strncpy)
    i.rt_system_heap_init                    0x08009b0c   Section        0  mem.o(i.rt_system_heap_init)
    i.rt_system_scheduler_init               0x08009c14   Section        0  scheduler.o(i.rt_system_scheduler_init)
    i.rt_system_scheduler_start              0x08009c44   Section        0  scheduler.o(i.rt_system_scheduler_start)
    i.rt_system_timer_init                   0x08009c6c   Section        0  timer.o(i.rt_system_timer_init)
    i.rt_system_timer_thread_init            0x08009c78   Section        0  timer.o(i.rt_system_timer_thread_init)
    i.rt_thread_control                      0x08009c7c   Section        0  thread.o(i.rt_thread_control)
    i.rt_thread_create                       0x08009d28   Section        0  thread.o(i.rt_thread_create)
    i.rt_thread_delay                        0x08009d70   Section        0  thread.o(i.rt_thread_delay)
    i.rt_thread_delete                       0x08009d74   Section        0  thread.o(i.rt_thread_delete)
    i.rt_thread_exit                         0x08009e4c   Section        0  thread.o(i.rt_thread_exit)
    i.rt_thread_idle_entry                   0x08009ea4   Section        0  idle.o(i.rt_thread_idle_entry)
    rt_thread_idle_entry                     0x08009ea5   Thumb Code    24  idle.o(i.rt_thread_idle_entry)
    i.rt_thread_idle_excute                  0x08009ec0   Section        0  idle.o(i.rt_thread_idle_excute)
    i.rt_thread_idle_init                    0x08009f8c   Section        0  idle.o(i.rt_thread_idle_init)
    i.rt_thread_init                         0x08009fd0   Section        0  thread.o(i.rt_thread_init)
    i.rt_thread_mdelay                       0x0800a050   Section        0  thread.o(i.rt_thread_mdelay)
    i.rt_thread_resume                       0x0800a060   Section        0  thread.o(i.rt_thread_resume)
    i.rt_thread_self                         0x0800a0ec   Section        0  thread.o(i.rt_thread_self)
    i.rt_thread_sleep                        0x0800a0f8   Section        0  thread.o(i.rt_thread_sleep)
    i.rt_thread_startup                      0x0800a178   Section        0  thread.o(i.rt_thread_startup)
    i.rt_thread_suspend                      0x0800a234   Section        0  thread.o(i.rt_thread_suspend)
    i.rt_thread_timeout                      0x0800a300   Section        0  thread.o(i.rt_thread_timeout)
    i.rt_thread_yield                        0x0800a3b4   Section        0  thread.o(i.rt_thread_yield)
    i.rt_tick_from_millisecond               0x0800a3be   Section        0  clock.o(i.rt_tick_from_millisecond)
    i.rt_tick_get                            0x0800a3f0   Section        0  clock.o(i.rt_tick_get)
    i.rt_tick_increase                       0x0800a3fc   Section        0  clock.o(i.rt_tick_increase)
    i.rt_timer_check                         0x0800a430   Section        0  timer.o(i.rt_timer_check)
    i.rt_timer_control                       0x0800a4ac   Section        0  timer.o(i.rt_timer_control)
    i.rt_timer_detach                        0x0800a564   Section        0  timer.o(i.rt_timer_detach)
    i.rt_timer_init                          0x0800a638   Section        0  timer.o(i.rt_timer_init)
    i.rt_timer_start                         0x0800a688   Section        0  timer.o(i.rt_timer_start)
    i.rt_timer_stop                          0x0800a7d4   Section        0  timer.o(i.rt_timer_stop)
    i.rt_vsnprintf                           0x0800a888   Section        0  kservice.o(i.rt_vsnprintf)
    i.rt_vsprintf                            0x0800ab04   Section        0  kservice.o(i.rt_vsprintf)
    i.rti_board_end                          0x0800ab10   Section        0  components.o(i.rti_board_end)
    rti_board_end                            0x0800ab11   Thumb Code     4  components.o(i.rti_board_end)
    i.rti_board_start                        0x0800ab14   Section        0  components.o(i.rti_board_start)
    rti_board_start                          0x0800ab15   Thumb Code     4  components.o(i.rti_board_start)
    i.rti_end                                0x0800ab18   Section        0  components.o(i.rti_end)
    rti_end                                  0x0800ab19   Thumb Code     4  components.o(i.rti_end)
    i.rti_start                              0x0800ab1c   Section        0  components.o(i.rti_start)
    rti_start                                0x0800ab1d   Thumb Code     4  components.o(i.rti_start)
    i.rtthread_startup                       0x0800ab20   Section        0  components.o(i.rtthread_startup)
    i.shell_handle_history                   0x0800ab4c   Section        0  shell.o(i.shell_handle_history)
    shell_handle_history                     0x0800ab4d   Thumb Code    30  shell.o(i.shell_handle_history)
    i.shell_push_history                     0x0800ab78   Section        0  shell.o(i.shell_push_history)
    shell_push_history                       0x0800ab79   Thumb Code   176  shell.o(i.shell_push_history)
    i.show_wait_queue                        0x0800ac28   Section        0  cmd.o(i.show_wait_queue)
    show_wait_queue                          0x0800ac29   Thumb Code    38  cmd.o(i.show_wait_queue)
    i.skip_atoi                              0x0800ac58   Section        0  kservice.o(i.skip_atoi)
    skip_atoi                                0x0800ac59   Thumb Code    40  kservice.o(i.skip_atoi)
    i.stm32_configure                        0x0800ac80   Section        0  drv_usart.o(i.stm32_configure)
    stm32_configure                          0x0800ac81   Thumb Code   146  drv_usart.o(i.stm32_configure)
    i.stm32_control                          0x0800ad3c   Section        0  drv_usart.o(i.stm32_control)
    stm32_control                            0x0800ad3d   Thumb Code   140  drv_usart.o(i.stm32_control)
    i.stm32_dma_config                       0x0800ade0   Section        0  drv_usart.o(i.stm32_dma_config)
    stm32_dma_config                         0x0800ade1   Thumb Code   292  drv_usart.o(i.stm32_dma_config)
    i.stm32_dma_transmit                     0x0800af24   Section        0  drv_usart.o(i.stm32_dma_transmit)
    stm32_dma_transmit                       0x0800af25   Thumb Code    54  drv_usart.o(i.stm32_dma_transmit)
    i.stm32_get_scl                          0x0800af74   Section        0  drv_soft_i2c.o(i.stm32_get_scl)
    stm32_get_scl                            0x0800af75   Thumb Code     6  drv_soft_i2c.o(i.stm32_get_scl)
    i.stm32_get_sda                          0x0800af7a   Section        0  drv_soft_i2c.o(i.stm32_get_sda)
    stm32_get_sda                            0x0800af7b   Thumb Code     6  drv_soft_i2c.o(i.stm32_get_sda)
    i.stm32_getc                             0x0800af80   Section        0  drv_usart.o(i.stm32_getc)
    stm32_getc                               0x0800af81   Thumb Code    38  drv_usart.o(i.stm32_getc)
    i.stm32_hw_pwm_init                      0x0800afc0   Section        0  drv_pwm.o(i.stm32_hw_pwm_init)
    stm32_hw_pwm_init                        0x0800afc1   Thumb Code   358  drv_pwm.o(i.stm32_hw_pwm_init)
    i.stm32_pin_attach_irq                   0x0800b22c   Section        0  drv_gpio.o(i.stm32_pin_attach_irq)
    stm32_pin_attach_irq                     0x0800b22d   Thumb Code   132  drv_gpio.o(i.stm32_pin_attach_irq)
    i.stm32_pin_dettach_irq                  0x0800b2b4   Section        0  drv_gpio.o(i.stm32_pin_dettach_irq)
    stm32_pin_dettach_irq                    0x0800b2b5   Thumb Code    78  drv_gpio.o(i.stm32_pin_dettach_irq)
    i.stm32_pin_irq_enable                   0x0800b308   Section        0  drv_gpio.o(i.stm32_pin_irq_enable)
    stm32_pin_irq_enable                     0x0800b309   Thumb Code   276  drv_gpio.o(i.stm32_pin_irq_enable)
    i.stm32_pin_mode                         0x0800b430   Section        0  drv_gpio.o(i.stm32_pin_mode)
    stm32_pin_mode                           0x0800b431   Thumb Code    80  drv_gpio.o(i.stm32_pin_mode)
    i.stm32_pin_read                         0x0800b480   Section        0  drv_gpio.o(i.stm32_pin_read)
    stm32_pin_read                           0x0800b481   Thumb Code    30  drv_gpio.o(i.stm32_pin_read)
    i.stm32_pin_write                        0x0800b49e   Section        0  drv_gpio.o(i.stm32_pin_write)
    stm32_pin_write                          0x0800b49f   Thumb Code    32  drv_gpio.o(i.stm32_pin_write)
    i.stm32_putc                             0x0800b4c0   Section        0  drv_usart.o(i.stm32_putc)
    stm32_putc                               0x0800b4c1   Thumb Code    46  drv_usart.o(i.stm32_putc)
    i.stm32_pwm_init                         0x0800b508   Section        0  drv_pwm.o(i.stm32_pwm_init)
    stm32_pwm_init                           0x0800b509   Thumb Code   134  drv_pwm.o(i.stm32_pwm_init)
    i.stm32_set_scl                          0x0800b5d4   Section        0  drv_soft_i2c.o(i.stm32_set_scl)
    stm32_set_scl                            0x0800b5d5   Thumb Code    10  drv_soft_i2c.o(i.stm32_set_scl)
    i.stm32_set_sda                          0x0800b5de   Section        0  drv_soft_i2c.o(i.stm32_set_sda)
    stm32_set_sda                            0x0800b5df   Thumb Code    10  drv_soft_i2c.o(i.stm32_set_sda)
    i.stm32_udelay                           0x0800b5e8   Section        0  drv_soft_i2c.o(i.stm32_udelay)
    stm32_udelay                             0x0800b5e9   Thumb Code    52  drv_soft_i2c.o(i.stm32_udelay)
    i.uart_isr                               0x0800b61c   Section        0  drv_usart.o(i.uart_isr)
    uart_isr                                 0x0800b61d   Thumb Code   292  drv_usart.o(i.uart_isr)
    i.usage_fault_track                      0x0800b758   Section        0  cpuport.o(i.usage_fault_track)
    usage_fault_track                        0x0800b759   Thumb Code   100  cpuport.o(i.usage_fault_track)
    i.version                                0x0800b828   Section        0  cmd.o(i.version)
    locale$$code                             0x0800b834   Section       44  lc_ctype_c.o(locale$$code)
    x$fpl$dadd                               0x0800b860   Section      336  daddsub_clz.o(x$fpl$dadd)
    _dadd1                                   0x0800b871   Thumb Code     0  daddsub_clz.o(x$fpl$dadd)
    x$fpl$ddiv                               0x0800b9b0   Section      688  ddiv.o(x$fpl$ddiv)
    ddiv_entry                               0x0800b9b7   Thumb Code     0  ddiv.o(x$fpl$ddiv)
    x$fpl$dfixu                              0x0800bc60   Section       90  dfixu.o(x$fpl$dfixu)
    x$fpl$dflt                               0x0800bcba   Section       46  dflt_clz.o(x$fpl$dflt)
    x$fpl$dfltu                              0x0800bce8   Section       38  dflt_clz.o(x$fpl$dfltu)
    x$fpl$dmul                               0x0800bd10   Section      340  dmul.o(x$fpl$dmul)
    x$fpl$dnaninf                            0x0800be64   Section      156  dnaninf.o(x$fpl$dnaninf)
    x$fpl$dretinf                            0x0800bf00   Section       12  dretinf.o(x$fpl$dretinf)
    x$fpl$dsub                               0x0800bf0c   Section      468  daddsub_clz.o(x$fpl$dsub)
    _dsub1                                   0x0800bf1d   Thumb Code     0  daddsub_clz.o(x$fpl$dsub)
    .constdata                               0x0800c0e0   Section      672  app_xspider.o(.constdata)
    x$fpl$usenofp                            0x0800c0e0   Section        0  usenofp.o(x$fpl$usenofp)
    .constdata                               0x0800c380   Section        8  module_bluetoothhc06.o(.constdata)
    .constdata                               0x0800c388   Section       19  i2c_core.o(.constdata)
    __FUNCTION__                             0x0800c388   Data          19  i2c_core.o(.constdata)
    .constdata                               0x0800c39b   Section       94  i2c_dev.o(.constdata)
    __FUNCTION__                             0x0800c39b   Data          20  i2c_dev.o(.constdata)
    __FUNCTION__                             0x0800c3af   Data          21  i2c_dev.o(.constdata)
    __FUNCTION__                             0x0800c3c4   Data          23  i2c_dev.o(.constdata)
    __FUNCTION__                             0x0800c3db   Data          30  i2c_dev.o(.constdata)
    .constdata                               0x0800c3fc   Section       12  i2c-bit-ops.o(.constdata)
    i2c_bit_bus_ops                          0x0800c3fc   Data          12  i2c-bit-ops.o(.constdata)
    .constdata                               0x0800c408   Section      125  pin.o(.constdata)
    __FUNCTION__                             0x0800c408   Data          10  pin.o(.constdata)
    __FUNCTION__                             0x0800c412   Data          11  pin.o(.constdata)
    __FUNCTION__                             0x0800c41d   Data          13  pin.o(.constdata)
    __FUNCTION__                             0x0800c42a   Data          18  pin.o(.constdata)
    __FUNCTION__                             0x0800c43c   Data          18  pin.o(.constdata)
    __FUNCTION__                             0x0800c44e   Data          18  pin.o(.constdata)
    __FUNCTION__                             0x0800c460   Data          12  pin.o(.constdata)
    __FUNCTION__                             0x0800c46c   Data          13  pin.o(.constdata)
    __FUNCTION__                             0x0800c479   Data          12  pin.o(.constdata)
    .constdata                               0x0800c485   Section      298  serial.o(.constdata)
    __FUNCTION__                             0x0800c485   Data          16  serial.o(.constdata)
    __FUNCTION__                             0x0800c495   Data          16  serial.o(.constdata)
    __FUNCTION__                             0x0800c4a5   Data          15  serial.o(.constdata)
    __FUNCTION__                             0x0800c4b4   Data          15  serial.o(.constdata)
    __FUNCTION__                             0x0800c4c3   Data          29  serial.o(.constdata)
    __FUNCTION__                             0x0800c4e0   Data          29  serial.o(.constdata)
    __FUNCTION__                             0x0800c4fd   Data          29  serial.o(.constdata)
    __FUNCTION__                             0x0800c51a   Data          15  serial.o(.constdata)
    __FUNCTION__                             0x0800c529   Data          15  serial.o(.constdata)
    __FUNCTION__                             0x0800c538   Data          15  serial.o(.constdata)
    __FUNCTION__                             0x0800c547   Data          16  serial.o(.constdata)
    __FUNCTION__                             0x0800c557   Data          15  serial.o(.constdata)
    __FUNCTION__                             0x0800c566   Data          16  serial.o(.constdata)
    __FUNCTION__                             0x0800c576   Data          18  serial.o(.constdata)
    __FUNCTION__                             0x0800c588   Data          22  serial.o(.constdata)
    __FUNCTION__                             0x0800c59e   Data          17  serial.o(.constdata)
    .constdata                               0x0800c5af   Section       57  completion.o(.constdata)
    __FUNCTION__                             0x0800c5af   Data          19  completion.o(.constdata)
    __FUNCTION__                             0x0800c5c2   Data          19  completion.o(.constdata)
    __FUNCTION__                             0x0800c5d5   Data          19  completion.o(.constdata)
    .constdata                               0x0800c5e8   Section      116  dataqueue.o(.constdata)
    __FUNCTION__                             0x0800c5e8   Data          19  dataqueue.o(.constdata)
    __FUNCTION__                             0x0800c5fb   Data          19  dataqueue.o(.constdata)
    __FUNCTION__                             0x0800c60e   Data          18  dataqueue.o(.constdata)
    __FUNCTION__                             0x0800c620   Data          19  dataqueue.o(.constdata)
    __FUNCTION__                             0x0800c633   Data          20  dataqueue.o(.constdata)
    __FUNCTION__                             0x0800c647   Data          21  dataqueue.o(.constdata)
    .constdata                               0x0800c65c   Section     1432  drv_gpio.o(.constdata)
    pins                                     0x0800c65c   Data        1344  drv_gpio.o(.constdata)
    pin_irq_map                              0x0800cb9c   Data          64  drv_gpio.o(.constdata)
    _stm32_pin_ops                           0x0800cbdc   Data          24  drv_gpio.o(.constdata)
    .constdata                               0x0800cbf4   Section      249  drv_usart.o(.constdata)
    __FUNCTION__                             0x0800cbf4   Data           8  drv_usart.o(.constdata)
    stm32_uart_ops                           0x0800cc04   Data          20  drv_usart.o(.constdata)
    __FUNCTION__                             0x0800cc18   Data          16  drv_usart.o(.constdata)
    __FUNCTION__                             0x0800cc28   Data          14  drv_usart.o(.constdata)
    __FUNCTION__                             0x0800cc36   Data          11  drv_usart.o(.constdata)
    __FUNCTION__                             0x0800cc41   Data          11  drv_usart.o(.constdata)
    __FUNCTION__                             0x0800cc4c   Data          19  drv_usart.o(.constdata)
    __FUNCTION__                             0x0800cc5f   Data           9  drv_usart.o(.constdata)
    __FUNCTION__                             0x0800cc68   Data          17  drv_usart.o(.constdata)
    __FUNCTION__                             0x0800cc79   Data          23  drv_usart.o(.constdata)
    __FUNCTION__                             0x0800cc90   Data          24  drv_usart.o(.constdata)
    __FUNCTION__                             0x0800cca8   Data          28  drv_usart.o(.constdata)
    __FUNCTION__                             0x0800ccc4   Data          24  drv_usart.o(.constdata)
    __FUNCTION__                             0x0800ccdc   Data          17  drv_usart.o(.constdata)
    .constdata                               0x0800cced   Section       18  drv_pwm.o(.constdata)
    __FUNCTION__                             0x0800cced   Data          18  drv_pwm.o(.constdata)
    .constdata                               0x0800cd00   Section       55  drv_soft_i2c.o(.constdata)
    soft_i2c_config                          0x0800cd00   Data           8  drv_soft_i2c.o(.constdata)
    stm32_bit_ops_default                    0x0800cd08   Data          32  drv_soft_i2c.o(.constdata)
    __FUNCTION__                             0x0800cd28   Data          15  drv_soft_i2c.o(.constdata)
    .constdata                               0x0800cd37   Section      135  shell.o(.constdata)
    __FUNCTION__                             0x0800cd37   Data          22  shell.o(.constdata)
    __FUNCTION__                             0x0800cd4d   Data          22  shell.o(.constdata)
    __FUNCTION__                             0x0800cd63   Data          14  shell.o(.constdata)
    __FUNCTION__                             0x0800cd71   Data          13  shell.o(.constdata)
    __FUNCTION__                             0x0800cd7e   Data          17  shell.o(.constdata)
    __FUNCTION__                             0x0800cd8f   Data          17  shell.o(.constdata)
    __FUNCTION__                             0x0800cda0   Data          15  shell.o(.constdata)
    __FUNCTION__                             0x0800cdaf   Data          15  shell.o(.constdata)
    .constdata                               0x0800cdc0   Section       88  cmd.o(.constdata)
    device_type_str                          0x0800cdc0   Data          88  cmd.o(.constdata)
    .constdata                               0x0800ce18   Section       14  msh.o(.constdata)
    __FUNCTION__                             0x0800ce18   Data          14  msh.o(.constdata)
    .constdata                               0x0800ce26   Section       20  components.o(.constdata)
    __FUNCTION__                             0x0800ce26   Data          20  components.o(.constdata)
    .constdata                               0x0800ce3a   Section      201  device.o(.constdata)
    __FUNCTION__                             0x0800ce3a   Data          21  device.o(.constdata)
    __FUNCTION__                             0x0800ce4f   Data          15  device.o(.constdata)
    __FUNCTION__                             0x0800ce5e   Data          18  device.o(.constdata)
    __FUNCTION__                             0x0800ce70   Data          15  device.o(.constdata)
    __FUNCTION__                             0x0800ce7f   Data          15  device.o(.constdata)
    __FUNCTION__                             0x0800ce8e   Data          16  device.o(.constdata)
    __FUNCTION__                             0x0800ce9e   Data          15  device.o(.constdata)
    __FUNCTION__                             0x0800cead   Data          16  device.o(.constdata)
    __FUNCTION__                             0x0800cebd   Data          18  device.o(.constdata)
    __FUNCTION__                             0x0800cecf   Data          26  device.o(.constdata)
    __FUNCTION__                             0x0800cee9   Data          26  device.o(.constdata)
    .constdata                               0x0800cf03   Section       22  idle.o(.constdata)
    __FUNCTION__                             0x0800cf03   Data          22  idle.o(.constdata)
    .constdata                               0x0800cf19   Section      508  ipc.o(.constdata)
    __FUNCTION__                             0x0800cf19   Data          12  ipc.o(.constdata)
    __FUNCTION__                             0x0800cf25   Data          14  ipc.o(.constdata)
    __FUNCTION__                             0x0800cf33   Data          14  ipc.o(.constdata)
    __FUNCTION__                             0x0800cf41   Data          14  ipc.o(.constdata)
    __FUNCTION__                             0x0800cf4f   Data          12  ipc.o(.constdata)
    __FUNCTION__                             0x0800cf5b   Data          15  ipc.o(.constdata)
    __FUNCTION__                             0x0800cf6a   Data          15  ipc.o(.constdata)
    __FUNCTION__                             0x0800cf79   Data          14  ipc.o(.constdata)
    __FUNCTION__                             0x0800cf87   Data          16  ipc.o(.constdata)
    __FUNCTION__                             0x0800cf97   Data          16  ipc.o(.constdata)
    __FUNCTION__                             0x0800cfa7   Data          16  ipc.o(.constdata)
    __FUNCTION__                             0x0800cfb7   Data          14  ipc.o(.constdata)
    __FUNCTION__                             0x0800cfc5   Data          17  ipc.o(.constdata)
    __FUNCTION__                             0x0800cfd6   Data          17  ipc.o(.constdata)
    __FUNCTION__                             0x0800cfe7   Data          14  ipc.o(.constdata)
    __FUNCTION__                             0x0800cff5   Data          16  ipc.o(.constdata)
    __FUNCTION__                             0x0800d005   Data          16  ipc.o(.constdata)
    __FUNCTION__                             0x0800d015   Data          16  ipc.o(.constdata)
    __FUNCTION__                             0x0800d025   Data          14  ipc.o(.constdata)
    __FUNCTION__                             0x0800d033   Data          14  ipc.o(.constdata)
    __FUNCTION__                             0x0800d041   Data          17  ipc.o(.constdata)
    __FUNCTION__                             0x0800d052   Data          11  ipc.o(.constdata)
    __FUNCTION__                             0x0800d05d   Data          13  ipc.o(.constdata)
    __FUNCTION__                             0x0800d06a   Data          13  ipc.o(.constdata)
    __FUNCTION__                             0x0800d077   Data          13  ipc.o(.constdata)
    __FUNCTION__                             0x0800d084   Data          16  ipc.o(.constdata)
    __FUNCTION__                             0x0800d094   Data          11  ipc.o(.constdata)
    __FUNCTION__                             0x0800d09f   Data          14  ipc.o(.constdata)
    __FUNCTION__                             0x0800d0ad   Data          11  ipc.o(.constdata)
    __FUNCTION__                             0x0800d0b8   Data          13  ipc.o(.constdata)
    __FUNCTION__                             0x0800d0c5   Data          13  ipc.o(.constdata)
    __FUNCTION__                             0x0800d0d2   Data          13  ipc.o(.constdata)
    __FUNCTION__                             0x0800d0df   Data          16  ipc.o(.constdata)
    __FUNCTION__                             0x0800d0ef   Data          13  ipc.o(.constdata)
    __FUNCTION__                             0x0800d0fc   Data          11  ipc.o(.constdata)
    __FUNCTION__                             0x0800d107   Data          14  ipc.o(.constdata)
    .constdata                               0x0800d115   Section       34  kservice.o(.constdata)
    small_digits                             0x0800d115   Data          17  kservice.o(.constdata)
    large_digits                             0x0800d126   Data          17  kservice.o(.constdata)
    .constdata                               0x0800d137   Section       60  mem.o(.constdata)
    __FUNCTION__                             0x0800d137   Data           8  mem.o(.constdata)
    __FUNCTION__                             0x0800d13f   Data          11  mem.o(.constdata)
    __FUNCTION__                             0x0800d14a   Data          20  mem.o(.constdata)
    __FUNCTION__                             0x0800d15e   Data          10  mem.o(.constdata)
    __FUNCTION__                             0x0800d168   Data          11  mem.o(.constdata)
    .constdata                               0x0800d173   Section      128  object.o(.constdata)
    __FUNCTION__                             0x0800d173   Data          15  object.o(.constdata)
    __FUNCTION__                             0x0800d182   Data          17  object.o(.constdata)
    __FUNCTION__                             0x0800d193   Data          19  object.o(.constdata)
    __FUNCTION__                             0x0800d1a6   Data          17  object.o(.constdata)
    __FUNCTION__                             0x0800d1b7   Data          26  object.o(.constdata)
    __FUNCTION__                             0x0800d1d1   Data          19  object.o(.constdata)
    __FUNCTION__                             0x0800d1e4   Data          15  object.o(.constdata)
    .constdata                               0x0800d1f3   Section       78  scheduler.o(.constdata)
    __FUNCTION__                             0x0800d1f3   Data          26  scheduler.o(.constdata)
    __FUNCTION__                             0x0800d20d   Data          26  scheduler.o(.constdata)
    __FUNCTION__                             0x0800d227   Data          26  scheduler.o(.constdata)
    .constdata                               0x0800d241   Section      207  thread.o(.constdata)
    __FUNCTION__                             0x0800d241   Data          16  thread.o(.constdata)
    __FUNCTION__                             0x0800d251   Data          15  thread.o(.constdata)
    __FUNCTION__                             0x0800d260   Data          18  thread.o(.constdata)
    __FUNCTION__                             0x0800d272   Data          17  thread.o(.constdata)
    __FUNCTION__                             0x0800d283   Data          17  thread.o(.constdata)
    __FUNCTION__                             0x0800d294   Data          16  thread.o(.constdata)
    __FUNCTION__                             0x0800d2a4   Data          22  thread.o(.constdata)
    __FUNCTION__                             0x0800d2ba   Data          18  thread.o(.constdata)
    __FUNCTION__                             0x0800d2cc   Data          18  thread.o(.constdata)
    __FUNCTION__                             0x0800d2de   Data          17  thread.o(.constdata)
    __FUNCTION__                             0x0800d2ef   Data          18  thread.o(.constdata)
    __FUNCTION__                             0x0800d301   Data          15  thread.o(.constdata)
    .constdata                               0x0800d310   Section       92  timer.o(.constdata)
    __FUNCTION__                             0x0800d310   Data          14  timer.o(.constdata)
    __FUNCTION__                             0x0800d31e   Data          16  timer.o(.constdata)
    __FUNCTION__                             0x0800d32e   Data          16  timer.o(.constdata)
    __FUNCTION__                             0x0800d33e   Data          15  timer.o(.constdata)
    __FUNCTION__                             0x0800d34d   Data          14  timer.o(.constdata)
    __FUNCTION__                             0x0800d35b   Data          17  timer.o(.constdata)
    .constdata                               0x0800d36c   Section       16  system_stm32f1xx.o(.constdata)
    .constdata                               0x0800d37c   Section        8  system_stm32f1xx.o(.constdata)
    .conststring                             0x0800d384   Section       99  serial.o(.conststring)
    .conststring                             0x0800d3e8   Section       14  drv_usart.o(.conststring)
    .conststring                             0x0800d3f8   Section       21  drv_pwm.o(.conststring)
    .conststring                             0x0800d410   Section        5  drv_soft_i2c.o(.conststring)
    .conststring                             0x0800d418   Section      381  cmd.o(.conststring)
    .conststring                             0x0800d598   Section      139  ipc.o(.conststring)
    .conststring                             0x0800d624   Section      235  mem.o(.conststring)
    .conststring                             0x0800d710   Section       66  thread.o(.conststring)
    .rodata.name                             0x0800d752   Section       18  main.o(.rodata.name)
    .rodata.name                             0x0800d764   Section       40  main.o(.rodata.name)
    .rodata.name                             0x0800d78c   Section       20  main.o(.rodata.name)
    .rodata.name                             0x0800d7a0   Section       30  main.o(.rodata.name)
    .rodata.name                             0x0800d7be   Section        8  pin.o(.rodata.name)
    .rodata.name                             0x0800d7c6   Section       22  pin.o(.rodata.name)
    .rodata.name                             0x0800d7dc   Section        9  pin.o(.rodata.name)
    .rodata.name                             0x0800d7e5   Section       28  pin.o(.rodata.name)
    .rodata.name                             0x0800d801   Section        8  pin.o(.rodata.name)
    .rodata.name                             0x0800d809   Section       30  pin.o(.rodata.name)
    .rodata.name                             0x0800d827   Section       11  rt_drv_pwm.o(.rodata.name)
    .rodata.name                             0x0800d832   Section       23  rt_drv_pwm.o(.rodata.name)
    .rodata.name                             0x0800d849   Section        8  rt_drv_pwm.o(.rodata.name)
    .rodata.name                             0x0800d851   Section        9  rt_drv_pwm.o(.rodata.name)
    .rodata.name                             0x0800d85a   Section       17  rt_drv_pwm.o(.rodata.name)
    .rodata.name                             0x0800d86b   Section       18  rt_drv_pwm.o(.rodata.name)
    .rodata.name                             0x0800d87d   Section       18  rt_drv_pwm.o(.rodata.name)
    .rodata.name                             0x0800d88f   Section       19  rt_drv_pwm.o(.rodata.name)
    .rodata.name                             0x0800d8a2   Section       14  rt_drv_pwm.o(.rodata.name)
    .rodata.name                             0x0800d8b0   Section       22  rt_drv_pwm.o(.rodata.name)
    .rodata.name                             0x0800d8c6   Section       13  drv_common.o(.rodata.name)
    .rodata.name                             0x0800d8d3   Section       14  drv_common.o(.rodata.name)
    .rodata.name                             0x0800d8e1   Section        6  cmd.o(.rodata.name)
    .rodata.name                             0x0800d8e7   Section       16  cmd.o(.rodata.name)
    .rodata.name                             0x0800d8f7   Section        6  cmd.o(.rodata.name)
    .rodata.name                             0x0800d8fd   Section       26  cmd.o(.rodata.name)
    .rodata.name                             0x0800d917   Section       12  cmd.o(.rodata.name)
    .rodata.name                             0x0800d923   Section       26  cmd.o(.rodata.name)
    .rodata.name                             0x0800d93d   Section        8  cmd.o(.rodata.name)
    .rodata.name                             0x0800d945   Section       35  cmd.o(.rodata.name)
    .rodata.name                             0x0800d968   Section       14  cmd.o(.rodata.name)
    .rodata.name                             0x0800d976   Section       35  cmd.o(.rodata.name)
    .rodata.name                             0x0800d999   Section       12  cmd.o(.rodata.name)
    .rodata.name                             0x0800d9a5   Section       12  cmd.o(.rodata.name)
    .rodata.name                             0x0800d9b1   Section       18  cmd.o(.rodata.name)
    .rodata.name                             0x0800d9c3   Section       12  cmd.o(.rodata.name)
    .rodata.name                             0x0800d9cf   Section        9  cmd.o(.rodata.name)
    .rodata.name                             0x0800d9d8   Section       25  cmd.o(.rodata.name)
    .rodata.name                             0x0800d9f1   Section       15  cmd.o(.rodata.name)
    .rodata.name                             0x0800da00   Section       25  cmd.o(.rodata.name)
    .rodata.name                             0x0800da19   Section       11  cmd.o(.rodata.name)
    .rodata.name                             0x0800da24   Section       21  cmd.o(.rodata.name)
    .rodata.name                             0x0800da39   Section       17  cmd.o(.rodata.name)
    .rodata.name                             0x0800da4a   Section       21  cmd.o(.rodata.name)
    .rodata.name                             0x0800da5f   Section       11  cmd.o(.rodata.name)
    .rodata.name                             0x0800da6a   Section       21  cmd.o(.rodata.name)
    .rodata.name                             0x0800da7f   Section       17  cmd.o(.rodata.name)
    .rodata.name                             0x0800da90   Section       21  cmd.o(.rodata.name)
    .rodata.name                             0x0800daa5   Section       13  cmd.o(.rodata.name)
    .rodata.name                             0x0800dab2   Section       24  cmd.o(.rodata.name)
    .rodata.name                             0x0800daca   Section       19  cmd.o(.rodata.name)
    .rodata.name                             0x0800dadd   Section       24  cmd.o(.rodata.name)
    .rodata.name                             0x0800daf5   Section       14  cmd.o(.rodata.name)
    .rodata.name                             0x0800db03   Section       29  cmd.o(.rodata.name)
    .rodata.name                             0x0800db20   Section       20  cmd.o(.rodata.name)
    .rodata.name                             0x0800db34   Section       29  cmd.o(.rodata.name)
    .rodata.name                             0x0800db51   Section       13  cmd.o(.rodata.name)
    .rodata.name                             0x0800db5e   Section       27  cmd.o(.rodata.name)
    .rodata.name                             0x0800db79   Section       19  cmd.o(.rodata.name)
    .rodata.name                             0x0800db8c   Section       27  cmd.o(.rodata.name)
    .rodata.name                             0x0800dba7   Section       11  cmd.o(.rodata.name)
    .rodata.name                             0x0800dbb2   Section       21  cmd.o(.rodata.name)
    .rodata.name                             0x0800dbc7   Section       17  cmd.o(.rodata.name)
    .rodata.name                             0x0800dbd8   Section       21  cmd.o(.rodata.name)
    .rodata.name                             0x0800dbed   Section       12  cmd.o(.rodata.name)
    .rodata.name                             0x0800dbf9   Section       22  cmd.o(.rodata.name)
    .rodata.name                             0x0800dc0f   Section       18  cmd.o(.rodata.name)
    .rodata.name                             0x0800dc21   Section       22  cmd.o(.rodata.name)
    .rodata.name                             0x0800dc37   Section        5  cmd.o(.rodata.name)
    .rodata.name                             0x0800dc3c   Section       26  cmd.o(.rodata.name)
    .rodata.name                             0x0800dc56   Section       11  msh.o(.rodata.name)
    .rodata.name                             0x0800dc61   Section       22  msh.o(.rodata.name)
    .rodata.name                             0x0800dc77   Section        9  msh.o(.rodata.name)
    .rodata.name                             0x0800dc80   Section       28  msh.o(.rodata.name)
    .rodata.name                             0x0800dc9c   Section       11  msh.o(.rodata.name)
    .rodata.name                             0x0800dca7   Section       37  msh.o(.rodata.name)
    .rodata.name                             0x0800dccc   Section        9  mem.o(.rodata.name)
    .rodata.name                             0x0800dcd5   Section       30  mem.o(.rodata.name)
    .rti_fn.0                                0x0800dcf4   Section        4  components.o(.rti_fn.0)
    __tagsym$$used                           0x0800dcf4   Number         0  components.o(.rti_fn.0)
    .rti_fn.0.end                            0x0800dcf8   Section        4  components.o(.rti_fn.0.end)
    __tagsym$$used                           0x0800dcf8   Number         0  components.o(.rti_fn.0.end)
    .rti_fn.1                                0x0800dcfc   Section        4  drv_soft_i2c.o(.rti_fn.1)
    __tagsym$$used                           0x0800dcfc   Number         0  drv_soft_i2c.o(.rti_fn.1)
    .rti_fn.1.end                            0x0800dd00   Section        4  components.o(.rti_fn.1.end)
    __tagsym$$used                           0x0800dd00   Number         0  components.o(.rti_fn.1.end)
    .rti_fn.3                                0x0800dd04   Section        4  drv_pwm.o(.rti_fn.3)
    __tagsym$$used                           0x0800dd04   Number         0  drv_pwm.o(.rti_fn.3)
    .rti_fn.4                                0x0800dd08   Section        4  i2c_core.o(.rti_fn.4)
    __tagsym$$used                           0x0800dd08   Number         0  i2c_core.o(.rti_fn.4)
    .rti_fn.6                                0x0800dd0c   Section        4  shell.o(.rti_fn.6)
    __tagsym$$used                           0x0800dd0c   Number         0  shell.o(.rti_fn.6)
    .rti_fn.6.end                            0x0800dd10   Section        4  components.o(.rti_fn.6.end)
    __tagsym$$used                           0x0800dd10   Number         0  components.o(.rti_fn.6.end)
    FSymTab                                  0x0800dd14   Section       24  main.o(FSymTab)
    __tagsym$$used                           0x0800dd14   Number         0  main.o(FSymTab)
    __tagsym$$used                           0x0800dd20   Number         0  main.o(FSymTab)
    FSymTab                                  0x0800dd2c   Section       36  pin.o(FSymTab)
    __tagsym$$used                           0x0800dd2c   Number         0  pin.o(FSymTab)
    __tagsym$$used                           0x0800dd38   Number         0  pin.o(FSymTab)
    __tagsym$$used                           0x0800dd44   Number         0  pin.o(FSymTab)
    FSymTab                                  0x0800dd50   Section       60  rt_drv_pwm.o(FSymTab)
    __tagsym$$used                           0x0800dd50   Number         0  rt_drv_pwm.o(FSymTab)
    __tagsym$$used                           0x0800dd5c   Number         0  rt_drv_pwm.o(FSymTab)
    __tagsym$$used                           0x0800dd68   Number         0  rt_drv_pwm.o(FSymTab)
    __tagsym$$used                           0x0800dd74   Number         0  rt_drv_pwm.o(FSymTab)
    __tagsym$$used                           0x0800dd80   Number         0  rt_drv_pwm.o(FSymTab)
    FSymTab                                  0x0800dd8c   Section       12  drv_common.o(FSymTab)
    __tagsym$$used                           0x0800dd8c   Number         0  drv_common.o(FSymTab)
    FSymTab                                  0x0800dd98   Section      288  cmd.o(FSymTab)
    __tagsym$$used                           0x0800dd98   Number         0  cmd.o(FSymTab)
    __tagsym$$used                           0x0800dda4   Number         0  cmd.o(FSymTab)
    __tagsym$$used                           0x0800ddb0   Number         0  cmd.o(FSymTab)
    __tagsym$$used                           0x0800ddbc   Number         0  cmd.o(FSymTab)
    __tagsym$$used                           0x0800ddc8   Number         0  cmd.o(FSymTab)
    __tagsym$$used                           0x0800ddd4   Number         0  cmd.o(FSymTab)
    __tagsym$$used                           0x0800dde0   Number         0  cmd.o(FSymTab)
    __tagsym$$used                           0x0800ddec   Number         0  cmd.o(FSymTab)
    __tagsym$$used                           0x0800ddf8   Number         0  cmd.o(FSymTab)
    __tagsym$$used                           0x0800de04   Number         0  cmd.o(FSymTab)
    __tagsym$$used                           0x0800de10   Number         0  cmd.o(FSymTab)
    __tagsym$$used                           0x0800de1c   Number         0  cmd.o(FSymTab)
    __tagsym$$used                           0x0800de28   Number         0  cmd.o(FSymTab)
    __tagsym$$used                           0x0800de34   Number         0  cmd.o(FSymTab)
    __tagsym$$used                           0x0800de40   Number         0  cmd.o(FSymTab)
    __tagsym$$used                           0x0800de4c   Number         0  cmd.o(FSymTab)
    __tagsym$$used                           0x0800de58   Number         0  cmd.o(FSymTab)
    __tagsym$$used                           0x0800de64   Number         0  cmd.o(FSymTab)
    __tagsym$$used                           0x0800de70   Number         0  cmd.o(FSymTab)
    __tagsym$$used                           0x0800de7c   Number         0  cmd.o(FSymTab)
    __tagsym$$used                           0x0800de88   Number         0  cmd.o(FSymTab)
    __tagsym$$used                           0x0800de94   Number         0  cmd.o(FSymTab)
    __tagsym$$used                           0x0800dea0   Number         0  cmd.o(FSymTab)
    __tagsym$$used                           0x0800deac   Number         0  cmd.o(FSymTab)
    FSymTab                                  0x0800deb8   Section       36  msh.o(FSymTab)
    __tagsym$$used                           0x0800deb8   Number         0  msh.o(FSymTab)
    __tagsym$$used                           0x0800dec4   Number         0  msh.o(FSymTab)
    __tagsym$$used                           0x0800ded0   Number         0  msh.o(FSymTab)
    FSymTab                                  0x0800dedc   Section       12  mem.o(FSymTab)
    __tagsym$$used                           0x0800dedc   Number         0  mem.o(FSymTab)
    locale$$data                             0x0800df08   Section      272  lc_ctype_c.o(locale$$data)
    __lcctype_c_name                         0x0800df0c   Data           2  lc_ctype_c.o(locale$$data)
    __lcctype_c_start                        0x0800df14   Data           0  lc_ctype_c.o(locale$$data)
    __lcctype_c_end                          0x0800e018   Data           0  lc_ctype_c.o(locale$$data)
    .data                                    0x20000000   Section        1  module_bluetoothhc06.o(.data)
    i                                        0x20000000   Data           1  module_bluetoothhc06.o(.data)
    .data                                    0x20000001   Section     1520  module_oled.o(.data)
    F8X16                                    0x20000001   Data        1520  module_oled.o(.data)
    .data                                    0x200005f4   Section        4  cpuport.o(.data)
    rt_exception_hook                        0x200005f4   Data           4  cpuport.o(.data)
    .data                                    0x200005f8   Section        4  cpuport.o(.data)
    .data                                    0x200005fc   Section        4  cpuport.o(.data)
    .data                                    0x20000600   Section        4  cpuport.o(.data)
    .data                                    0x20000604   Section        4  serial.o(.data)
    already_output                           0x20000604   Data           4  serial.o(.data)
    .data                                    0x20000608   Section      196  drv_gpio.o(.data)
    pin_irq_enable_mask                      0x20000608   Data           4  drv_gpio.o(.data)
    pin_irq_hdr_tab                          0x2000060c   Data         192  drv_gpio.o(.data)
    .data                                    0x200006cc   Section       52  drv_usart.o(.data)
    uart_config                              0x200006cc   Data          40  drv_usart.o(.data)
    uart2_dma_rx                             0x200006f4   Data          12  drv_usart.o(.data)
    .data                                    0x20000700   Section      424  drv_pwm.o(.data)
    drv_ops                                  0x20000700   Data           4  drv_pwm.o(.data)
    stm32_pwm_obj                            0x20000704   Data         420  drv_pwm.o(.data)
    .data                                    0x200008a8   Section       24  shell.o(.data)
    finsh_prompt_custom                      0x200008b8   Data           4  shell.o(.data)
    .data                                    0x200008c0   Section        4  clock.o(.data)
    rt_tick                                  0x200008c0   Data           4  clock.o(.data)
    .data                                    0x200008c4   Section       12  irq.o(.data)
    rt_interrupt_enter_hook                  0x200008c8   Data           4  irq.o(.data)
    rt_interrupt_leave_hook                  0x200008cc   Data           4  irq.o(.data)
    .data                                    0x200008d0   Section       12  kservice.o(.data)
    _console_device                          0x200008d0   Data           4  kservice.o(.data)
    __rt_errno                               0x200008d4   Data           4  kservice.o(.data)
    .data                                    0x200008dc   Section       32  mem.o(.data)
    rt_malloc_hook                           0x200008dc   Data           4  mem.o(.data)
    rt_free_hook                             0x200008e0   Data           4  mem.o(.data)
    heap_ptr                                 0x200008e4   Data           4  mem.o(.data)
    heap_end                                 0x200008e8   Data           4  mem.o(.data)
    lfree                                    0x200008ec   Data           4  mem.o(.data)
    mem_size_aligned                         0x200008f0   Data           4  mem.o(.data)
    used_mem                                 0x200008f4   Data           4  mem.o(.data)
    max_mem                                  0x200008f8   Data           4  mem.o(.data)
    .data                                    0x200008fc   Section      164  object.o(.data)
    rt_object_attach_hook                    0x200008fc   Data           4  object.o(.data)
    rt_object_detach_hook                    0x20000900   Data           4  object.o(.data)
    rt_object_container                      0x20000910   Data         144  object.o(.data)
    .data                                    0x200009a0   Section       24  scheduler.o(.data)
    rt_scheduler_lock_nest                   0x200009a2   Data           2  scheduler.o(.data)
    rt_scheduler_hook                        0x200009ac   Data           4  scheduler.o(.data)
    .data                                    0x200009b8   Section       12  thread.o(.data)
    rt_thread_suspend_hook                   0x200009b8   Data           4  thread.o(.data)
    rt_thread_resume_hook                    0x200009bc   Data           4  thread.o(.data)
    rt_thread_inited_hook                    0x200009c0   Data           4  thread.o(.data)
    .data                                    0x200009c4   Section       20  timer.o(.data)
    random_nr                                0x200009c4   Data           4  timer.o(.data)
    rt_timer_enter_hook                      0x200009c8   Data           4  timer.o(.data)
    rt_timer_exit_hook                       0x200009cc   Data           4  timer.o(.data)
    rt_timer_list                            0x200009d0   Data           8  timer.o(.data)
    .data                                    0x200009d8   Section        4  system_stm32f1xx.o(.data)
    .data                                    0x200009dc   Section       12  stm32f1xx_hal.o(.data)
    .bss                                     0x200009e8   Section     1144  main.o(.bss)
    .bss                                     0x20000e60   Section       32  module_bluetoothhc06.o(.bss)
    uartBluetoothHC06_sem                    0x20000e60   Data          32  module_bluetoothhc06.o(.bss)
    .bss                                     0x20000e80   Section       68  pin.o(.bss)
    _hw_pin                                  0x20000e80   Data          68  pin.o(.bss)
    .bss                                     0x20000ec4   Section      592  drv_usart.o(.bss)
    uart_obj                                 0x20000ec4   Data         592  drv_usart.o(.bss)
    .bss                                     0x20001114   Section      152  drv_soft_i2c.o(.bss)
    i2c_obj                                  0x20001114   Data         152  drv_soft_i2c.o(.bss)
    .bss                                     0x200011ac   Section      129  shell.o(.bss)
    finsh_prompt                             0x200011ac   Data         129  shell.o(.bss)
    .bss                                     0x20001230   Section      400  idle.o(.bss)
    idle                                     0x20001230   Data         128  idle.o(.bss)
    rt_thread_stack                          0x200012b0   Data         256  idle.o(.bss)
    idle_hook_list                           0x200013b0   Data          16  idle.o(.bss)
    .bss                                     0x200013c0   Section      128  kservice.o(.bss)
    rt_log_buf                               0x200013c0   Data         128  kservice.o(.bss)
    .bss                                     0x20001440   Section       32  mem.o(.bss)
    heap_sem                                 0x20001440   Data          32  mem.o(.bss)
    .bss                                     0x20001460   Section      256  scheduler.o(.bss)
    .bss                                     0x20001560   Section       96  libspace.o(.bss)
    HEAP                                     0x200015c0   Section      512  startup_stm32f103xe.o(HEAP)
    Heap_Mem                                 0x200015c0   Data         512  startup_stm32f103xe.o(HEAP)
    STACK                                    0x200017c0   Section     1024  startup_stm32f103xe.o(STACK)
    Stack_Mem                                0x200017c0   Data        1024  startup_stm32f103xe.o(STACK)
    __initial_sp                             0x20001bc0   Data           0  startup_stm32f103xe.o(STACK)

    Global Symbols

    Symbol Name                              Value     Ov Type        Size  Object(Section)

    BuildAttributes$$THM_ISAv4$P$D$K$B$S$PE$A:L22UL41UL21$X:L11$S22US41US21$IEEE1$IW$USESV6$~STKCKD$USESV7$~SHL$OSPACE$ROPI$EBA8$UX$STANDARDLIB$REQ8$PRES8$EABIv2 0x00000000   Number         0  anon$$obj.o ABSOLUTE
    __ARM_use_no_argv                        0x00000000   Number         0  main.o ABSOLUTE
    __ARM_exceptions_init                     - Undefined Weak Reference
    __alloca_initialize                       - Undefined Weak Reference
    __arm_preinit_                            - Undefined Weak Reference
    __cpp_initialize__aeabi_                  - Undefined Weak Reference
    __cxa_finalize                            - Undefined Weak Reference
    __sigvec_lookup                           - Undefined Weak Reference
    _atexit_init                              - Undefined Weak Reference
    _call_atexit_fns                          - Undefined Weak Reference
    _clock_init                               - Undefined Weak Reference
    _fp_trap_init                             - Undefined Weak Reference
    _fp_trap_shutdown                         - Undefined Weak Reference
    _get_lc_collate                           - Undefined Weak Reference
    _get_lc_monetary                          - Undefined Weak Reference
    _get_lc_numeric                           - Undefined Weak Reference
    _get_lc_time                              - Undefined Weak Reference
    _getenv_init                              - Undefined Weak Reference
    _handle_redirection                       - Undefined Weak Reference
    _init_alloc                               - Undefined Weak Reference
    _init_user_alloc                          - Undefined Weak Reference
    _initio                                   - Undefined Weak Reference
    _rand_init                                - Undefined Weak Reference
    _signal_finish                            - Undefined Weak Reference
    _signal_init                              - Undefined Weak Reference
    _terminate_alloc                          - Undefined Weak Reference
    _terminate_user_alloc                     - Undefined Weak Reference
    _terminateio                              - Undefined Weak Reference
    __Vectors_Size                           0x00000130   Number         0  startup_stm32f103xe.o ABSOLUTE
    __Vectors                                0x08000000   Data           4  startup_stm32f103xe.o(RESET)
    __Vectors_End                            0x08000130   Data           0  startup_stm32f103xe.o(RESET)
    __main                                   0x08000131   Thumb Code     8  __main.o(!!!main)
    __scatterload                            0x08000139   Thumb Code     0  __scatter.o(!!!scatter)
    __scatterload_rt2                        0x08000139   Thumb Code    44  __scatter.o(!!!scatter)
    __scatterload_rt2_thumb_only             0x08000139   Thumb Code     0  __scatter.o(!!!scatter)
    __scatterload_null                       0x08000147   Thumb Code     0  __scatter.o(!!!scatter)
    __decompress                             0x0800016d   Thumb Code    90  __dczerorl2.o(!!dczerorl2)
    __decompress1                            0x0800016d   Thumb Code     0  __dczerorl2.o(!!dczerorl2)
    __scatterload_zeroinit                   0x080001c9   Thumb Code    28  __scatter_zi.o(!!handler_zi)
    __rt_lib_init                            0x080001e5   Thumb Code     0  libinit.o(.ARM.Collect$$libinit$$00000000)
    __rt_lib_init_fp_1                       0x080001e7   Thumb Code     0  libinit2.o(.ARM.Collect$$libinit$$00000002)
    __rt_lib_init_heap_1                     0x080001e7   Thumb Code     0  libinit2.o(.ARM.Collect$$libinit$$0000000A)
    __rt_lib_init_lc_common                  0x080001e7   Thumb Code     0  libinit2.o(.ARM.Collect$$libinit$$0000000F)
    __rt_lib_init_preinit_1                  0x080001e7   Thumb Code     0  libinit2.o(.ARM.Collect$$libinit$$00000004)
    __rt_lib_init_rand_1                     0x080001e7   Thumb Code     0  libinit2.o(.ARM.Collect$$libinit$$0000000E)
    __rt_lib_init_user_alloc_1               0x080001e7   Thumb Code     0  libinit2.o(.ARM.Collect$$libinit$$0000000C)
    __rt_lib_init_lc_collate_1               0x080001ed   Thumb Code     0  libinit2.o(.ARM.Collect$$libinit$$00000011)
    __rt_lib_init_lc_ctype_2                 0x080001ed   Thumb Code     0  libinit2.o(.ARM.Collect$$libinit$$00000012)
    __rt_lib_init_alloca_1                   0x080001f9   Thumb Code     0  libinit2.o(.ARM.Collect$$libinit$$0000002E)
    __rt_lib_init_argv_1                     0x080001f9   Thumb Code     0  libinit2.o(.ARM.Collect$$libinit$$0000002C)
    __rt_lib_init_atexit_1                   0x080001f9   Thumb Code     0  libinit2.o(.ARM.Collect$$libinit$$0000001B)
    __rt_lib_init_clock_1                    0x080001f9   Thumb Code     0  libinit2.o(.ARM.Collect$$libinit$$00000021)
    __rt_lib_init_cpp_1                      0x080001f9   Thumb Code     0  libinit2.o(.ARM.Collect$$libinit$$00000032)
    __rt_lib_init_exceptions_1               0x080001f9   Thumb Code     0  libinit2.o(.ARM.Collect$$libinit$$00000030)
    __rt_lib_init_fp_trap_1                  0x080001f9   Thumb Code     0  libinit2.o(.ARM.Collect$$libinit$$0000001F)
    __rt_lib_init_getenv_1                   0x080001f9   Thumb Code     0  libinit2.o(.ARM.Collect$$libinit$$00000023)
    __rt_lib_init_lc_ctype_1                 0x080001f9   Thumb Code     0  libinit2.o(.ARM.Collect$$libinit$$00000013)
    __rt_lib_init_lc_monetary_1              0x080001f9   Thumb Code     0  libinit2.o(.ARM.Collect$$libinit$$00000015)
    __rt_lib_init_lc_numeric_1               0x080001f9   Thumb Code     0  libinit2.o(.ARM.Collect$$libinit$$00000017)
    __rt_lib_init_lc_time_1                  0x080001f9   Thumb Code     0  libinit2.o(.ARM.Collect$$libinit$$00000019)
    __rt_lib_init_return                     0x080001f9   Thumb Code     0  libinit2.o(.ARM.Collect$$libinit$$00000033)
    __rt_lib_init_signal_1                   0x080001f9   Thumb Code     0  libinit2.o(.ARM.Collect$$libinit$$0000001D)
    __rt_lib_init_stdio_1                    0x080001f9   Thumb Code     0  libinit2.o(.ARM.Collect$$libinit$$00000025)
    __rt_lib_shutdown                        0x080001fb   Thumb Code     0  libshutdown.o(.ARM.Collect$$libshutdown$$00000000)
    __rt_lib_shutdown_cpp_1                  0x080001fd   Thumb Code     0  libshutdown2.o(.ARM.Collect$$libshutdown$$00000002)
    __rt_lib_shutdown_fp_trap_1              0x080001fd   Thumb Code     0  libshutdown2.o(.ARM.Collect$$libshutdown$$00000007)
    __rt_lib_shutdown_heap_1                 0x080001fd   Thumb Code     0  libshutdown2.o(.ARM.Collect$$libshutdown$$0000000F)
    __rt_lib_shutdown_return                 0x080001fd   Thumb Code     0  libshutdown2.o(.ARM.Collect$$libshutdown$$00000010)
    __rt_lib_shutdown_signal_1               0x080001fd   Thumb Code     0  libshutdown2.o(.ARM.Collect$$libshutdown$$0000000A)
    __rt_lib_shutdown_stdio_1                0x080001fd   Thumb Code     0  libshutdown2.o(.ARM.Collect$$libshutdown$$00000004)
    __rt_lib_shutdown_user_alloc_1           0x080001fd   Thumb Code     0  libshutdown2.o(.ARM.Collect$$libshutdown$$0000000C)
    __rt_entry                               0x080001ff   Thumb Code     0  __rtentry.o(.ARM.Collect$$rtentry$$00000000)
    __rt_entry_presh_1                       0x080001ff   Thumb Code     0  __rtentry2.o(.ARM.Collect$$rtentry$$00000002)
    __rt_entry_sh                            0x080001ff   Thumb Code     0  __rtentry4.o(.ARM.Collect$$rtentry$$00000004)
    __rt_entry_li                            0x08000205   Thumb Code     0  __rtentry2.o(.ARM.Collect$$rtentry$$0000000A)
    __rt_entry_postsh_1                      0x08000205   Thumb Code     0  __rtentry2.o(.ARM.Collect$$rtentry$$00000009)
    __rt_entry_main                          0x08000209   Thumb Code     0  __rtentry2.o(.ARM.Collect$$rtentry$$0000000D)
    __rt_entry_postli_1                      0x08000209   Thumb Code     0  __rtentry2.o(.ARM.Collect$$rtentry$$0000000C)
    __rt_exit                                0x08000211   Thumb Code     0  rtexit.o(.ARM.Collect$$rtexit$$00000000)
    __rt_exit_ls                             0x08000213   Thumb Code     0  rtexit2.o(.ARM.Collect$$rtexit$$00000003)
    __rt_exit_prels_1                        0x08000213   Thumb Code     0  rtexit2.o(.ARM.Collect$$rtexit$$00000002)
    __rt_exit_exit                           0x08000217   Thumb Code     0  rtexit2.o(.ARM.Collect$$rtexit$$00000004)
    __rt_ffs                                 0x0800021d   Thumb Code    16  cpuport.o(.emb_text)
    rt_hw_interrupt_disable                  0x0800022d   Thumb Code     8  context_rvds.o(.text)
    rt_hw_interrupt_enable                   0x08000235   Thumb Code     6  context_rvds.o(.text)
    rt_hw_context_switch                     0x0800023b   Thumb Code    32  context_rvds.o(.text)
    rt_hw_context_switch_interrupt           0x0800023b   Thumb Code     0  context_rvds.o(.text)
    PendSV_Handler                           0x0800025b   Thumb Code    60  context_rvds.o(.text)
    rt_hw_context_switch_to                  0x08000297   Thumb Code    56  context_rvds.o(.text)
    rt_hw_interrupt_thread_switch            0x080002cf   Thumb Code     2  context_rvds.o(.text)
    HardFault_Handler                        0x080002d1   Thumb Code    52  context_rvds.o(.text)
    Reset_Handler                            0x08000321   Thumb Code     8  startup_stm32f103xe.o(.text)
    NMI_Handler                              0x08000329   Thumb Code     2  startup_stm32f103xe.o(.text)
    MemManage_Handler                        0x0800032d   Thumb Code     2  startup_stm32f103xe.o(.text)
    BusFault_Handler                         0x0800032f   Thumb Code     2  startup_stm32f103xe.o(.text)
    UsageFault_Handler                       0x08000331   Thumb Code     2  startup_stm32f103xe.o(.text)
    SVC_Handler                              0x08000333   Thumb Code     2  startup_stm32f103xe.o(.text)
    DebugMon_Handler                         0x08000335   Thumb Code     2  startup_stm32f103xe.o(.text)
    ADC1_2_IRQHandler                        0x0800033b   Thumb Code     0  startup_stm32f103xe.o(.text)
    ADC3_IRQHandler                          0x0800033b   Thumb Code     0  startup_stm32f103xe.o(.text)
    CAN1_RX1_IRQHandler                      0x0800033b   Thumb Code     0  startup_stm32f103xe.o(.text)
    CAN1_SCE_IRQHandler                      0x0800033b   Thumb Code     0  startup_stm32f103xe.o(.text)
    DMA1_Channel1_IRQHandler                 0x0800033b   Thumb Code     0  startup_stm32f103xe.o(.text)
    DMA1_Channel2_IRQHandler                 0x0800033b   Thumb Code     0  startup_stm32f103xe.o(.text)
    DMA1_Channel3_IRQHandler                 0x0800033b   Thumb Code     0  startup_stm32f103xe.o(.text)
    DMA1_Channel4_IRQHandler                 0x0800033b   Thumb Code     0  startup_stm32f103xe.o(.text)
    DMA1_Channel5_IRQHandler                 0x0800033b   Thumb Code     0  startup_stm32f103xe.o(.text)
    DMA1_Channel7_IRQHandler                 0x0800033b   Thumb Code     0  startup_stm32f103xe.o(.text)
    DMA2_Channel1_IRQHandler                 0x0800033b   Thumb Code     0  startup_stm32f103xe.o(.text)
    DMA2_Channel2_IRQHandler                 0x0800033b   Thumb Code     0  startup_stm32f103xe.o(.text)
    DMA2_Channel3_IRQHandler                 0x0800033b   Thumb Code     0  startup_stm32f103xe.o(.text)
    DMA2_Channel4_5_IRQHandler               0x0800033b   Thumb Code     0  startup_stm32f103xe.o(.text)
    FLASH_IRQHandler                         0x0800033b   Thumb Code     0  startup_stm32f103xe.o(.text)
    FSMC_IRQHandler                          0x0800033b   Thumb Code     0  startup_stm32f103xe.o(.text)
    I2C1_ER_IRQHandler                       0x0800033b   Thumb Code     0  startup_stm32f103xe.o(.text)
    I2C1_EV_IRQHandler                       0x0800033b   Thumb Code     0  startup_stm32f103xe.o(.text)
    I2C2_ER_IRQHandler                       0x0800033b   Thumb Code     0  startup_stm32f103xe.o(.text)
    I2C2_EV_IRQHandler                       0x0800033b   Thumb Code     0  startup_stm32f103xe.o(.text)
    PVD_IRQHandler                           0x0800033b   Thumb Code     0  startup_stm32f103xe.o(.text)
    RCC_IRQHandler                           0x0800033b   Thumb Code     0  startup_stm32f103xe.o(.text)
    RTC_Alarm_IRQHandler                     0x0800033b   Thumb Code     0  startup_stm32f103xe.o(.text)
    RTC_IRQHandler                           0x0800033b   Thumb Code     0  startup_stm32f103xe.o(.text)
    SDIO_IRQHandler                          0x0800033b   Thumb Code     0  startup_stm32f103xe.o(.text)
    SPI1_IRQHandler                          0x0800033b   Thumb Code     0  startup_stm32f103xe.o(.text)
    SPI2_IRQHandler                          0x0800033b   Thumb Code     0  startup_stm32f103xe.o(.text)
    SPI3_IRQHandler                          0x0800033b   Thumb Code     0  startup_stm32f103xe.o(.text)
    TAMPER_IRQHandler                        0x0800033b   Thumb Code     0  startup_stm32f103xe.o(.text)
    TIM1_BRK_IRQHandler                      0x0800033b   Thumb Code     0  startup_stm32f103xe.o(.text)
    TIM1_CC_IRQHandler                       0x0800033b   Thumb Code     0  startup_stm32f103xe.o(.text)
    TIM1_TRG_COM_IRQHandler                  0x0800033b   Thumb Code     0  startup_stm32f103xe.o(.text)
    TIM1_UP_IRQHandler                       0x0800033b   Thumb Code     0  startup_stm32f103xe.o(.text)
    TIM2_IRQHandler                          0x0800033b   Thumb Code     0  startup_stm32f103xe.o(.text)
    TIM3_IRQHandler                          0x0800033b   Thumb Code     0  startup_stm32f103xe.o(.text)
    TIM4_IRQHandler                          0x0800033b   Thumb Code     0  startup_stm32f103xe.o(.text)
    TIM5_IRQHandler                          0x0800033b   Thumb Code     0  startup_stm32f103xe.o(.text)
    TIM6_IRQHandler                          0x0800033b   Thumb Code     0  startup_stm32f103xe.o(.text)
    TIM7_IRQHandler                          0x0800033b   Thumb Code     0  startup_stm32f103xe.o(.text)
    TIM8_BRK_IRQHandler                      0x0800033b   Thumb Code     0  startup_stm32f103xe.o(.text)
    TIM8_CC_IRQHandler                       0x0800033b   Thumb Code     0  startup_stm32f103xe.o(.text)
    TIM8_TRG_COM_IRQHandler                  0x0800033b   Thumb Code     0  startup_stm32f103xe.o(.text)
    TIM8_UP_IRQHandler                       0x0800033b   Thumb Code     0  startup_stm32f103xe.o(.text)
    UART4_IRQHandler                         0x0800033b   Thumb Code     0  startup_stm32f103xe.o(.text)
    UART5_IRQHandler                         0x0800033b   Thumb Code     0  startup_stm32f103xe.o(.text)
    USART3_IRQHandler                        0x0800033b   Thumb Code     0  startup_stm32f103xe.o(.text)
    USBWakeUp_IRQHandler                     0x0800033b   Thumb Code     0  startup_stm32f103xe.o(.text)
    USB_HP_CAN1_TX_IRQHandler                0x0800033b   Thumb Code     0  startup_stm32f103xe.o(.text)
    USB_LP_CAN1_RX0_IRQHandler               0x0800033b   Thumb Code     0  startup_stm32f103xe.o(.text)
    WWDG_IRQHandler                          0x0800033b   Thumb Code     0  startup_stm32f103xe.o(.text)
    __user_initial_stackheap                 0x0800033d   Thumb Code     0  startup_stm32f103xe.o(.text)
    __aeabi_uldivmod                         0x08000361   Thumb Code     0  lludivv7m.o(.text)
    _ll_udiv                                 0x08000361   Thumb Code   238  lludivv7m.o(.text)
    __2sprintf                               0x08000451   Thumb Code    34  noretval__2sprintf.o(.text)
    atoi                                     0x08000479   Thumb Code    26  atoi.o(.text)
    memcmp                                   0x08000493   Thumb Code    88  memcmp.o(.text)
    strcpy                                   0x080004eb   Thumb Code    72  strcpy.o(.text)
    strlen                                   0x08000533   Thumb Code    62  strlen.o(.text)
    strncmp                                  0x08000571   Thumb Code   150  strncmp.o(.text)
    strcat                                   0x08000607   Thumb Code    24  strcat.o(.text)
    __aeabi_memcpy                           0x0800061f   Thumb Code     0  rt_memcpy_v6.o(.text)
    __rt_memcpy                              0x0800061f   Thumb Code   138  rt_memcpy_v6.o(.text)
    _memcpy_lastbytes                        0x08000685   Thumb Code     0  rt_memcpy_v6.o(.text)
    __aeabi_memcpy4                          0x080006a9   Thumb Code     0  rt_memcpy_w.o(.text)
    __aeabi_memcpy8                          0x080006a9   Thumb Code     0  rt_memcpy_w.o(.text)
    __rt_memcpy_w                            0x080006a9   Thumb Code   100  rt_memcpy_w.o(.text)
    _memcpy_lastbytes_aligned                0x080006f1   Thumb Code     0  rt_memcpy_w.o(.text)
    __aeabi_memclr                           0x0800070d   Thumb Code     0  rt_memclr.o(.text)
    __rt_memclr                              0x0800070d   Thumb Code    68  rt_memclr.o(.text)
    _memset                                  0x08000711   Thumb Code     0  rt_memclr.o(.text)
    __aeabi_memclr4                          0x08000751   Thumb Code     0  rt_memclr_w.o(.text)
    __aeabi_memclr8                          0x08000751   Thumb Code     0  rt_memclr_w.o(.text)
    __rt_memclr_w                            0x08000751   Thumb Code    78  rt_memclr_w.o(.text)
    _memset_w                                0x08000755   Thumb Code     0  rt_memclr_w.o(.text)
    strncpy                                  0x0800079f   Thumb Code    86  strncpy.o(.text)
    strcmp                                   0x080007f5   Thumb Code   128  strcmpv7m.o(.text)
    __use_two_region_memory                  0x08000875   Thumb Code     2  heapauxi.o(.text)
    __rt_heap_escrow$2region                 0x08000877   Thumb Code     2  heapauxi.o(.text)
    __rt_heap_expand$2region                 0x08000879   Thumb Code     2  heapauxi.o(.text)
    __aeabi_errno_addr                       0x0800087d   Thumb Code     8  rt_errno_addr_intlibspace.o(.text)
    __errno$intlibspace                      0x0800087d   Thumb Code     0  rt_errno_addr_intlibspace.o(.text)
    __rt_errno_addr$intlibspace              0x0800087d   Thumb Code     0  rt_errno_addr_intlibspace.o(.text)
    _printf_char_common                      0x0800088f   Thumb Code    32  _printf_char_common.o(.text)
    _sputc                                   0x080008b5   Thumb Code    10  _sputc.o(.text)
    strtol                                   0x080008bf   Thumb Code   112  strtol.o(.text)
    __user_libspace                          0x08000931   Thumb Code     8  libspace.o(.text)
    __user_perproc_libspace                  0x08000931   Thumb Code     0  libspace.o(.text)
    __user_perthread_libspace                0x08000931   Thumb Code     0  libspace.o(.text)
    __rt_ctype_table                         0x08000939   Thumb Code    16  rt_ctype_table.o(.text)
    __printf                                 0x08000949   Thumb Code    40  __printf_nopercent.o(.text)
    _strtoul                                 0x08000971   Thumb Code   158  _strtoul.o(.text)
    __user_setup_stackheap                   0x08000a0f   Thumb Code    74  sys_stackheap_outer.o(.text)
    __rt_locale                              0x08000a59   Thumb Code     8  rt_locale_intlibspace.o(.text)
    _chval                                   0x08000a61   Thumb Code    28  _chval.o(.text)
    exit                                     0x08000a7d   Thumb Code    18  exit.o(.text)
    _sys_exit                                0x08000a91   Thumb Code     8  sys_exit.o(.text)
    __I$use$semihosting                      0x08000a9d   Thumb Code     0  use_no_semi.o(.text)
    __use_no_semihosting_swi                 0x08000a9d   Thumb Code     2  use_no_semi.o(.text)
    __semihosting_library_function           0x08000a9f   Thumb Code     0  indicate_semi.o(.text)
    main                                     0x08000a9f   Thumb Code    10  components.o(i.$Sub$$main)
    APP_XSpider_Config                       0x08000f3d   Thumb Code   138  app_xspider.o(i.APP_XSpider_Config)
    DMA1_Channel6_IRQHandler                 0x08001001   Thumb Code    20  drv_usart.o(i.DMA1_Channel6_IRQHandler)
    EXTI0_IRQHandler                         0x08001043   Thumb Code    20  drv_gpio.o(i.EXTI0_IRQHandler)
    EXTI15_10_IRQHandler                     0x08001057   Thumb Code    62  drv_gpio.o(i.EXTI15_10_IRQHandler)
    EXTI1_IRQHandler                         0x08001095   Thumb Code    20  drv_gpio.o(i.EXTI1_IRQHandler)
    EXTI2_IRQHandler                         0x080010a9   Thumb Code    20  drv_gpio.o(i.EXTI2_IRQHandler)
    EXTI3_IRQHandler                         0x080010bd   Thumb Code    20  drv_gpio.o(i.EXTI3_IRQHandler)
    EXTI4_IRQHandler                         0x080010d1   Thumb Code    20  drv_gpio.o(i.EXTI4_IRQHandler)
    EXTI9_5_IRQHandler                       0x080010e5   Thumb Code    48  drv_gpio.o(i.EXTI9_5_IRQHandler)
    HAL_DMA_Abort_IT                         0x08001115   Thumb Code   296  stm32f1xx_hal_dma.o(i.HAL_DMA_Abort_IT)
    HAL_DMA_DeInit                           0x08001245   Thumb Code   116  stm32f1xx_hal_dma.o(i.HAL_DMA_DeInit)
    HAL_DMA_IRQHandler                       0x080012c5   Thumb Code   552  stm32f1xx_hal_dma.o(i.HAL_DMA_IRQHandler)
    HAL_DMA_Init                             0x0800150d   Thumb Code   112  stm32f1xx_hal_dma.o(i.HAL_DMA_Init)
    HAL_DMA_Start_IT                         0x08001589   Thumb Code   112  stm32f1xx_hal_dma.o(i.HAL_DMA_Start_IT)
    HAL_GPIO_DeInit                          0x080015f9   Thumb Code   256  stm32f1xx_hal_gpio.o(i.HAL_GPIO_DeInit)
    HAL_GPIO_EXTI_Callback                   0x08001719   Thumb Code    32  drv_gpio.o(i.HAL_GPIO_EXTI_Callback)
    HAL_GPIO_EXTI_IRQHandler                 0x0800173d   Thumb Code    18  stm32f1xx_hal_gpio.o(i.HAL_GPIO_EXTI_IRQHandler)
    HAL_GPIO_Init                            0x08001755   Thumb Code   462  stm32f1xx_hal_gpio.o(i.HAL_GPIO_Init)
    HAL_GPIO_ReadPin                         0x0800194d   Thumb Code    10  stm32f1xx_hal_gpio.o(i.HAL_GPIO_ReadPin)
    HAL_GPIO_WritePin                        0x08001957   Thumb Code    10  stm32f1xx_hal_gpio.o(i.HAL_GPIO_WritePin)
    HAL_GetTick                              0x08001961   Thumb Code    18  drv_common.o(i.HAL_GetTick)
    HAL_IncTick                              0x08001975   Thumb Code    12  stm32f1xx_hal.o(i.HAL_IncTick)
    HAL_Init                                 0x08001985   Thumb Code    32  stm32f1xx_hal.o(i.HAL_Init)
    HAL_InitTick                             0x080019a9   Thumb Code     4  drv_common.o(i.HAL_InitTick)
    HAL_MspInit                              0x080019ad   Thumb Code    52  stm32f1xx_hal_msp.o(i.HAL_MspInit)
    HAL_NVIC_DisableIRQ                      0x080019e9   Thumb Code    34  stm32f1xx_hal_cortex.o(i.HAL_NVIC_DisableIRQ)
    HAL_NVIC_EnableIRQ                       0x08001a0b   Thumb Code    26  stm32f1xx_hal_cortex.o(i.HAL_NVIC_EnableIRQ)
    HAL_NVIC_SetPriority                     0x08001a25   Thumb Code    60  stm32f1xx_hal_cortex.o(i.HAL_NVIC_SetPriority)
    HAL_NVIC_SetPriorityGrouping             0x08001a65   Thumb Code    26  stm32f1xx_hal_cortex.o(i.HAL_NVIC_SetPriorityGrouping)
    HAL_RCC_ClockConfig                      0x08001a89   Thumb Code   280  stm32f1xx_hal_rcc.o(i.HAL_RCC_ClockConfig)
    HAL_RCC_GetHCLKFreq                      0x08001bb5   Thumb Code     6  stm32f1xx_hal_rcc.o(i.HAL_RCC_GetHCLKFreq)
    HAL_RCC_GetPCLK1Freq                     0x08001bc1   Thumb Code    20  stm32f1xx_hal_rcc.o(i.HAL_RCC_GetPCLK1Freq)
    HAL_RCC_GetPCLK2Freq                     0x08001be1   Thumb Code    20  stm32f1xx_hal_rcc.o(i.HAL_RCC_GetPCLK2Freq)
    HAL_RCC_GetSysClockFreq                  0x08001c01   Thumb Code    74  stm32f1xx_hal_rcc.o(i.HAL_RCC_GetSysClockFreq)
    HAL_RCC_OscConfig                        0x08001c6d   Thumb Code   778  stm32f1xx_hal_rcc.o(i.HAL_RCC_OscConfig)
    HAL_SYSTICK_CLKSourceConfig              0x08001f8d   Thumb Code    24  stm32f1xx_hal_cortex.o(i.HAL_SYSTICK_CLKSourceConfig)
    HAL_SYSTICK_Config                       0x08001fa5   Thumb Code    40  stm32f1xx_hal_cortex.o(i.HAL_SYSTICK_Config)
    HAL_TIMEx_MasterConfigSynchronization    0x08001fcd   Thumb Code    66  stm32f1xx_hal_tim_ex.o(i.HAL_TIMEx_MasterConfigSynchronization)
    HAL_TIM_Base_Init                        0x0800200f   Thumb Code    54  stm32f1xx_hal_tim.o(i.HAL_TIM_Base_Init)
    HAL_TIM_Base_MspInit                     0x08002045   Thumb Code    74  stm32f1xx_hal_msp.o(i.HAL_TIM_Base_MspInit)
    HAL_TIM_ConfigClockSource                0x0800209d   Thumb Code   214  stm32f1xx_hal_tim.o(i.HAL_TIM_ConfigClockSource)
    HAL_TIM_GenerateEvent                    0x08002173   Thumb Code    38  stm32f1xx_hal_tim.o(i.HAL_TIM_GenerateEvent)
    HAL_TIM_MspPostInit                      0x08002199   Thumb Code   220  stm32f1xx_hal_msp.o(i.HAL_TIM_MspPostInit)
    HAL_TIM_PWM_ConfigChannel                0x0800228d   Thumb Code   208  stm32f1xx_hal_tim.o(i.HAL_TIM_PWM_ConfigChannel)
    HAL_TIM_PWM_Init                         0x0800235d   Thumb Code    54  stm32f1xx_hal_tim.o(i.HAL_TIM_PWM_Init)
    HAL_TIM_PWM_MspInit                      0x08002393   Thumb Code     2  stm32f1xx_hal_tim.o(i.HAL_TIM_PWM_MspInit)
    HAL_TIM_PWM_Start                        0x08002395   Thumb Code    58  stm32f1xx_hal_tim.o(i.HAL_TIM_PWM_Start)
    HAL_TIM_PWM_Stop                         0x080023d9   Thumb Code    84  stm32f1xx_hal_tim.o(i.HAL_TIM_PWM_Stop)
    HAL_UART_ErrorCallback                   0x08002435   Thumb Code    18  drv_usart.o(i.HAL_UART_ErrorCallback)
    HAL_UART_IRQHandler                      0x0800245d   Thumb Code   266  stm32f1xx_hal_uart.o(i.HAL_UART_IRQHandler)
    HAL_UART_Init                            0x0800256d   Thumb Code    98  stm32f1xx_hal_uart.o(i.HAL_UART_Init)
    HAL_UART_MspInit                         0x080025d1   Thumb Code   156  stm32f1xx_hal_msp.o(i.HAL_UART_MspInit)
    HAL_UART_Receive_DMA                     0x0800267d   Thumb Code   138  stm32f1xx_hal_uart.o(i.HAL_UART_Receive_DMA)
    HAL_UART_RxCpltCallback                  0x08002715   Thumb Code    30  drv_usart.o(i.HAL_UART_RxCpltCallback)
    HAL_UART_RxHalfCpltCallback              0x08002749   Thumb Code    30  drv_usart.o(i.HAL_UART_RxHalfCpltCallback)
    HAL_UART_Transmit_DMA                    0x0800277d   Thumb Code   114  stm32f1xx_hal_uart.o(i.HAL_UART_Transmit_DMA)
    HAL_UART_TxCpltCallback                  0x080027fd   Thumb Code    32  drv_usart.o(i.HAL_UART_TxCpltCallback)
    HAL_UART_TxHalfCpltCallback              0x08002831   Thumb Code     2  stm32f1xx_hal_uart.o(i.HAL_UART_TxHalfCpltCallback)
    Module_BlueToothHC06_Config              0x08002c1d   Thumb Code    68  module_bluetoothhc06.o(i.Module_BlueToothHC06_Config)
    Module_Led_Config                        0x08002d61   Thumb Code    44  module_led.o(i.Module_Led_Config)
    Module_Oled_Config                       0x08002ecd   Thumb Code    84  module_oled.o(i.Module_Oled_Config)
    Module_Steering_Config                   0x08003065   Thumb Code    60  module_steering.o(i.Module_Steering_Config)
    SysTick_Handler                          0x08003127   Thumb Code    22  drv_common.o(i.SysTick_Handler)
    SystemClock_Config                       0x0800313d   Thumb Code   102  board.o(i.SystemClock_Config)
    SystemInit                               0x080031b5   Thumb Code    56  system_stm32f1xx.o(i.SystemInit)
    TIM_Base_SetConfig                       0x080031fd   Thumb Code   120  stm32f1xx_hal_tim.o(i.TIM_Base_SetConfig)
    TIM_CCxChannelCmd                        0x08003289   Thumb Code    26  stm32f1xx_hal_tim.o(i.TIM_CCxChannelCmd)
    TIM_ETR_SetConfig                        0x080032a3   Thumb Code    20  stm32f1xx_hal_tim.o(i.TIM_ETR_SetConfig)
    TIM_OC2_SetConfig                        0x08003329   Thumb Code    98  stm32f1xx_hal_tim.o(i.TIM_OC2_SetConfig)
    USART1_IRQHandler                        0x0800374d   Thumb Code    20  drv_usart.o(i.USART1_IRQHandler)
    USART2_IRQHandler                        0x08003765   Thumb Code    20  drv_usart.o(i.USART2_IRQHandler)
    XSpider_eye                              0x08003bf1   Thumb Code    94  main.o(i.XSpider_eye)
    XSpider_joint                            0x08003c85   Thumb Code   374  main.o(i.XSpider_joint)
    _Error_Handler                           0x08003e89   Thumb Code     2  drv_common.o(i._Error_Handler)
    cmd_free                                 0x080045fd   Thumb Code    10  msh.o(i.cmd_free)
    cmd_ps                                   0x08004607   Thumb Code    10  msh.o(i.cmd_ps)
    finsh_get_prompt                         0x0800485d   Thumb Code    66  shell.o(i.finsh_get_prompt)
    finsh_set_device                         0x080048f5   Thumb Code   132  shell.o(i.finsh_set_device)
    finsh_set_prompt_mode                    0x080049b9   Thumb Code    34  shell.o(i.finsh_set_prompt_mode)
    finsh_system_function_init               0x080049f9   Thumb Code     8  shell.o(i.finsh_system_function_init)
    finsh_system_init                        0x08004a05   Thumb Code    92  shell.o(i.finsh_system_init)
    finsh_thread_entry                       0x08004a99   Thumb Code   818  shell.o(i.finsh_thread_entry)
    hello                                    0x08004ea1   Thumb Code    12  cmd.o(i.hello)
    list                                     0x0800549d   Thumb Code    50  cmd.o(i.list)
    list_device                              0x08005501   Thumb Code   152  cmd.o(i.list_device)
    list_event                               0x08005605   Thumb Code   184  cmd.o(i.list_event)
    list_mailbox                             0x080057c1   Thumb Code   200  cmd.o(i.list_mailbox)
    list_mem                                 0x08005905   Thumb Code    32  mem.o(i.list_mem)
    list_mempool                             0x08005971   Thumb Code   200  cmd.o(i.list_mempool)
    list_msgqueue                            0x08005ac5   Thumb Code   188  cmd.o(i.list_msgqueue)
    list_mutex                               0x08005bed   Thumb Code   146  cmd.o(i.list_mutex)
    list_sem                                 0x08005ce5   Thumb Code   188  cmd.o(i.list_sem)
    list_thread                              0x08005e01   Thumb Code   250  cmd.o(i.list_thread)
    list_timer                               0x08005fb9   Thumb Code   160  cmd.o(i.list_timer)
    $Super$$main                             0x080060f9   Thumb Code    20  main.o(i.main)
    main_thread_entry                        0x08006111   Thumb Code    14  components.o(i.main_thread_entry)
    msh_auto_complete                        0x080061f9   Thumb Code   150  msh.o(i.msh_auto_complete)
    msh_exec                                 0x080062a5   Thumb Code    74  msh.o(i.msh_exec)
    msh_help                                 0x08006309   Thumb Code    58  msh.o(i.msh_help)
    msh_is_used                              0x08006381   Thumb Code     4  msh.o(i.msh_is_used)
    rt_application_init                      0x080067cd   Thumb Code    48  components.o(i.rt_application_init)
    rt_assert_handler                        0x0800681d   Thumb Code    46  kservice.o(i.rt_assert_handler)
    rt_calloc                                0x08006889   Thumb Code    26  mem.o(i.rt_calloc)
    rt_completion_done                       0x080068a5   Thumb Code    70  completion.o(i.rt_completion_done)
    rt_completion_init                       0x08006909   Thumb Code    36  completion.o(i.rt_completion_init)
    rt_completion_wait                       0x08006949   Thumb Code   190  completion.o(i.rt_completion_wait)
    rt_components_board_init                 0x08006a81   Thumb Code    20  components.o(i.rt_components_board_init)
    rt_components_init                       0x08006a9d   Thumb Code    20  components.o(i.rt_components_init)
    rt_console_get_device                    0x08006ab9   Thumb Code     6  kservice.o(i.rt_console_get_device)
    rt_console_set_device                    0x08006ac5   Thumb Code    36  kservice.o(i.rt_console_set_device)
    rt_data_queue_deinit                     0x08006aed   Thumb Code    70  dataqueue.o(i.rt_data_queue_deinit)
    rt_data_queue_init                       0x08006b71   Thumb Code    76  dataqueue.o(i.rt_data_queue_init)
    rt_data_queue_peak                       0x08006bd9   Thumb Code   110  dataqueue.o(i.rt_data_queue_peak)
    rt_data_queue_pop                        0x08006c85   Thumb Code   350  dataqueue.o(i.rt_data_queue_pop)
    rt_data_queue_push                       0x08006e71   Thumb Code   292  dataqueue.o(i.rt_data_queue_push)
    rt_data_queue_reset                      0x08006ffd   Thumb Code   114  dataqueue.o(i.rt_data_queue_reset)
    rt_device_close                          0x08007099   Thumb Code    92  device.o(i.rt_device_close)
    rt_device_control                        0x08007145   Thumb Code    66  device.o(i.rt_device_control)
    rt_device_find                           0x080071d9   Thumb Code    96  device.o(i.rt_device_find)
    rt_device_open                           0x08007255   Thumb Code   162  device.o(i.rt_device_open)
    rt_device_pin_register                   0x08007395   Thumb Code    52  pin.o(i.rt_device_pin_register)
    rt_device_pwm_register                   0x080073d9   Thumb Code    60  rt_drv_pwm.o(i.rt_device_pwm_register)
    rt_device_read                           0x08007421   Thumb Code    96  device.o(i.rt_device_read)
    rt_device_register                       0x080074d1   Thumb Code    50  device.o(i.rt_device_register)
    rt_device_set_rx_indicate                0x08007505   Thumb Code    48  device.o(i.rt_device_set_rx_indicate)
    rt_device_write                          0x08007585   Thumb Code    96  device.o(i.rt_device_write)
    rt_enter_critical                        0x08007785   Thumb Code    22  scheduler.o(i.rt_enter_critical)
    rt_exit_critical                         0x080077a1   Thumb Code    52  scheduler.o(i.rt_exit_critical)
    rt_free                                  0x080077d9   Thumb Code   230  mem.o(i.rt_free)
    rt_hw_board_init                         0x080079a1   Thumb Code    56  drv_common.o(i.rt_hw_board_init)
    rt_hw_console_output                     0x080079e9   Thumb Code     2  kservice.o(i.rt_hw_console_output)
    rt_hw_cpu_reset                          0x080079ed   Thumb Code     8  cpuport.o(i.rt_hw_cpu_reset)
    rt_hw_hard_fault_exception               0x080079fd   Thumb Code   186  cpuport.o(i.rt_hw_hard_fault_exception)
    rt_hw_i2c_init                           0x08007bf9   Thumb Code   178  drv_soft_i2c.o(i.rt_hw_i2c_init)
    rt_hw_pin_init                           0x08007cc9   Thumb Code   128  drv_gpio.o(i.rt_hw_pin_init)
    rt_hw_serial_isr                         0x08007d55   Thumb Code   364  serial.o(i.rt_hw_serial_isr)
    rt_hw_serial_register                    0x08007f19   Thumb Code    74  serial.o(i.rt_hw_serial_register)
    rt_hw_stack_init                         0x08007f95   Thumb Code    52  cpuport.o(i.rt_hw_stack_init)
    rt_hw_systick_init                       0x08007fcd   Thumb Code    38  drv_common.o(i.rt_hw_systick_init)
    rt_hw_usart_init                         0x08007ff5   Thumb Code   132  drv_usart.o(i.rt_hw_usart_init)
    rt_i2c_bit_add_bus                       0x08008099   Thumb Code     8  i2c-bit-ops.o(i.rt_i2c_bit_add_bus)
    rt_i2c_bus_device_device_init            0x080080a5   Thumb Code    58  i2c_dev.o(i.rt_i2c_bus_device_device_init)
    rt_i2c_bus_device_register               0x08008101   Thumb Code    60  i2c_core.o(i.rt_i2c_bus_device_register)
    rt_i2c_core_init                         0x0800817d   Thumb Code     4  i2c_core.o(i.rt_i2c_core_init)
    rt_i2c_master_recv                       0x08008181   Thumb Code    66  i2c_core.o(i.rt_i2c_master_recv)
    rt_i2c_master_send                       0x080081d9   Thumb Code    34  i2c_core.o(i.rt_i2c_master_send)
    rt_i2c_transfer                          0x080081fd   Thumb Code    78  i2c_core.o(i.rt_i2c_transfer)
    rt_interrupt_enter                       0x08008285   Thumb Code    32  irq.o(i.rt_interrupt_enter)
    rt_interrupt_get_nest                    0x080082a9   Thumb Code    18  irq.o(i.rt_interrupt_get_nest)
    rt_interrupt_leave                       0x080082c1   Thumb Code    32  irq.o(i.rt_interrupt_leave)
    rt_kprintf                               0x08008375   Thumb Code    64  kservice.o(i.rt_kprintf)
    rt_malloc                                0x08008439   Thumb Code   354  mem.o(i.rt_malloc)
    rt_memcpy                                0x08008635   Thumb Code    74  kservice.o(i.rt_memcpy)
    rt_memmove                               0x08008681   Thumb Code    50  kservice.o(i.rt_memmove)
    rt_memset                                0x080086b5   Thumb Code    70  kservice.o(i.rt_memset)
    rt_mutex_init                            0x080086fd   Thumb Code    58  ipc.o(i.rt_mutex_init)
    rt_mutex_release                         0x08008751   Thumb Code   264  ipc.o(i.rt_mutex_release)
    rt_mutex_take                            0x080088dd   Thumb Code   304  ipc.o(i.rt_mutex_take)
    rt_object_allocate                       0x08008a95   Thumb Code   144  object.o(i.rt_object_allocate)
    rt_object_delete                         0x08008b71   Thumb Code    80  object.o(i.rt_object_delete)
    rt_object_detach                         0x08008c09   Thumb Code    56  object.o(i.rt_object_detach)
    rt_object_get_information                0x08008c5d   Thumb Code    30  object.o(i.rt_object_get_information)
    rt_object_get_type                       0x08008c81   Thumb Code    26  object.o(i.rt_object_get_type)
    rt_object_init                           0x08008cb5   Thumb Code   130  object.o(i.rt_object_init)
    rt_object_is_systemobject                0x08008d69   Thumb Code    32  object.o(i.rt_object_is_systemobject)
    rt_pin_mode                              0x08008da1   Thumb Code    38  pin.o(i.rt_pin_mode)
    rt_pin_read                              0x08008de9   Thumb Code    34  pin.o(i.rt_pin_read)
    rt_pin_write                             0x08008e2d   Thumb Code    38  pin.o(i.rt_pin_write)
    rt_pwm_disable                           0x08008e75   Thumb Code    30  rt_drv_pwm.o(i.rt_pwm_disable)
    rt_pwm_enable                            0x08008e93   Thumb Code    30  rt_drv_pwm.o(i.rt_pwm_enable)
    rt_pwm_set                               0x08008eb1   Thumb Code    32  rt_drv_pwm.o(i.rt_pwm_set)
    rt_schedule                              0x08008ed1   Thumb Code   194  scheduler.o(i.rt_schedule)
    rt_schedule_insert_thread                0x08008f9d   Thumb Code   104  scheduler.o(i.rt_schedule_insert_thread)
    rt_schedule_remove_thread                0x08009025   Thumb Code    78  scheduler.o(i.rt_schedule_remove_thread)
    rt_sem_control                           0x08009095   Thumb Code    84  ipc.o(i.rt_sem_control)
    rt_sem_init                              0x08009101   Thumb Code    68  ipc.o(i.rt_sem_init)
    rt_sem_release                           0x0800916d   Thumb Code    98  ipc.o(i.rt_sem_release)
    rt_sem_take                              0x080091ed   Thumb Code   248  ipc.o(i.rt_sem_take)
    rt_set_errno                             0x080099d5   Thumb Code    26  kservice.o(i.rt_set_errno)
    rt_show_version                          0x080099f5   Thumb Code    40  kservice.o(i.rt_show_version)
    rt_sprintf                               0x08009aa5   Thumb Code    18  kservice.o(i.rt_sprintf)
    rt_strlen                                0x08009ab7   Thumb Code    16  kservice.o(i.rt_strlen)
    rt_strncmp                               0x08009ac7   Thumb Code    32  kservice.o(i.rt_strncmp)
    rt_strncpy                               0x08009ae7   Thumb Code    38  kservice.o(i.rt_strncpy)
    rt_system_heap_init                      0x08009b0d   Thumb Code   140  mem.o(i.rt_system_heap_init)
    rt_system_scheduler_init                 0x08009c15   Thumb Code    38  scheduler.o(i.rt_system_scheduler_init)
    rt_system_scheduler_start                0x08009c45   Thumb Code    36  scheduler.o(i.rt_system_scheduler_start)
    rt_system_timer_init                     0x08009c6d   Thumb Code     8  timer.o(i.rt_system_timer_init)
    rt_system_timer_thread_init              0x08009c79   Thumb Code     2  timer.o(i.rt_system_timer_thread_init)
    rt_thread_control                        0x08009c7d   Thumb Code   142  thread.o(i.rt_thread_control)
    rt_thread_create                         0x08009d29   Thumb Code    72  thread.o(i.rt_thread_create)
    rt_thread_delay                          0x08009d71   Thumb Code     4  thread.o(i.rt_thread_delay)
    rt_thread_delete                         0x08009d75   Thumb Code   122  thread.o(i.rt_thread_delete)
    rt_thread_exit                           0x08009e4d   Thumb Code    78  thread.o(i.rt_thread_exit)
    rt_thread_idle_excute                    0x08009ec1   Thumb Code   150  idle.o(i.rt_thread_idle_excute)
    rt_thread_idle_init                      0x08009f8d   Thumb Code    52  idle.o(i.rt_thread_idle_init)
    rt_thread_init                           0x08009fd1   Thumb Code    80  thread.o(i.rt_thread_init)
    rt_thread_mdelay                         0x0800a051   Thumb Code    14  thread.o(i.rt_thread_mdelay)
    rt_thread_resume                         0x0800a061   Thumb Code   106  thread.o(i.rt_thread_resume)
    rt_thread_self                           0x0800a0ed   Thumb Code     6  thread.o(i.rt_thread_self)
    rt_thread_sleep                          0x0800a0f9   Thumb Code    96  thread.o(i.rt_thread_sleep)
    rt_thread_startup                        0x0800a179   Thumb Code   100  thread.o(i.rt_thread_startup)
    rt_thread_suspend                        0x0800a235   Thumb Code   140  thread.o(i.rt_thread_suspend)
    rt_thread_timeout                        0x0800a301   Thumb Code    92  thread.o(i.rt_thread_timeout)
    rt_thread_yield                          0x0800a3b5   Thumb Code    10  thread.o(i.rt_thread_yield)
    rt_tick_from_millisecond                 0x0800a3bf   Thumb Code    50  clock.o(i.rt_tick_from_millisecond)
    rt_tick_get                              0x0800a3f1   Thumb Code     6  clock.o(i.rt_tick_get)
    rt_tick_increase                         0x0800a3fd   Thumb Code    48  clock.o(i.rt_tick_increase)
    rt_timer_check                           0x0800a431   Thumb Code   118  timer.o(i.rt_timer_check)
    rt_timer_control                         0x0800a4ad   Thumb Code   100  timer.o(i.rt_timer_control)
    rt_timer_detach                          0x0800a565   Thumb Code    82  timer.o(i.rt_timer_detach)
    rt_timer_init                            0x0800a639   Thumb Code    56  timer.o(i.rt_timer_init)
    rt_timer_start                           0x0800a689   Thumb Code   202  timer.o(i.rt_timer_start)
    rt_timer_stop                            0x0800a7d5   Thumb Code    92  timer.o(i.rt_timer_stop)
    rt_vsnprintf                             0x0800a889   Thumb Code   626  kservice.o(i.rt_vsnprintf)
    rt_vsprintf                              0x0800ab05   Thumb Code    12  kservice.o(i.rt_vsprintf)
    rtthread_startup                         0x0800ab21   Thumb Code    42  components.o(i.rtthread_startup)
    version                                  0x0800b829   Thumb Code    10  cmd.o(i.version)
    _get_lc_ctype                            0x0800b835   Thumb Code    44  lc_ctype_c.o(locale$$code)
    __aeabi_dadd                             0x0800b861   Thumb Code     0  daddsub_clz.o(x$fpl$dadd)
    _dadd                                    0x0800b861   Thumb Code   332  daddsub_clz.o(x$fpl$dadd)
    __aeabi_ddiv                             0x0800b9b1   Thumb Code     0  ddiv.o(x$fpl$ddiv)
    _ddiv                                    0x0800b9b1   Thumb Code   552  ddiv.o(x$fpl$ddiv)
    __aeabi_d2uiz                            0x0800bc61   Thumb Code     0  dfixu.o(x$fpl$dfixu)
    _dfixu                                   0x0800bc61   Thumb Code    90  dfixu.o(x$fpl$dfixu)
    __aeabi_i2d                              0x0800bcbb   Thumb Code     0  dflt_clz.o(x$fpl$dflt)
    _dflt                                    0x0800bcbb   Thumb Code    46  dflt_clz.o(x$fpl$dflt)
    __aeabi_ui2d                             0x0800bce9   Thumb Code     0  dflt_clz.o(x$fpl$dfltu)
    _dfltu                                   0x0800bce9   Thumb Code    38  dflt_clz.o(x$fpl$dfltu)
    __aeabi_dmul                             0x0800bd11   Thumb Code     0  dmul.o(x$fpl$dmul)
    _dmul                                    0x0800bd11   Thumb Code   332  dmul.o(x$fpl$dmul)
    __fpl_dnaninf                            0x0800be65   Thumb Code   156  dnaninf.o(x$fpl$dnaninf)
    __fpl_dretinf                            0x0800bf01   Thumb Code    12  dretinf.o(x$fpl$dretinf)
    __aeabi_dsub                             0x0800bf0d   Thumb Code     0  daddsub_clz.o(x$fpl$dsub)
    _dsub                                    0x0800bf0d   Thumb Code   464  daddsub_clz.o(x$fpl$dsub)
    __I$use$fp                               0x0800c0e0   Number         0  usenofp.o(x$fpl$usenofp)
    AHBPrescTable                            0x0800d36c   Data          16  system_stm32f1xx.o(.constdata)
    APBPrescTable                            0x0800d37c   Data           8  system_stm32f1xx.o(.constdata)
    __fsym___cmd_XSpider_eye_name            0x0800d752   Data          18  main.o(.rodata.name)
    __fsym___cmd_XSpider_eye_desc            0x0800d764   Data          40  main.o(.rodata.name)
    __fsym___cmd_XSpider_joint_name          0x0800d78c   Data          20  main.o(.rodata.name)
    __fsym___cmd_XSpider_joint_desc          0x0800d7a0   Data          30  main.o(.rodata.name)
    __fsym_pinMode_name                      0x0800d7be   Data           8  pin.o(.rodata.name)
    __fsym_pinMode_desc                      0x0800d7c6   Data          22  pin.o(.rodata.name)
    __fsym_pinWrite_name                     0x0800d7dc   Data           9  pin.o(.rodata.name)
    __fsym_pinWrite_desc                     0x0800d7e5   Data          28  pin.o(.rodata.name)
    __fsym_pinRead_name                      0x0800d801   Data           8  pin.o(.rodata.name)
    __fsym_pinRead_desc                      0x0800d809   Data          30  pin.o(.rodata.name)
    __fsym_pwm_enable_name                   0x0800d827   Data          11  rt_drv_pwm.o(.rodata.name)
    __fsym_pwm_enable_desc                   0x0800d832   Data          23  rt_drv_pwm.o(.rodata.name)
    __fsym_pwm_set_name                      0x0800d849   Data           8  rt_drv_pwm.o(.rodata.name)
    __fsym_pwm_set_desc                      0x0800d851   Data           9  rt_drv_pwm.o(.rodata.name)
    __fsym___cmd_pwm_enable_name             0x0800d85a   Data          17  rt_drv_pwm.o(.rodata.name)
    __fsym___cmd_pwm_enable_desc             0x0800d86b   Data          18  rt_drv_pwm.o(.rodata.name)
    __fsym___cmd_pwm_disable_name            0x0800d87d   Data          18  rt_drv_pwm.o(.rodata.name)
    __fsym___cmd_pwm_disable_desc            0x0800d88f   Data          19  rt_drv_pwm.o(.rodata.name)
    __fsym___cmd_pwm_set_name                0x0800d8a2   Data          14  rt_drv_pwm.o(.rodata.name)
    __fsym___cmd_pwm_set_desc                0x0800d8b0   Data          22  rt_drv_pwm.o(.rodata.name)
    __fsym___cmd_reboot_name                 0x0800d8c6   Data          13  drv_common.o(.rodata.name)
    __fsym___cmd_reboot_desc                 0x0800d8d3   Data          14  drv_common.o(.rodata.name)
    __fsym_hello_name                        0x0800d8e1   Data           6  cmd.o(.rodata.name)
    __fsym_hello_desc                        0x0800d8e7   Data          16  cmd.o(.rodata.name)
    __fsym_clear_name                        0x0800d8f7   Data           6  cmd.o(.rodata.name)
    __fsym_clear_desc                        0x0800d8fd   Data          26  cmd.o(.rodata.name)
    __fsym___cmd_clear_name                  0x0800d917   Data          12  cmd.o(.rodata.name)
    __fsym___cmd_clear_desc                  0x0800d923   Data          26  cmd.o(.rodata.name)
    __fsym_version_name                      0x0800d93d   Data           8  cmd.o(.rodata.name)
    __fsym_version_desc                      0x0800d945   Data          35  cmd.o(.rodata.name)
    __fsym___cmd_version_name                0x0800d968   Data          14  cmd.o(.rodata.name)
    __fsym___cmd_version_desc                0x0800d976   Data          35  cmd.o(.rodata.name)
    __fsym_list_thread_name                  0x0800d999   Data          12  cmd.o(.rodata.name)
    __fsym_list_thread_desc                  0x0800d9a5   Data          12  cmd.o(.rodata.name)
    __fsym___cmd_list_thread_name            0x0800d9b1   Data          18  cmd.o(.rodata.name)
    __fsym___cmd_list_thread_desc            0x0800d9c3   Data          12  cmd.o(.rodata.name)
    __fsym_list_sem_name                     0x0800d9cf   Data           9  cmd.o(.rodata.name)
    __fsym_list_sem_desc                     0x0800d9d8   Data          25  cmd.o(.rodata.name)
    __fsym___cmd_list_sem_name               0x0800d9f1   Data          15  cmd.o(.rodata.name)
    __fsym___cmd_list_sem_desc               0x0800da00   Data          25  cmd.o(.rodata.name)
    __fsym_list_event_name                   0x0800da19   Data          11  cmd.o(.rodata.name)
    __fsym_list_event_desc                   0x0800da24   Data          21  cmd.o(.rodata.name)
    __fsym___cmd_list_event_name             0x0800da39   Data          17  cmd.o(.rodata.name)
    __fsym___cmd_list_event_desc             0x0800da4a   Data          21  cmd.o(.rodata.name)
    __fsym_list_mutex_name                   0x0800da5f   Data          11  cmd.o(.rodata.name)
    __fsym_list_mutex_desc                   0x0800da6a   Data          21  cmd.o(.rodata.name)
    __fsym___cmd_list_mutex_name             0x0800da7f   Data          17  cmd.o(.rodata.name)
    __fsym___cmd_list_mutex_desc             0x0800da90   Data          21  cmd.o(.rodata.name)
    __fsym_list_mailbox_name                 0x0800daa5   Data          13  cmd.o(.rodata.name)
    __fsym_list_mailbox_desc                 0x0800dab2   Data          24  cmd.o(.rodata.name)
    __fsym___cmd_list_mailbox_name           0x0800daca   Data          19  cmd.o(.rodata.name)
    __fsym___cmd_list_mailbox_desc           0x0800dadd   Data          24  cmd.o(.rodata.name)
    __fsym_list_msgqueue_name                0x0800daf5   Data          14  cmd.o(.rodata.name)
    __fsym_list_msgqueue_desc                0x0800db03   Data          29  cmd.o(.rodata.name)
    __fsym___cmd_list_msgqueue_name          0x0800db20   Data          20  cmd.o(.rodata.name)
    __fsym___cmd_list_msgqueue_desc          0x0800db34   Data          29  cmd.o(.rodata.name)
    __fsym_list_mempool_name                 0x0800db51   Data          13  cmd.o(.rodata.name)
    __fsym_list_mempool_desc                 0x0800db5e   Data          27  cmd.o(.rodata.name)
    __fsym___cmd_list_mempool_name           0x0800db79   Data          19  cmd.o(.rodata.name)
    __fsym___cmd_list_mempool_desc           0x0800db8c   Data          27  cmd.o(.rodata.name)
    __fsym_list_timer_name                   0x0800dba7   Data          11  cmd.o(.rodata.name)
    __fsym_list_timer_desc                   0x0800dbb2   Data          21  cmd.o(.rodata.name)
    __fsym___cmd_list_timer_name             0x0800dbc7   Data          17  cmd.o(.rodata.name)
    __fsym___cmd_list_timer_desc             0x0800dbd8   Data          21  cmd.o(.rodata.name)
    __fsym_list_device_name                  0x0800dbed   Data          12  cmd.o(.rodata.name)
    __fsym_list_device_desc                  0x0800dbf9   Data          22  cmd.o(.rodata.name)
    __fsym___cmd_list_device_name            0x0800dc0f   Data          18  cmd.o(.rodata.name)
    __fsym___cmd_list_device_desc            0x0800dc21   Data          22  cmd.o(.rodata.name)
    __fsym_list_name                         0x0800dc37   Data           5  cmd.o(.rodata.name)
    __fsym_list_desc                         0x0800dc3c   Data          26  cmd.o(.rodata.name)
    __fsym___cmd_help_name                   0x0800dc56   Data          11  msh.o(.rodata.name)
    __fsym___cmd_help_desc                   0x0800dc61   Data          22  msh.o(.rodata.name)
    __fsym___cmd_ps_name                     0x0800dc77   Data           9  msh.o(.rodata.name)
    __fsym___cmd_ps_desc                     0x0800dc80   Data          28  msh.o(.rodata.name)
    __fsym___cmd_free_name                   0x0800dc9c   Data          11  msh.o(.rodata.name)
    __fsym___cmd_free_desc                   0x0800dca7   Data          37  msh.o(.rodata.name)
    __fsym_list_mem_name                     0x0800dccc   Data           9  mem.o(.rodata.name)
    __fsym_list_mem_desc                     0x0800dcd5   Data          30  mem.o(.rodata.name)
    __rt_init_rti_start                      0x0800dcf4   Data           4  components.o(.rti_fn.0)
    __rt_init_rti_board_start                0x0800dcf8   Data           4  components.o(.rti_fn.0.end)
    __rt_init_rt_hw_i2c_init                 0x0800dcfc   Data           4  drv_soft_i2c.o(.rti_fn.1)
    __rt_init_rti_board_end                  0x0800dd00   Data           4  components.o(.rti_fn.1.end)
    __rt_init_stm32_pwm_init                 0x0800dd04   Data           4  drv_pwm.o(.rti_fn.3)
    __rt_init_rt_i2c_core_init               0x0800dd08   Data           4  i2c_core.o(.rti_fn.4)
    __rt_init_finsh_system_init              0x0800dd0c   Data           4  shell.o(.rti_fn.6)
    __rt_init_rti_end                        0x0800dd10   Data           4  components.o(.rti_fn.6.end)
    FSymTab$$Base                            0x0800dd14   Number         0  main.o(FSymTab)
    __fsym___cmd_XSpider_eye                 0x0800dd14   Data          12  main.o(FSymTab)
    __fsym___cmd_XSpider_joint               0x0800dd20   Data          12  main.o(FSymTab)
    __fsym_pinMode                           0x0800dd2c   Data          12  pin.o(FSymTab)
    __fsym_pinWrite                          0x0800dd38   Data          12  pin.o(FSymTab)
    __fsym_pinRead                           0x0800dd44   Data          12  pin.o(FSymTab)
    __fsym_pwm_enable                        0x0800dd50   Data          12  rt_drv_pwm.o(FSymTab)
    __fsym_pwm_set                           0x0800dd5c   Data          12  rt_drv_pwm.o(FSymTab)
    __fsym___cmd_pwm_enable                  0x0800dd68   Data          12  rt_drv_pwm.o(FSymTab)
    __fsym___cmd_pwm_disable                 0x0800dd74   Data          12  rt_drv_pwm.o(FSymTab)
    __fsym___cmd_pwm_set                     0x0800dd80   Data          12  rt_drv_pwm.o(FSymTab)
    __fsym___cmd_reboot                      0x0800dd8c   Data          12  drv_common.o(FSymTab)
    __fsym_hello                             0x0800dd98   Data          12  cmd.o(FSymTab)
    __fsym_clear                             0x0800dda4   Data          12  cmd.o(FSymTab)
    __fsym___cmd_clear                       0x0800ddb0   Data          12  cmd.o(FSymTab)
    __fsym_version                           0x0800ddbc   Data          12  cmd.o(FSymTab)
    __fsym___cmd_version                     0x0800ddc8   Data          12  cmd.o(FSymTab)
    __fsym_list_thread                       0x0800ddd4   Data          12  cmd.o(FSymTab)
    __fsym___cmd_list_thread                 0x0800dde0   Data          12  cmd.o(FSymTab)
    __fsym_list_sem                          0x0800ddec   Data          12  cmd.o(FSymTab)
    __fsym___cmd_list_sem                    0x0800ddf8   Data          12  cmd.o(FSymTab)
    __fsym_list_event                        0x0800de04   Data          12  cmd.o(FSymTab)
    __fsym___cmd_list_event                  0x0800de10   Data          12  cmd.o(FSymTab)
    __fsym_list_mutex                        0x0800de1c   Data          12  cmd.o(FSymTab)
    __fsym___cmd_list_mutex                  0x0800de28   Data          12  cmd.o(FSymTab)
    __fsym_list_mailbox                      0x0800de34   Data          12  cmd.o(FSymTab)
    __fsym___cmd_list_mailbox                0x0800de40   Data          12  cmd.o(FSymTab)
    __fsym_list_msgqueue                     0x0800de4c   Data          12  cmd.o(FSymTab)
    __fsym___cmd_list_msgqueue               0x0800de58   Data          12  cmd.o(FSymTab)
    __fsym_list_mempool                      0x0800de64   Data          12  cmd.o(FSymTab)
    __fsym___cmd_list_mempool                0x0800de70   Data          12  cmd.o(FSymTab)
    __fsym_list_timer                        0x0800de7c   Data          12  cmd.o(FSymTab)
    __fsym___cmd_list_timer                  0x0800de88   Data          12  cmd.o(FSymTab)
    __fsym_list_device                       0x0800de94   Data          12  cmd.o(FSymTab)
    __fsym___cmd_list_device                 0x0800dea0   Data          12  cmd.o(FSymTab)
    __fsym_list                              0x0800deac   Data          12  cmd.o(FSymTab)
    __fsym___cmd_help                        0x0800deb8   Data          12  msh.o(FSymTab)
    __fsym___cmd_ps                          0x0800dec4   Data          12  msh.o(FSymTab)
    __fsym___cmd_free                        0x0800ded0   Data          12  msh.o(FSymTab)
    __fsym_list_mem                          0x0800dedc   Data          12  mem.o(FSymTab)
    FSymTab$$Limit                           0x0800dee8   Number         0  mem.o(FSymTab)
    Region$$Table$$Base                      0x0800dee8   Number         0  anon$$obj.o(Region$$Table)
    Region$$Table$$Limit                     0x0800df08   Number         0  anon$$obj.o(Region$$Table)
    __ctype                                  0x0800df15   Data           0  lc_ctype_c.o(locale$$data)
    rt_interrupt_from_thread                 0x200005f8   Data           4  cpuport.o(.data)
    rt_interrupt_to_thread                   0x200005fc   Data           4  cpuport.o(.data)
    rt_thread_switch_interrupt_flag          0x20000600   Data           4  cpuport.o(.data)
    _syscall_table_begin                     0x200008a8   Data           4  shell.o(.data)
    _syscall_table_end                       0x200008ac   Data           4  shell.o(.data)
    _sysvar_table_begin                      0x200008b0   Data           4  shell.o(.data)
    _sysvar_table_end                        0x200008b4   Data           4  shell.o(.data)
    shell                                    0x200008bc   Data           4  shell.o(.data)
    rt_interrupt_nest                        0x200008c4   Data           1  irq.o(.data)
    rt_assert_hook                           0x200008d8   Data           4  kservice.o(.data)
    rt_object_trytake_hook                   0x20000904   Data           4  object.o(.data)
    rt_object_take_hook                      0x20000908   Data           4  object.o(.data)
    rt_object_put_hook                       0x2000090c   Data           4  object.o(.data)
    rt_current_priority                      0x200009a0   Data           1  scheduler.o(.data)
    rt_thread_ready_priority_group           0x200009a4   Data           4  scheduler.o(.data)
    rt_current_thread                        0x200009a8   Data           4  scheduler.o(.data)
    rt_thread_defunct                        0x200009b0   Data           8  scheduler.o(.data)
    SystemCoreClock                          0x200009d8   Data           4  system_stm32f1xx.o(.data)
    uwTickFreq                               0x200009dc   Data           1  stm32f1xx_hal.o(.data)
    uwTickPrio                               0x200009e0   Data           4  stm32f1xx_hal.o(.data)
    uwTick                                   0x200009e4   Data           4  stm32f1xx_hal.o(.data)
    app_XSpider                              0x200009e8   Data        1144  main.o(.bss)
    rt_thread_priority_table                 0x20001460   Data         256  scheduler.o(.bss)
    __libspace_start                         0x20001560   Data          96  libspace.o(.bss)
    __temporary_stack_top$libspace           0x200015c0   Data           0  libspace.o(.bss)
    Image$$RW_IRAM1$$ZI$$Limit               0x20001bc0   Number         0  anon$$obj.o ABSOLUTE



==============================================================================

Memory Map of the image

  Image Entry point : 0x08000131

  Load Region LR_IROM1 (Base: 0x08000000, Size: 0x0000ea00, Max: 0x00010000, ABSOLUTE, COMPRESSED[0x0000e428])

    Execution Region ER_IROM1 (Exec base: 0x08000000, Load base: 0x08000000, Size: 0x0000e018, Max: 0x00010000, ABSOLUTE)

    Exec Addr    Load Addr    Size         Type   Attr      Idx    E Section Name        Object

    0x08000000   0x08000000   0x00000130   Data   RO         1667    RESET               startup_stm32f103xe.o
    0x08000130   0x08000130   0x00000008   Code   RO         6056  * !!!main             c_w.l(__main.o)
    0x08000138   0x08000138   0x00000034   Code   RO         6279    !!!scatter          c_w.l(__scatter.o)
    0x0800016c   0x0800016c   0x0000005a   Code   RO         6277    !!dczerorl2         c_w.l(__dczerorl2.o)
    0x080001c6   0x080001c6   0x00000002   PAD
    0x080001c8   0x080001c8   0x0000001c   Code   RO         6281    !!handler_zi        c_w.l(__scatter_zi.o)
    0x080001e4   0x080001e4   0x00000002   Code   RO         6150    .ARM.Collect$$libinit$$00000000  c_w.l(libinit.o)
    0x080001e6   0x080001e6   0x00000000   Code   RO         6160    .ARM.Collect$$libinit$$00000002  c_w.l(libinit2.o)
    0x080001e6   0x080001e6   0x00000000   Code   RO         6162    .ARM.Collect$$libinit$$00000004  c_w.l(libinit2.o)
    0x080001e6   0x080001e6   0x00000000   Code   RO         6165    .ARM.Collect$$libinit$$0000000A  c_w.l(libinit2.o)
    0x080001e6   0x080001e6   0x00000000   Code   RO         6167    .ARM.Collect$$libinit$$0000000C  c_w.l(libinit2.o)
    0x080001e6   0x080001e6   0x00000000   Code   RO         6169    .ARM.Collect$$libinit$$0000000E  c_w.l(libinit2.o)
    0x080001e6   0x080001e6   0x00000006   Code   RO         6170    .ARM.Collect$$libinit$$0000000F  c_w.l(libinit2.o)
    0x080001ec   0x080001ec   0x00000000   Code   RO         6172    .ARM.Collect$$libinit$$00000011  c_w.l(libinit2.o)
    0x080001ec   0x080001ec   0x0000000c   Code   RO         6173    .ARM.Collect$$libinit$$00000012  c_w.l(libinit2.o)
    0x080001f8   0x080001f8   0x00000000   Code   RO         6174    .ARM.Collect$$libinit$$00000013  c_w.l(libinit2.o)
    0x080001f8   0x080001f8   0x00000000   Code   RO         6176    .ARM.Collect$$libinit$$00000015  c_w.l(libinit2.o)
    0x080001f8   0x080001f8   0x00000000   Code   RO         6178    .ARM.Collect$$libinit$$00000017  c_w.l(libinit2.o)
    0x080001f8   0x080001f8   0x00000000   Code   RO         6180    .ARM.Collect$$libinit$$00000019  c_w.l(libinit2.o)
    0x080001f8   0x080001f8   0x00000000   Code   RO         6182    .ARM.Collect$$libinit$$0000001B  c_w.l(libinit2.o)
    0x080001f8   0x080001f8   0x00000000   Code   RO         6184    .ARM.Collect$$libinit$$0000001D  c_w.l(libinit2.o)
    0x080001f8   0x080001f8   0x00000000   Code   RO         6186    .ARM.Collect$$libinit$$0000001F  c_w.l(libinit2.o)
    0x080001f8   0x080001f8   0x00000000   Code   RO         6188    .ARM.Collect$$libinit$$00000021  c_w.l(libinit2.o)
    0x080001f8   0x080001f8   0x00000000   Code   RO         6190    .ARM.Collect$$libinit$$00000023  c_w.l(libinit2.o)
    0x080001f8   0x080001f8   0x00000000   Code   RO         6192    .ARM.Collect$$libinit$$00000025  c_w.l(libinit2.o)
    0x080001f8   0x080001f8   0x00000000   Code   RO         6196    .ARM.Collect$$libinit$$0000002C  c_w.l(libinit2.o)
    0x080001f8   0x080001f8   0x00000000   Code   RO         6198    .ARM.Collect$$libinit$$0000002E  c_w.l(libinit2.o)
    0x080001f8   0x080001f8   0x00000000   Code   RO         6200    .ARM.Collect$$libinit$$00000030  c_w.l(libinit2.o)
    0x080001f8   0x080001f8   0x00000000   Code   RO         6202    .ARM.Collect$$libinit$$00000032  c_w.l(libinit2.o)
    0x080001f8   0x080001f8   0x00000002   Code   RO         6203    .ARM.Collect$$libinit$$00000033  c_w.l(libinit2.o)
    0x080001fa   0x080001fa   0x00000002   Code   RO         6234    .ARM.Collect$$libshutdown$$00000000  c_w.l(libshutdown.o)
    0x080001fc   0x080001fc   0x00000000   Code   RO         6260    .ARM.Collect$$libshutdown$$00000002  c_w.l(libshutdown2.o)
    0x080001fc   0x080001fc   0x00000000   Code   RO         6262    .ARM.Collect$$libshutdown$$00000004  c_w.l(libshutdown2.o)
    0x080001fc   0x080001fc   0x00000000   Code   RO         6265    .ARM.Collect$$libshutdown$$00000007  c_w.l(libshutdown2.o)
    0x080001fc   0x080001fc   0x00000000   Code   RO         6268    .ARM.Collect$$libshutdown$$0000000A  c_w.l(libshutdown2.o)
    0x080001fc   0x080001fc   0x00000000   Code   RO         6270    .ARM.Collect$$libshutdown$$0000000C  c_w.l(libshutdown2.o)
    0x080001fc   0x080001fc   0x00000000   Code   RO         6273    .ARM.Collect$$libshutdown$$0000000F  c_w.l(libshutdown2.o)
    0x080001fc   0x080001fc   0x00000002   Code   RO         6274    .ARM.Collect$$libshutdown$$00000010  c_w.l(libshutdown2.o)
    0x080001fe   0x080001fe   0x00000000   Code   RO         6080    .ARM.Collect$$rtentry$$00000000  c_w.l(__rtentry.o)
    0x080001fe   0x080001fe   0x00000000   Code   RO         6105    .ARM.Collect$$rtentry$$00000002  c_w.l(__rtentry2.o)
    0x080001fe   0x080001fe   0x00000006   Code   RO         6117    .ARM.Collect$$rtentry$$00000004  c_w.l(__rtentry4.o)
